:020000040800F2
:10000000000002202DF000089DA300089FA3000817
:10001000A1A30008A3A30008A5A3000800000000F6
:1000200000000000000000000000000051790008FE
:10003000A7A3000800000000F1790008A9A30008A8
:100040007DF000087DF000087DF000087DF00008DC
:100050007DF000087DF00008BFA300087DF00008D7
:100060007DF00008C9A30008D3A300087DF00008B4
:100070007DF000087DF000087DF000087DF00008AC
:100080007DF000087DF000087DF000087DF000089C
:10009000DDA300087DF000087DF00008EDA3000856
:1000A0007DF000087DF000087DF000087DF000087C
:1000B0007DF000087DF000087DF000087DF000086C
:1000C0007DF000087DF000087DF000087DF000085C
:1000D0007DF000087DF000087DF00008FDEE0008CE
:1000E0007DF000087DF000087DF000087DF000083C
:1000F0007DF000087DF000087DF00008D1C2000806
:100100007DF000087DF000087DF000087DF000081B
:100110007DF000087DF000087DF000087DF000080B
:100120007DF00008F9A300085D2700087DF00008B5
:100130007DF000087DF000087DF000087DF00008EB
:1001400009A400087DF000087DF0000819A400084B
:100150007DF0000829A4000839A400087DF00008FB
:100160007DF000087DF000087DF000087DF00008BB
:100170007DF000087DF000087DF000080000000020
:080180007DF000087DF000088D
:1001C00010B5054C237833B9044B13B10448AFF391
:1001D00000800123237010BDD40400200000000023
:1001E000780F010808B5034B1BB103490348AFF36F
:1001F000008008BD00000000D8040020780F01082E
:1002000081F0004102E000BF83F0004330B54FEAC7
:1002100041044FEA430594EA050F08BF90EA020F34
:100220001FBF54EA000C55EA020C7FEA645C7FEAC7
:10023000655C00F0E2804FEA5454D4EB5555B8BFEA
:100240006D420CDD2C4480EA020281EA030382EA5B
:10025000000083EA010180EA020281EA0303362DED
:1002600088BF30BD11F0004F4FEA01314FF4801CC0
:100270004CEA113102D0404261EB410113F0004FD2
:100280004FEA03334CEA133302D0524263EB430389
:1002900094EA050F00F0A780A4F10104D5F1200E27
:1002A0000DDB02FA0EFC22FA05F2801841F1000182
:1002B00003FA0EF2801843FA05F359410EE0A5F156
:1002C00020050EF1200E012A03FA0EFC28BF4CF087
:1002D000020C43FA05F3C01851EBE37101F000453D
:1002E00007D54FF0000EDCF1000C7EEB00006EEB4A
:1002F0000101B1F5801F1BD3B1F5001F0CD34908D4
:100300005FEA30004FEA3C0C04F101044FEA44522A
:1003100012F5800F80F09A80BCF1004F08BF5FEAB1
:10032000500C50F1000041EB045141EA050130BD91
:100330005FEA4C0C404141EB0101013C28BFB1F5A3
:10034000801FE9D291F0000F04BF01460020B1FAEE
:1003500081F308BF2033A3F10B03B3F120020CDAC1
:100360000C3208DD02F1140CC2F10C0201FA0CF09F
:1003700021FA02F10CE002F11402D8BFC2F1200C04
:1003800001FA02F120FA0CFCDCBF41EA0C019040BA
:10039000E41AA2BF01EB0451294330BD6FEA040403
:1003A0001F3C1CDA0C340EDC04F11404C4F12002EE
:1003B00020FA04F001FA02F340EA030021FA04F300
:1003C00045EA030130BDC4F10C04C4F1200220FA57
:1003D00002F001FA04F340EA0300294630BD21FA95
:1003E00004F0294630BD94F0000F83F4801306BF5B
:1003F00081F480110134013D4EE77FEA645C18BF4F
:100400007FEA655C29D094EA050F08BF90EA020FE5
:1004100005D054EA000C04BF1946104630BD91EADD
:10042000030F1EBF0021002030BD5FEA545C05D1E0
:100430004000494128BF41F0004130BD14F580041F
:100440003CBF01F5801130BD01F0004545F0FE4193
:1004500041F470014FF0000030BD7FEA645C1ABFC8
:10046000194610467FEA655C1CBF0B46024650EAFF
:10047000013406BF52EA033591EA030F41F400212B
:1004800030BD00BF90F0000F04BF0021704730B5B1
:100490004FF4806404F132044FF000054FF0000186
:1004A00050E700BF90F0000F04BF0021704730B547
:1004B0004FF4806404F1320410F0004548BF40421C
:1004C0004FF000013EE700BF42004FEAE2014FEA71
:1004D00031014FEA02701FBF12F07F4393F07F4F4C
:1004E00081F06051704732F07F4208BF704793F04F
:1004F0007F4F04BF41F40021704730B54FF4607462
:1005000001F0004521F000411CE700BF50EA010264
:1005100008BF704730B54FF000050AE050EA01020D
:1005200008BF704730B511F0004502D5404261EB7D
:1005300041014FF4806404F132045FEA915C3FF4BE
:10054000D8AE4FF003025FEADC0C18BF03325FEA5B
:10055000DC0C18BF033202EBDC02C2F1200300FA0C
:1005600003FC20FA02F001FA03FE40EA0E0021FA31
:1005700002F11444BDE600BF70B54FF0FF0C4CF41F
:10058000E06C1CEA11541DBF1CEA135594EA0C0FD1
:1005900095EA0C0F00F0DEF82C4481EA030621EA0C
:1005A0004C5123EA4C5350EA013518BF52EA033547
:1005B00041F4801143F4801338D0A0FB02CE4FF0F9
:1005C0000005E1FB02E506F00042E0FB03E54FF029
:1005D0000006E1FB03569CF0000F18BF4EF0010E21
:1005E000A4F1FF04B6F5007F64F5407404D25FEA1D
:1005F0004E0E6D4146EB060642EAC62141EA5551D0
:100600004FEAC52040EA5E504FEACE2EB4F1FD0C11
:1006100088BFBCF5E06F1ED8BEF1004F08BF5FEA8F
:10062000500E50F1000041EB045170BD06F0004641
:1006300046EA010140EA020081EA0301B4EB5C04EE
:10064000C2BFD4EB0C0541EA045170BD41F48011E6
:100650004FF0000E013C00F3AB8014F1360FDEBF0B
:10066000002001F0004170BDC4F10004203C35DAE7
:100670000C341BDC04F11404C4F1200500FA05F36A
:1006800020FA04F001FA05F240EA020001F000420B
:1006900021F0004110EBD37021FA04F642EB060181
:1006A0005EEA430E08BF20EAD37070BDC4F10C04AB
:1006B000C4F1200500FA04F320FA05F001FA04F26F
:1006C00040EA020001F0004110EBD37041F100015B
:1006D0005EEA430E08BF20EAD37070BDC4F1200566
:1006E00000FA05F24EEA020E20FA04F301FA05F2CE
:1006F00043EA020321FA04F001F0004121FA04F276
:1007000020EA020000EBD3705EEA430E08BF20EA45
:10071000D37070BD94F0000F0FD101F0004640007F
:1007200041EB010111F4801F08BF013CF7D041EA01
:10073000060195F0000F18BF704703F00046520005
:1007400043EB030313F4801F08BF013DF7D043EAD6
:100750000603704794EA0C0F0CEA135518BF95EA8C
:100760000C0F0CD050EA410618BF52EA4306D1D113
:1007700081EA030101F000414FF0000070BD50EA32
:10078000410606BF1046194652EA430619D094EABC
:100790000C0F02D150EA013613D195EA0C0F05D1A6
:1007A00052EA03361CBF104619460AD181EA0301FA
:1007B00001F0004141F0FE4141F470014FF00000B2
:1007C00070BD41F0FE4141F4780170BD70B54FF04D
:1007D000FF0C4CF4E06C1CEA11541DBF1CEA1355CD
:1007E00094EA0C0F95EA0C0F00F0A7F8A4EB0504AF
:1007F00081EA030E52EA03354FEA013100F08880A6
:100800004FEA03334FF0805545EA131343EA12636E
:100810004FEA022245EA111545EA10654FEA002623
:100820000EF000419D4208BF964244F1FD0404F5DC
:10083000407402D25B084FEA3202B61A65EB030538
:100840005B084FEA32024FF480104FF4002CB6EBF5
:10085000020E75EB030E22BFB61A754640EA0C0075
:100860005B084FEA3202B6EB020E75EB030E22BFB5
:10087000B61A754640EA5C005B084FEA3202B6EBF6
:10088000020E75EB030E22BFB61A754640EA9C00B5
:100890005B084FEA3202B6EB020E75EB030E22BF85
:1008A000B61A754640EADC0055EA060E18D04FEA43
:1008B000051545EA16754FEA06164FEAC30343EAE3
:1008C00052734FEAC2025FEA1C1CC0D111F4801FB0
:1008D0000BD141EA00014FF000004FF0004CB6E7A9
:1008E00011F4801F04BF01430020B4F1FD0C88BF48
:1008F000BCF5E06F3FF6AFAEB5EB030C04BFB6EB53
:10090000020C5FEA500C50F1000041EB045170BD45
:100910000EF0004E4EEA113114EB5C04C2BFD4EB72
:100920000C0541EA045170BD41F480114FF0000EF6
:10093000013C90E645EA060E8DE60CEA135594EA72
:100940000C0F08BF95EA0C0F3FF43BAF94EA0C0F75
:100950000AD150EA01347FF434AF95EA0C0F7FF4EA
:1009600025AF104619462CE795EA0C0F06D152EA3E
:1009700003353FF4FDAE1046194622E750EA410622
:1009800018BF52EA43067FF4C5AE50EA41047FF433
:100990000DAF52EA43057FF4EBAE12E74FF0FF3C98
:1009A00006E000BF4FF0010C02E000BF4FF0010C69
:1009B0004DF804CD4FEA410C7FEA6C5C4FEA430CE2
:1009C00018BF7FEA6C5C1BD001B050EA410C0CBF31
:1009D00052EA430C91EA030F02BF90EA020F002093
:1009E000704710F1000F91EA030F58BF994208BFFA
:1009F00090422CBFD8176FEAE37040F001007047B7
:100A00004FEA410C7FEA6C5C02D150EA013C07D10D
:100A10004FEA430C7FEA6C5CD6D152EA033CD3D058
:100A20005DF8040B704700BF8446104662468C4652
:100A30001946634600E000BF01B5FFF7B7FF002885
:100A400048BF10F1000F01BD4DF808EDFFF7F4FFAE
:100A50000CBF012000205DF808FB00BF4DF808ED39
:100A6000FFF7EAFF34BF012000205DF808FB00BF5C
:100A70004DF808EDFFF7E0FF94BF012000205DF87E
:100A800008FB00BF4DF808EDFFF7CEFF94BF012033
:100A900000205DF808FB00BF4DF808EDFFF7C4FF2C
:100AA00034BF012000205DF808FB00BF4FEA410C75
:100AB0007FEA6C5C02D150EA013C0AD14FEA430C58
:100AC0007FEA6C5C02D152EA033C02D14FF0000095
:100AD00070474FF0010070474FEA410212F50012D3
:100AE00015D211D56FF47873B3EB625212D94FEA75
:100AF000C12343F0004343EA505311F0004F23FA5F
:100B000002F018BF404270474FF00000704750EAB3
:100B1000013005D111F0004008BF6FF00040704770
:100B20004FF00000704700BF4FEA4102B2F1E043CE
:100B300024BFB3F5001CDCF1FE5C0DD901F0004CC4
:100B40004FEAC0024CEA5070B2F1004F40EB830014
:100B500008BF20F00100704711F0804F21D113F140
:100B60003872BCBF01F00040704741F480114FEA79
:100B70005252C2F11802C2F1200C10FA0CF320FA02
:100B800002F018BF40F001004FEAC1234FEAD3231F
:100B900003FA0CFC40EA0C0023FA02F34FEA430389
:100BA000CCE77FEA625307D150EA01331EBF4FF012
:100BB000FE4040F44000704701F0004040F0FE402D
:100BC00040F40000704700BF53B94AB9002908BF7C
:100BD00000281CBF4FF0FF314FF0FF3001F0C0B8CC
:100BE000ADF1080C6DE904CE00F006F8DDF804E084
:100BF000DDE9022304B070472DE9F047089D044663
:100C00008C46002B40F083808A42174647D9B2FABF
:100C100082F242B1C2F1200024FA00F091409740E4
:100C200040EA010C94404FEA1748230CBCFBF8F64D
:100C30001FFA87FE08FB16C143EA014306FB0EF1CB
:100C4000994209D9FB1806F1FF3080F019819942C9
:100C500040F21681023E3B445B1AA4B2B3FBF8F0AB
:100C600008FB103344EA034400FB0EFEA64509D9F5
:100C70003C1900F1FF3380F00581A64540F2028166
:100C800002383C4440EA0640A4EB0E0400261DB1A5
:100C9000D4400023C5E900433146BDE8F08702B9DE
:100CA000FFDEB2FA82F2002A50D1CB1B4FEA174E78
:100CB0001FFA87F80126B3FBFEFC210C0EFB1C3348
:100CC00041EA034108FB0CF38B4207D979180CF178
:100CD000FF3002D28B4200F2E9808446C91AA3B2E7
:100CE000B1FBFEF00EFB101143EA014408FB00F8D3
:100CF000A04507D93C1900F1FF3302D2A04500F20C
:100D0000D9801846A4EB080440EA0C40BFE78B42A8
:100D100009D9002D00F0B1800026C5E90001304658
:100D20003146BDE8F087B3FA83F6002E4AD18B42F4
:100D300002D3824200F2B880841A61EB03010120E1
:100D40008C46002DA8D0C5E9004CA5E7C2F12003D0
:100D500020FA03F6974001FA02F04FEA174ED94005
:100D60003043030CB1FBFEF61FFA87F80EFB161199
:100D700043EA014306FB08F1994204FA02F409D957
:100D8000FB1806F1FF3C80F08D80994240F28A808A
:100D9000023E3B445B1A81B2B3FBFEF00EFB103304
:100DA00041EA034100FB08F38B4207D9791800F1AF
:100DB000FF3C73D28B4271D902383944CB1A40EAD6
:100DC000064678E7C6F1200C03FA06F422FA0CF383
:100DD0001C4320FA0CF701FA06F34FEA144E21FAED
:100DE0000CF11F433B0CB1FBFEF91FFA84F80EFB1C
:100DF000191143EA014109FB08FA8A4502FA06F291
:100E000000FA06F308D9611809F1FF3048D28A4583
:100E100046D9A9F102092144A1EB0A01BFB2B1FBF5
:100E2000FEF00EFB101147EA014700FB08F8B84539
:100E300007D9E71900F1FF312ED2B8452CD9023875
:100E4000274440EA0940A7EB0807A0FB02894F4569
:100E5000C64649461AD317D05DB1B3EB0E0267EB15
:100E6000010707FA0CFCF2404CEA0202F740C5E920
:100E7000002700263146BDE8F0872E4628460BE7BE
:100E80000646E9E61846FDE64345E5D2B8EB020E14
:100E900069EB04010138DFE70846D2E760468DE7D9
:100EA0008146B9E7664675E730464AE7ACF1020C81
:100EB000394413E702383C4424E700BF03685A0072
:100EC0004CBF43F0004323F000431844704700BF79
:100ED0002DE9F84329B34F1E044615463E464FF010
:100EE000000808EB060101EBD171491004EBC109C0
:100EF0004846FFF7E3FF0346C80008308F4220440E
:100F000009D0AB4209D8FFF7D9FF0138A8420AD26D
:100F100001F10108E5E7AB4205D9884501D04E1E35
:100F2000DFE74FF000094846BDE8F883012807D005
:100F3000022807D0044B00280CBF18460020704739
:100F40000248704702487047F1150008F51500087F
:100F5000F915000830B5234B83B004468D1E3BB312
:100F600001A92846AFF30080E8B101992A46FFF7AE
:100F7000AFFF0146B8B1FFF7A1FF4B68A064012B9A
:100F80002BD0002B01F1040023DBFFF797FF002398
:100F9000C4E913030368002B10DBFFF78FFF206108
:100FA000002003B030BD00230920236103B030BD11
:100FB0000D490E48091AC9100191D7E7C3F3036020
:100FC000FFF7B4FF0028206114BF0020092003B000
:100FD00030BD0123C4E91303DCE7002323610520AE
:100FE000DFE700BF0000000054140108F4120108FC
:100FF0000368DA0710B5044606D49B0700F14800E1
:1010000009D500F04BFC2368590709D51A070ED5FE
:10101000DB0613D510BD00F039FC23685907F5D461
:1010200004F1D00000F042FC23681A07F0D404F564
:10103000A87000F043FC2368DB06EBD404F5E870ED
:10104000BDE8104000F07EBC0346006800B11844C3
:10105000704700BF09207047704700BF70B5044655
:101060000E46316C2046FFF775FF054688B9336C94
:101070006361324623692146012098470828F0D051
:10108000072806D12846316CFFF7E6FF301D00F037
:10109000F1FB0FF033FE00BF2DE9F0470D1D0646B2
:1010A00014460FCDADF5727D0DF10C0CACE80F00C0
:1010B0000FCDACE80F000FCDACE80F0095E80F00A6
:1010C00002ADF768D6F818808CE80F0000232B607B
:1010D00021E02B6C73614FF4F07229467AA800F07E
:1010E00041FE33697AAA314650469847889BCDE93C
:1010F000005821466B648146334632460120B8478A
:101100000446E8B94FF4F0727AA9284600F02AFEA6
:10111000B9F1080F1BD1296C3046FFF71BFF0934CA
:101120005FFA84FA81460028D3D0AB6B4AF01001F5
:10113000CDE9005832466B6401203346B84708B108
:101140004FF0090948460DF5727DBDE8F087B9F109
:10115000070FF5D12046296CFFF77EFF03A800F0AA
:1011600089FB00BF406C7047F0B5CB6B0B640E1D64
:101170000F4605460FCEF9B001AC0FC40FCE0FC419
:101180000FCE0FC496E80F004FF0FF3684E80F0033
:10119000009606E02B696A462946984708280446C7
:1011A00008D110992846FFF7D5FE0028F2D0092073
:1011B00079B0F0BD6846FFF71BFF062CF7D1394622
:1011C0002846FFF74BFF00BF30B4DD6BC160826182
:1011D00019461D64002230BC5EE700BF70B5C668CA
:1011E00043690B64AEB903690A4604460D460146DD
:1011F00002209847072805D008280FD12946204605
:10120000FFF72CFF3046296CFFF726FF281D00F062
:1012100031FB0122FFF740FF0FF070FD0FF06EFD74
:10122000C2681AB1CA6B0A64002235E79CE700BFA6
:10123000704700BF836801460BB101201847704713
:10124000012912D009D873B90F2A0CD800EB8202F9
:1012500018465368009A136070470339012994BFF8
:10126000012002207047022070470846704700BFE7
:1012700010B584B0002303AC0A4600941946FFF76A
:10128000DFFF039804B010BD012912D009D873B94B
:101290000F2A0CD800EB8200009A126842601846B0
:1012A00070470339012994BF0120022070470220B2
:1012B00070470846704700BF10B584B0002303ACE8
:1012C000039200940A461946FFF7DEFF04B010BDF2
:1012D000F0B5D36B1364151D8C4606460FCDADF5E6
:1012E0000F7D17AC0FC40FCD0FC40FCD0FC495E801
:1012F0000F004FF0FF3784E80F006546169710E0A7
:10130000FFF7DAFF294616A8B047034616AA694632
:10131000082083B9049B9847052804460CD0092867
:1013200009D026996846FFF715FE03466A460C2148
:1013300016A8002BE4D0092416A8FFF759FE204672
:101340000DF50F7DF0BD00BF2DE9F04FCC6C89B0DD
:101350000D4654F8041B0694174600F003081E4679
:10136000002B79D00B0CDAB209048DF81D30022362
:1013700004EB820405918DF81C302B6DB8F1020F3F
:1013800008BFAC6B13F001030CD0384605A900F080
:1013900073FB18B9082009B0BDE8F08F092009B027
:1013A000BDE8F08FD4F800A0BAF1000FEDD00193A2
:1013B00000F008030293022E4AD0B4F800A0B4F85B
:1013C00002900434AA6C29F0010B0F213846934493
:1013D000FFF74EFF834539D82AF001025A44824272
:1013E00094BF002001204FEA490303F002030AF0F2
:1013F000010A43EA0A03012B49D0022B32D0002B09
:10140000CCD1B8F1000F02D0002840F0CD800434D8
:10141000D4F800A0BAF1000FCDD105A9384600F0EC
:101420002BFB0028BAD1019B002BB3D00F213846EB
:10143000FFF71EFF0E2102463846FFF73DFF3846F4
:101440006A4A0F21FFF738FF0720A8E70020CAE704
:10145000D4F804900834B5E7090203230591ADF8E8
:101460001C308AE7236823F0004BB8F1000F45D108
:1014700028B1029A002A5CD0BBF1000F74D0002B77
:1014800000DA04340BF1010B04EB8B04C0E7B8F174
:10149000000F19D1B0B1D4E90023991C4FEAD272E0
:1014A0003FF47CAF05F158010133049100F09080C6
:1014B000201DFFF7C9FD04AB01462846AFF30080AD
:1014C00000285BD10834A3E70D213846D5F82090D9
:1014D000FFF7CEFE8145F5D1AB6A9C42F2D12046A2
:1014E000FFF7ECFC0F2102463846FFF7E5FE3846D1
:1014F0002A460021FFF7E0FE072050E70D2138467D
:10150000D5F82090FFF7B4FE814501D02368B6E7F7
:10151000AB6A9C42FAD104220021C5E90B12A31840
:10152000C5F828B06B6323688B4259DB0123019314
:10153000A8E705F15803CDF80C8004F1040AB04681
:1015400091461E460DE00496FFF77EFD04AB014672
:1015500000222846AFF3008009F101090AF1040ACC
:10156000E8B9D9455046EED138460D21FFF780FE47
:10157000049B2862C5E90934062010E781460D2145
:101580003846FFF775FEB9F1020F286225D12B46C8
:10159000049A43F82C2F6B62AC620620FFE64646A5
:1015A0002368DDF80C806AE72046FFF787FC0434E7
:1015B0000246AC6328461446AFF3008000283FF48F
:1015C000EDAE384622460F21FFF776FE0720E6E60D
:1015D00038460D21FFF74CFE2862049B6B62DBE767
:1015E0000BF1010004EB80007AE700BF000000006F
:1015F0000023A9E60123A7E60223A5E62DE9F0438F
:101600000646C3B015461C46042900F2B980DFE83F
:1016100001F09A53B7290300002C40F0B180102A42
:1016200000F2AE800368D80600F1F38020AF3846A0
:1016300000F092F9B06B0023012404FA03F22A426D
:10164000014604D051F8042B47F823200846013303
:10165000042BF2D1B063384600F074F9002043B097
:10166000BDE8F083032C40F08B8094B204EB12436E
:10167000102B4FEA124500F2838003681F0700F128
:10168000D08020AF384600F03BF907EBC501B56BC1
:1016900054B10B46E81A01EBC401E4001A5843F8B0
:1016A000042B8B42FAD125443846B56300F006F985
:1016B000002043B0BDE8F083012C4FEA124895B2F8
:1016C0005AD0052C5CD108EB0509B9F1200F57D889
:1016D000B8F10F0F77D9A946002D40F08880B36B81
:1016E0006DB320AF4FF0000907EBC807043F03EBD1
:1016F000C50553F8041B47F8041FAB42F9D1B9F1F3
:10170000000F0FD06F464146102938BF102107EB5C
:10171000C101843903EBC90553F8040B41F8040FE8
:10172000AB42F9D1012C00F08480B8F10F0FB56302
:1017300045D9B9F1000F02D0684600F0B7F8002093
:1017400043B0BDE8F083DCB9876B2346012094B237
:1017500006F1040C00FA03F22242394604D051F893
:10176000042B4CF823200F460133102BF2D115F433
:101770000050E4D1B76304E008EB0503102B03D954
:10178000022043B0BDE8F083B8F10F0FF8D83368FA
:10179000DA0706D5304623F0030340F8483B00F053
:1017A00079F820AF384600F075F8B36B002D99D169
:1017B0001D460435B563384600F068F8BFE720A839
:1017C00000F06CF8B5E7B9F1100F40D9A9F1100994
:1017D0003368D90708D523F00103304643F00203EC
:1017E00040F8483B00F05EF8B9F1000F32D03368A2
:1017F0005A0720D4B8F10F0F25D96F463846C8F1E3
:10180000100500F057F8002DB36B7FF77CAF20AFC9
:101810006AE723F01003336006F5E87000F09CF8E7
:1018200004E723F00803036000F5A87000F068F8EF
:1018300027E720AFBDE7304623F0040340F8D03B54
:1018400000F038F8D6E720A800F02CF8D5E74FF0E4
:101850000009BDE7B8F10F0F3FF641AF20AF3846A2
:1018600000F020F8B36B002D7FF43CAF384600F059
:1018700015F864E700F1340191E838009C46A6466B
:101880004CF8045D90E8FF0FE54600BD90EC210B9D
:10189000704700BF80EC210B704700BF90EC200B1D
:1018A000704700BF80EC200B704700BFD0EC200BCE
:1018B000704700BFC0EC200B704700BFF0EC020186
:1018C000F0EC0211F0EC0221F0EC0231F0EC0241FC
:1018D000F0EC0251F0EC0261F0EC0271F0EC0281EC
:1018E000F0EC0291F0EC02A1F0EC02B1F0EC02C1DC
:1018F000F0EC02D1F0EC02E1F0EC02F1704700BF35
:10190000E0EC0201E0EC0211E0EC0221E0EC02313B
:10191000E0EC0241E0EC0251E0EC0261E0EC02712B
:10192000E0EC0281E0EC0291E0EC02A1E0EC02B11B
:10193000E0EC02C1E0EC02D1E0EC02E1E0EC02F10B
:10194000704700BFB0FC0181B0FC0191B0FC01A167
:10195000B0FC01B1704700BFA0FC0181A0FC019167
:10196000A0FC01A1A0FC01B1704700BFEC4600B58E
:101970002DE900502DE9FF1F4FF000032DE90C0069
:1019800001A9FFF7F1FBDDF840E012B0704700BF9E
:10199000EC4600B52DE900502DE9FF1F4FF0000384
:1019A0002DE90C0001A9FFF719FCDDF840E012B0A9
:1019B000704700BFEC4600B52DE900502DE9FF1F30
:1019C0004FF000032DE90C0001A9FFF729FCDDF819
:1019D00040E012B0704700BFEC4600B52DE9005062
:1019E0002DE9FF1F4FF000032DE90C0001ABFFF7BD
:1019F000EBFBDDF840E012B0704700BFEC4600B5ED
:101A00002DE900502DE9FF1F4FF000032DE90C00D8
:101A100001AAFFF75DFCDDF840E012B0704700BF9F
:101A2000027A7AB9437AA3B14268013B10B4437297
:101A300013680321141D01721A024460026010BC75
:101A4000180E70470368013A02721A020260180EFB
:101A50007047B020704700BF00B585B003AA0023CF
:101A6000009219460C22FFF7EBFB039805B05DF8D6
:101A700004FB00BFF0E700BF2DE9F043054685B049
:101A80000E464FF000083046FFF7CAFFB028044664
:101A900000F0B280070620D500F0F003802B4DD077
:101AA000902B36D0A02B60D0B02B74D0C02B00F080
:101AB0008B8000F0F803D02B0BD100F0070201322D
:101AC00042F40022052301212846FFF797FD002854
:101AD000D9D0092005B0BDE8F0830DF10C09002331
:101AE00019468700CDF800900D222846FFF7A8FB85
:101AF000FFB2039BCDF80090043760064CBFDF1B9C
:101B0000FF18002319460D2228460397FFF7BCFB58
:101B1000B9E700F00D030D2BDBD003AF002300F07D
:101B20000F02194600972846FFF78AFB002300970B
:101B300019460D222846FFF7A7FBA4E73046FFF71A
:101B40006FFF24022043B0F5004FC2D004010023F0
:101B5000A2B219462846FFF751FD0028B9D114F466
:101B6000004F18BF4FF001088DE7C24302F0070392
:101B70004FF47F621A41010702F47F624FF00003C5
:101B800048BF42F4804219462846FFF737FD002837
:101B90003FF479AF9DE7B12833D0B22800F08B80B5
:101BA000B32839D000F0FC03B42B92D000F0070228
:101BB0000132012342F4002219462846FFF71EFD98
:101BC00000283FF460AF84E7C62842D0C7284CD035
:101BD00000F0F803C02B5BD0C82860D0C9287FF480
:101BE00078AF3046FFF71CFF020300F00F0002F44D
:101BF00070220130024365E7B8F1000F18D00020D1
:101C000068E73046FFF70CFF024600283FF461AF5B
:101C100010F0F003D0D05CE73046FFF701FF01037E
:101C200000F00F0001F47021421C01230A43C3E7B6
:101C300003AC43460E22414600942846FFF700FBC2
:101C40000094284643460F224146FFF71DFB4046BD
:101C500040E73046FFF7E4FE010300F00F0001F417
:101C60007021421C03230A43A6E73046FFF7D8FE43
:101C7000024600283FF42DAF10F0F0037FF429AFA7
:101C800004212846FFF7BAFC00283FF4FCAE20E709
:101C900000F00F020132032342F420228CE7304689
:101CA000FFF7BEFE00F0F00200F00F031032013328
:101CB00043EA023206E700230DF10C090D22194612
:101CC000CDF800902846FFF7BBFA3046FFF7A8FE94
:101CD00002064FF002070CD5039B00F07F00B840CE
:101CE000034430460393FFF79BFE030607F1070703
:101CF000F2D4039BCDF8009000F07F0403F501724D
:101D0000BC400023144419460D2228460394FFF7D3
:101D1000BBFAB8E610B5C26C84B0536803248DF8E2
:101D20000C401B0202F108040846D279019301A974
:101D300002948DF80D20FFF79FFE04B010BD00BF88
:101D400008B5FFF797FE806C08BD00BF08B5FFF728
:101D500091FEC06CC379023300EB830008BD00BF65
:101D6000704700BF844641EA000313F003036DD1BE
:101D7000403A41D351F8043B40F8043B51F8043B4E
:101D800040F8043B51F8043B40F8043B51F8043B55
:101D900040F8043B51F8043B40F8043B51F8043B45
:101DA00040F8043B51F8043B40F8043B51F8043B35
:101DB00040F8043B51F8043B40F8043B51F8043B25
:101DC00040F8043B51F8043B40F8043B51F8043B15
:101DD00040F8043B51F8043B40F8043B51F8043B05
:101DE00040F8043B51F8043B40F8043B51F8043BF5
:101DF00040F8043B403ABDD2303211D351F8043B95
:101E000040F8043B51F8043B40F8043B51F8043BD4
:101E100040F8043B51F8043B40F8043B103AEDD243
:101E20000C3205D351F8043B40F8043B043AF9D294
:101E3000043208D0D2071CBF11F8013B00F8013B67
:101E400001D30B8803806046704700BF082A13D374
:101E50008B078DD010F003038AD0C3F10403D21A8C
:101E6000DB071CBF11F8013B00F8013B80D331F8C0
:101E7000023B20F8023B7BE7043AD9D3013A11F840
:101E8000013B00F8013BF9D20B7803704B784370AB
:101E90008B788370604670470000000000000000EF
:101EA0000000000000000000000000000000000032
:101EB0000000000000000000000000000000000022
:101EC00090F800F06DE9024520F007016FF0000C7A
:101ED00010F0070491F820F040F049804FF0000422
:101EE0006FF00700D1E9002391F840F000F10800FD
:101EF00082FA4CF2A4FA8CF283FA4CF3A2FA8CF335
:101F00004BBBD1E9022382FA4CF200F10800A4FA9B
:101F10008CF283FA4CF3A2FA8CF3E3B9D1E90423EF
:101F200082FA4CF200F10800A4FA8CF283FA4CF326
:101F3000A2FA8CF37BB9D1E9062301F1200182FAE0
:101F40004CF200F10800A4FA8CF283FA4CF3A2FAE6
:101F50008CF3002BC6D0002A04BF04301A4612BAF4
:101F6000B2FA82F2FDE8024500EBD2007047D1E9F7
:101F7000002304F00305C4F100004FEAC50514F086
:101F8000040F91F840F00CFA05F562EA05021CBF57
:101F900063EA050362464FF00004A9E710B5044662
:101FA00000F064FB236802681A6000F063FBA3681A
:101FB00002681A6000F062FBE36802681A6000F0D1
:101FC00051FB636802681A6000F05CFB23690268D9
:101FD0001A60204610BD0000F0B4049E00246FE09B
:101FE000D3ED057A04EB4407374D05EB870595EDF6
:101FF000007A67EE877A93ED067AD5ED016A27EECF
:10200000267A77EE877A93ED077AD5ED026A27EE86
:10201000267A77EE877A2D4D05EB840595ED007ACB
:1020200000EB840577EE877AC5ED007AD3ED017A6F
:10203000274D05EB870595ED007A67EE877A93EDDE
:10204000027AD5ED016A27EE267A77EE877A93ED4C
:10205000037AD5ED026A27EE267A77EE877A1D4D50
:1020600005EB840595ED007A01EB840577EE877A20
:10207000C5ED007AD6ED017A174D05EB870595ED94
:10208000007A67EE877A96ED027AD5ED016A27EE3F
:10209000267A77EE877A96ED037AD5ED026A27EEF7
:1020A000267A77EE877A0D4D05EB840595ED007A5B
:1020B00002EB840577EE877AC5ED007A0134E4B24D
:1020C000022C8DD9F0BC70473C0000209C050020FC
:1020D0000C000020580500206000002004060020AD
:1020E00010B51B4B1B78C3B9DFED1A7AB4EEE70AC3
:1020F000F1EE10FA0CDD184A13780133DBB21370DD
:10210000C82B05D9124B01221A70144B144A9A623B
:1021100041F287300AF014F910BD104CDFED0D0AC2
:1021200020460CF0A3FDD4ED087AF5EEC07AF1EE6E
:1021300010FA0AD4094BD3ED087AFCEEE77A17EED1
:10214000903A98B20AF0FCF8E6E700222262F1E742
:10215000900500200000344211060020AC0500204C
:1021600000401C4510B5EFF311844FF0500383F38A
:102170001188BFF36F8FBFF34F8F4E4B1B7813F057
:10218000010F17D04C4B9B6C1B681B6813F0010FA1
:1021900010D1494BDB6C1B681B6813F0010F09D190
:1021A000464B1B7813F0020F04D1454B1B7813F0FC
:1021B000020F3CD0414B1B7813F0010F17D03E4B60
:1021C0009B6C1B681B6813F0010F10D13A4BDB6C42
:1021D0001B681B6813F0010F09D1364B1B7813F0F5
:1021E000020F04D1364B1B7813F0020F35D0344B5D
:1021F0001B7813F0010F17D02F4B9B6C1B681B68CB
:1022000013F0010F10D12C4BDB6C1B681B6813F013
:10221000010F09D1274B1B7813F0020F04D1274B74
:102220001B7813F0020F2ED084F3118810BD214BC0
:102230001A7802F0FE021A701A7842F002021A703E
:10224000002201211F4801F025FE08221E491F48D7
:102250000AF006F984F31188E8E7184B1A7802F0BF
:10226000FE021A701A7842F002021A70002210213F
:10227000174801F00FFE0922164917480AF0F0F836
:1022800084F31188D2E70E4B1A7802F0FE021A701E
:102290001A7842F002021A70002210210C4801F054
:1022A000F9FD04220D490E480AF0DAF884F311888A
:1022B000BCE700BFA8050020B4720020690500201B
:1022C000680500200004024094050020340000202E
:1022D00000000240340500200000002064050020BA
:1022E000300000204FF07E53036000234360836082
:1022F000C360704708B593ED024AD3ED013A93ED00
:10230000003AD2ED022A92ED012AD2ED001A91EDA7
:10231000021AD1ED010A91ED000A09F0FDFC08BD99
:10232000F8B52DED028B04460F4616461D46D0ED3E
:10233000000A90ED030A20EE800AD0ED017A90EDBC
:10234000027A27EE877A30EE070A60EEA00A67EE7F
:10235000A77A70EEA70A70EEA00AB7EE008A70EEB8
:10236000C80A30EE000A0CF0F5FF87ED000AD4ED44
:10237000017A94ED030A67EE807A94ED000A94EDF9
:10238000027A20EE070A77EEC07AB8EE000A27EE4E
:10239000800A0CF07FFF86ED000AD4ED000A94ED70
:1023A000010A20EE800A94ED027AD4ED037A27EE3A
:1023B000277A30EE070A60EEA00A67EEA77A70EE81
:1023C000A70A70EEA00A70EEC80A30EE000A0CF000
:1023D000C1FF85ED000ABDEC028BF8BD80B582B06F
:1023E000072005F014FA02E0642005F010FA09F065
:1023F000E8F90028F8D102E0642005F008FA09F0B5
:1024000075FE0028F8D1794D05F11002291D05F15E
:10241000140009F07FFA764E764C774B00932B46EA
:10242000324621467548FFF7D7FDDFED750A9FED6F
:10243000750A754A002175480CF0FEFB32462146AC
:102440007348FFF74FFF2168724A1160724B1960A1
:10245000616851605960A16891609960002006F040
:1024600033FB06F073FC6D4B18606D481023C3619D
:1024700003F0ACFB002840F08F80082269496A48CD
:1024800009F064FF694B01221A704FF0FF310120FF
:1024900006F03AFE0128F8D1654B1B7813F0080FBF
:1024A0007DD1644B1B7813F0040F40F08280624BA7
:1024B0001B7813F0040F40F08980574BD3ED007A5E
:1024C000544C94ED007A83ED007ADFED5C5A27EEF0
:1024D000257A9FED5B6A67EE867A37EE277A454963
:1024E000D1ED007ADFED576A67EEA67A37EE277AEC
:1024F00084ED007AD3ED017A94ED017A83ED017ACF
:1025000027EE257A67EE867A37EE277AD1ED017AC3
:1025100067EEA67A37EE277A84ED017A93ED027A98
:10252000D4ED027AC3ED027A67EEA57A27EE067A39
:1025300077EE877A91ED027A27EE267A77EE877A20
:10254000C4ED027A2A4F2D4E2B4B0093274B3A466F
:102550003046FFF741FD2E4D3B46224631469FED6A
:102560003A0A2846FFF7C6FE384901F108030A1D5A
:102570002846FFF7D5FE364A137803F0010313709F
:10258000002B82D01346127802F0FE021A701A78DD
:1025900042F002021A7078E707F080FD6DE7244AE6
:1025A000137803F0F70313702A492B4809F080F9D8
:1025B00077E7204A137803F0FB0313700B4901F10E
:1025C00020020431254809F02FF970E71A4A1378E0
:1025D00003F0FB031370054C04F11001204809F0CF
:1025E00009F994ED040AFFF77BFD66E76C0500200E
:1025F00014050020F0040020F40500200805002048
:102600000080894500A08C45D80F0108AC0500204A
:10261000200500204C05002040050020300500204A
:10262000B47200209405002034000020A905002089
:10263000A805002069050020680500205AF8F63F2B
:102640005D896EBFD5A9183B6F12833AFC04002048
:10265000100600208005002095050020360500208A
:10266000660500200048704720050020004870479C
:10267000FC0400200048704708050020004870470F
:10268000F0040020004870471405002010B5102801
:1026900006D0202815D008281FD0012835D010BD1D
:1026A000254A137843F001031370244A137843F04A
:1026B00001031370224B1B78002BF0D0FFF752FD63
:1026C000EDE7204A137843F0010313701C4B1B788D
:1026D000002BE4D0FFF746FDE1E71B4A137843F0F7
:1026E00001031370137803F001031370002BD6D08D
:1026F0001346127802F0FE021A701A7842F00202B3
:102700001A70124809F032FDC9E706F093FC01285F
:10271000C5D00F4C21460F4B186806F031FD2368D9
:10272000002BBCD00C4B4FF080521A60BFF34F8F80
:10273000BFF36F8FB3E700BF690500206805002075
:10274000A9050020A805002010060020F80500209B
:10275000140600203005002004ED00E008B5AD4B64
:10276000DB6C1B68AC4A934240F29D80583A526839
:10277000AA498B4231D001F580618B4278D0A1F516
:1027800068718B4276D001F580618B4274D0A1F5DF
:1027900089618B4272D001F580618B4271D0A1F5C5
:1027A00068718B4270D001F580618B426FD0A1F5CA
:1027B00089618B426ED001F580618B426DD0A1F5AD
:1027C00068718B426CD001F580618B4202D04FF072
:1027D000006103E04FF4001100E020210A4214BF21
:1027E00001220022002A00F0A4818B4A934240F289
:1027F000BC81A2F58962934200F0718102F580628A
:10280000934200F09781A2F56872934200F09481A0
:1028100002F58062934200F09181A2F589629342B1
:1028200000F08E8102F58062934200F08C81A2F567
:102830006872934200F08A8102F58062934200F050
:102840008881A2F58962934200F0868102F5806258
:10285000934200F08481A2F56872934200F0828175
:1028600002F58062934200F037814FF0006237E159
:102870002021B3E72021B1E72021AFE74FF4006129
:10288000ACE74FF40061A9E74FF40061A6E74FF40D
:102890000061A3E74FF40011A0E74FF400119DE79A
:1028A0004FF400119AE75E4A934258D902F55272EA
:1028B00012685A498B4231D001F580618B4233D086
:1028C000A1F568718B4231D001F580618B422FD028
:1028D000A1F589618B422DD001F580618B422CD00E
:1028E000A1F568718B422BD001F580618B422AD013
:1028F000A1F589618B4229D001F580618B4228D0F6
:10290000A1F568718B4227D001F580618B4202D01E
:102910004FF0006103E04FF4001100E020210A4273
:1029200014BF012200225DE72021F8E72021F6E70D
:102930002021F4E74FF40061F1E74FF40061EEE786
:102940004FF40061EBE74FF40061E8E74FF400114A
:10295000E5E74FF40011E2E74FF40011DFE7314AF9
:10296000934261D9583A52682C498B4231D001F5D3
:1029700080618B4233D0A1F568718B4231D001F573
:1029800080618B422FD0A1F589618B422DD001F55A
:1029900080618B422CD0A1F568718B422BD001F560
:1029A00080618B422AD0A1F589618B4229D001F543
:1029B00080618B4228D0A1F568718B4227D001F548
:1029C00080618B4202D04FF0006103E04FF40011B0
:1029D00000E020210A4214BF0122002202E7202148
:1029E000F8E72021F6E72021F4E74FF40061F1E752
:1029F0004FF40061EEE74FF40061EBE74FF4006144
:102A0000E8E74FF40011E5E74FF40011E2E74FF477
:102A10000011DFE7B47200205864024010600240E9
:102A2000B860024058600240A74A1268A7498B422A
:102A300031D001F580618B4233D0A1F568718B42B2
:102A400031D001F580618B422FD0A1F589618B4295
:102A50002DD001F580618B422CD0A1F568718B429D
:102A60002BD001F580618B422AD0A1F589618B4280
:102A700029D001F580618B4228D0A1F568718B4285
:102A800027D001F580618B4202D04FF0006103E056
:102A90004FF4001100E020210A4214BF012200225D
:102AA000A0E62021F8E72021F6E72021F4E74FF403
:102AB0000061F1E74FF40061EEE74FF40061EBE7EE
:102AC0004FF40061E8E74FF40011E5E74FF400111F
:102AD000E2E74FF40011DFE74FF4001200E020229C
:102AE0007B4BDA607B4B1B7813F0020F40F0528176
:102AF000794B1B7813F0020F40F05B81774B1B780A
:102B000013F0020F40F06481FFF72CFB714B1B7830
:102B100013F0040F0DD06F4B1A7802F0FB021A70FD
:102B20001A7842F008021A706D4A136943F00103E3
:102B3000136108BD2022D3E72022D1E72022CFE76E
:102B40004FF40062CCE74FF40062C9E74FF4006233
:102B5000C6E74FF40062C3E74FF40012C0E74FF43A
:102B60000012BDE74FF40012BAE75E4A934253D910
:102B7000A83A934231D002F58062934231D0A2F557
:102B8000687293422FD002F5806293422DD0A2F555
:102B9000896293422BD002F5806293422AD0A2F53B
:102BA0006872934229D002F58062934228D0A2F540
:102BB0008962934227D002F58062934226D0A2F523
:102BC0006872934225D002F58062934202D04FF0A2
:102BD000006203E04FF4001200E020223C4B9A60B8
:102BE00080E72022FAE72022F8E72022F6E74FF4D8
:102BF0000062F3E74FF40062F0E74FF40062EDE7A4
:102C00004FF40062EAE74FF40012E7E74FF40012D6
:102C1000E4E74FF40012E1E7334A934266D9483AB9
:102C2000934231D002F58062934231D0A2F56872AE
:102C300093422FD002F5806293422DD0A2F5896293
:102C400093422BD002F5806293422AD0A2F568729B
:102C5000934229D002F58062934228D0A2F589627E
:102C6000934227D002F58062934226D0A2F5687283
:102C7000934225D002F58062934202D04FF0006269
:102C800003E04FF4001200E020220F4BDA6029E746
:102C90002022FAE72022F8E72022F6E74FF400622C
:102CA000F3E74FF40062F0E74FF40062EDE74FF412
:102CB0000062EAE74FF40012E7E74FF40012E4E79E
:102CC0004FF40012E1E700BF0060024010600240D4
:102CD00000640240A8050020690500206805002066
:102CE000003C0140B860024058600240404A9342B4
:102CF00031D002F58062934231D0A2F568729342DE
:102D00002FD002F5806293422DD0A2F589629342C2
:102D10002BD002F5806293422AD0A2F568729342CA
:102D200029D002F58062934228D0A2F589629342AD
:102D300027D002F58062934226D0A2F568729342B2
:102D400025D002F58062934202D04FF0006203E08A
:102D50004FF4001200E02022264B9A60C2E62022A7
:102D6000FAE72022F8E72022F6E74FF40062F3E7C3
:102D70004FF40062F0E74FF40062EDE74FF40062B9
:102D8000EAE74FF40012E7E74FF40012E4E74FF4EC
:102D90000012E1E7184B1A7802F0FD021A701A7857
:102DA00042F004021A7001221146144801F072F830
:102DB0009EE6134B1A7802F0FD021A701A7842F060
:102DC00004021A70012210210E4801F063F895E602
:102DD0000D4B1A7802F0FD021A701A7842F00402C4
:102DE0001A7001221021074801F054F88CE600BF48
:102DF0001060024000600240A8050020000402406C
:102E000069050020000002406805002008B50CF0AC
:102E10000DF808BD00B583B0064B01930523009360
:102E200000234FF480720449044805F050FD03B0BC
:102E30005DF804FB18060020E40F0108412E00088D
:102E400010B5ADF5707DC92005F05AFF194B0293FE
:102E500000248DF8024281A8FFF7A0F8ADF8BA432C
:102E6000ADF8BC43ADF8BE4302A80BF039FD02A893
:102E70000BF05AFA02A80BF039FA02A80BF0AEFADE
:102E800002A80BF051FA02A80BF0E4FC02A80BF028
:102E90004AFEBDF9F410ADF8BA13BDF8D421524280
:102EA00012B2ADF8BC23BDF9BE330093CEA80BF02F
:102EB0006BFEDFE79C7B002010B504460E4B1878B4
:102EC0004FF47A73B3FBF0F30C4A1068B0FBF3F0E5
:102ED00000F014FD68B90F2C01D901200AE000228E
:102EE00021464FF0FF3000F0C7FC054B1C6000206E
:102EF00000E0012010BD00BF8400002090000020F1
:102F00008800002008B50B4B1A6842F400721A6062
:102F10001A6842F480621A601A6842F480721A6079
:102F2000032000F097FC0F20FFF7C6FF07F014FA0C
:102F3000002008BD003C0240034A1168034B1B7887
:102F40000B441360704700BF1C0600208400002063
:102F5000014B1868704700BF1C0600204A4B5A6896
:102F600022F440325A605A6841680A435A60026843
:102F7000536823F48073536002685368016943EA1D
:102F8000012353600268536823F040735360026862
:102F9000536881680B4353600268936823F40063AD
:102FA000936002689368C1680B439360826A374BF1
:102FB0009A4257D00268936823F070639360026866
:102FC0009368816A0B4393600268936823F04053CF
:102FD000936002689368C16A0B43936002689368C8
:102FE00023F00203936002689368017E43EA410381
:102FF000936090F82030002B3FD00268536843F470
:10300000006353600268536823F4604353600168AF
:103010004B68426A013A43EA42334B600268D36A22
:1030200023F47003D3620168CB6AC269013A43EAB0
:103030000253CB620268936823F4007393600268C2
:10304000936890F8301043EA4123936002689368D4
:1030500023F48063936002689368416943EA8123A3
:10306000936070470268936823F07063936002680E
:10307000936823F040539360B0E70268536823F4E9
:1030800000635360CAE700BF002301400100000F46
:1030900038B310B50446036C43B1236C13F0100F22
:1030A0000BD00120002384F83C3010BD06F058FB03
:1030B0000023636484F83C30EFE7236C23F48853E7
:1030C00023F0020343F0020323642046FFF746FF88
:1030D00000206064236C23F0030343F001032364A6
:1030E000E0E701207047000030B482B00023019374
:1030F00090F83C30012B00F0B780012380F83C3081
:103100000B68092B3ED90568EA689BB203EB4303C1
:103110001E3B072404FA03F322EA0303EB6005686D
:10312000EA688C680B8803EB43031E3B04FA03F345
:103130001343EB604B68062B3AD805686A6B03EBC8
:103140008303053B1F2404FA03F322EA03036B63A2
:1031500005686A6B4B6803EB8303053B0C8804FA34
:1031600003F313436B630268404B9A4250D00268EA
:103170003E4B9A4255D0002380F83C30184602B0AE
:1031800030BC704705682A699BB203EB43030724F0
:1031900004FA03F322EA03032B6105682A698C68A9
:1031A0000B8803EB430304FA03F313432B61C1E7DA
:1031B0000C2B16D805682A6B03EB8303233B1F24D3
:1031C00004FA03F322EA03032B6305682A6B4B68B6
:1031D00003EB8303233B0C8804FA03F313432B63B1
:1031E000C1E70568EA6A03EB8303413B1F2404FA45
:1031F00003F322EA0303EB620568EA6A4B6803EB18
:103200008303413B0C8804FA03F31343EB62AAE700
:103210000B68122BABD1164A536843F480035360FA
:10322000A5E70B68103B012BA5D8114A536843F45E
:10323000000353600B68102B9DD10E4B1B6802F1ED
:10324000467202F52E3202F28332A2FB03239B0C5C
:1032500003EB83035B00019302E0019B013B0193BD
:10326000019B002BF9D186E7022088E7002001406E
:103270000023014090000020002800F0A18038B514
:10328000044690F82030D3B12268136823F002037B
:103290001360FFF75DFE054623685A6812F0020FBF
:1032A00010D0FFF755FE401B0A28F5D9636A43F496
:1032B00000336362052384F82030012038BD06F016
:1032C000D7FAE1E71A6842F001021A60FFF740FE00
:1032D000054623685A6812F0010F0DD1FFF738FE3A
:1032E000401B0A28F5D9636A43F40033636205235F
:1032F00084F820300120E1E7227E012A3DD01A68BF
:1033000022F080021A60637E012B3BD02268136892
:1033100023F040031360A37E012B39D02268136889
:1033200023F020031360E37E012B37D0226813685B
:1033300043F010031360237F012B35D022681368FC
:1033400023F008031360637F012B33D022681368D6
:1033500023F004031360A368E26813432269134354
:10336000626913436268013A21681343CB6100200C
:103370006062012384F82030A0E71A6842F08002DE
:103380001A60C0E72268136843F040031360C2E785
:103390002268136843F020031360C4E722681368AF
:1033A00023F010031360C6E72268136843F0080394
:1033B0001360C8E72268136843F004031360CAE788
:1033C0000120704770B490F820400568AD68013C5A
:1033D000E4B2012C65D815F0E05F5CD0C5F3016460
:1033E000022C05D9436A43F40003436201205DE0E7
:1033F0000125A5401D608B68002B39D10E68CB6874
:10340000056843EA465604F118031B01EE500368B1
:103410000D6904F1180603EB06135D600B7D012BAB
:1034200031D0D17993791B0443EA0163517943EA9E
:103430000123157901682B4301EB0411C1F88C318C
:10344000D17893781B0443EA0163517843EA01235E
:10345000117802680B4302EB0412C2F8883102684B
:1034600018342401135943F00103135100201DE0C7
:103470004D6843EAC503CD6806682B4304F118057F
:103480002D017351C3E7036803EB0613596841F438
:1034900080715960C5E7436A43F400134362012019
:1034A00004E0436A43F480234362012070BC704708
:1034B00030B490F82040013CE4B2012C00F291803D
:1034C00051B90468E46814F0030F10D1436A43F45F
:1034D00000134362012089E00468246914F0030F9B
:1034E00005D1436A43F40013436201207EE005687E
:1034F00001F11B0424012C5904F004049460002CF5
:1035000061D1056801F11B0424012C59640D14607C
:10351000056801F11B0424012D59C5F34005D56050
:10352000056825446D6805F00F051561056825449B
:103530006D68C5F30725956105682C446468240C03
:103540005461026802EB0112D2F8B8211A700268C5
:1035500002EB0112D2F8B821C2F307225A700268B6
:1035600002EB0112D2F8B821C2F307429A70026846
:1035700002EB0112D2F8B821120EDA70026802EBE7
:103580000112D2F8BC211A71026802EB0112D2F8C2
:10359000BC21C2F307225A71026802EB0112D2F871
:1035A000BC21C2F307429A71026802EB0112D2F801
:1035B000BC21120EDA7171B90268D36843F020039E
:1035C000D360002012E0056801F11B0424012C598E
:1035D000E40854609CE70268136943F02003136118
:1035E000EFE7436A43F480234362012030BC704715
:1035F0007047704770477047704770477047704713
:1036000070477047704770472DE9F84F05460368CB
:103610005C69D3F804809F68D3F80CB0D3F810A08D
:10362000D3F8189014F001063BD017F0010616D01D
:1036300001229A6017F0020F08D117F0040F0CD185
:1036400017F0080606D04FF4805608E0FFF7D0FFC9
:10365000002604E0FFF7CFFF01E04FF4006617F407
:10366000807F0DD02B684FF480729A6017F4007F32
:1036700040F0868017F4806F00F0868046F4005694
:1036800017F4803F0DD02B684FF480329A6017F406
:10369000003F40F0838017F4802F00F0838046F4D1
:1036A000004614F0080F07D01BF0100F04D046F4AA
:1036B00000762B681022DA6014F0040F02D01BF0A1
:1036C000080F79D114F0020F04D02B68DB6813F0D7
:1036D000030F78D114F0400F07D01AF0100F04D068
:1036E00046F480662B6810221A6114F0200F02D075
:1036F0001AF0080F6BD114F0100F04D02B681B695F
:1037000013F0030F6AD114F4003F02D018F0100F29
:1037100068D114F4803F02D018F0080F69D114F476
:10372000004F7AD018F0040F74D014F4807F04D0C6
:1037300019F0010F01D046F0010614F4007F04D007
:1037400019F0020F01D046F0020614F4806F04D085
:1037500019F0040F01D046F0040614F4006F59D09C
:1037600019F0700956D0B9F1400F65D058D8B9F1A9
:10377000200F5ED0B9F1300F42D146F0200644E070
:103780002846FFF736FF7BE717F4006F02D046F4B8
:10379000804675E72846FFF72FFF71E72846FFF7B9
:1037A00029FF7EE717F4002F02D046F4803678E731
:1037B0002846FFF722FF74E72B680822DA602846C4
:1037C000FFF71CFF7EE728460BF004FA82E72B6820
:1037D00008221A612846FFF713FF8CE72846FFF7F7
:1037E0000EFF90E72B6810225A602846FFF709FF6A
:1037F0008FE72B6808225A602846FFF703FF8EE701
:10380000B9F1100F01D146F008062A68936923F038
:10381000700393612B6804225A609EB9BDE8F88F4B
:10382000B9F1500F0BD0B9F1600FEED146F48076AC
:10383000EBE746F01006E8E746F04006E5E746F01D
:103840008006E2E76B6A1E436E622846FFF7DBFEE6
:10385000E4E70000074AD36823F4E0631B041B0C71
:10386000000200F4E060034343F0BF6343F400331D
:10387000D360704700ED00E030B4174BDB68C3F352
:103880000223C3F10704042C28BF04241D1D062DA8
:1038900018D9033B4FF0FF3505FA04F421EA04017F
:1038A000994005FA03F322EA0303194300280BDBCE
:1038B0000901C9B200F1604000F5614080F80013D1
:1038C00030BC70470023E5E700F00F000901C9B2E2
:1038D000024B1954F4E700BF00ED00E014ED00E0E6
:1038E000002807DB00F01F02400901239340024A31
:1038F00042F82030704700BF00E100E00138B0F12D
:10390000807F0AD2064B5860064AF02182F82310C5
:103910000020986007221A6070470120704700BF9E
:1039200010E000E000ED00E068B110B50446437916
:103930002BB10223637101236371002010BD037159
:1039400006F038F8F5E701207047000010B403686E
:10395000D9B210390C4AA2FB014212090B4CA25CED
:10396000C2655F2909D923F47F7323F0030304336D
:103970008365806D5DF8044B704723F47F7323F0FB
:1039800003038365F5E700BFABAAAAAAF00F0108FD
:10399000836A826992B9012B0AD0022B02D00BB143
:1039A00000207047C36A13F0807F28D10020704741
:1039B000C36AB3F1C07F24D000207047B2F5005F26
:1039C00009D0022B25D9032B25D1C36A13F0807FA0
:1039D00023D100207047032B03D8DFE803F0140441
:1039E000140A00207047C36A13F0807F0DD10020B5
:1039F0007047C36AB3F1C07F09D00020704701202F
:103A00007047012070470120704701207047012056
:103A10007047012070470020704701207047000068
:103A200070B50446FFF794FA002C5BD005460023DE
:103A300084F83430022384F835302268136823F088
:103A40000103136023681A6812F0010F0AD0FFF710
:103A50007FFA431B052BF5D920236365032084F8E7
:103A6000350070BD1A68204810406168A2680A439A
:103A7000E1680A4321690A4361690A43A1690A436B
:103A8000E1690A43216A0A430243616A04291ED09C
:103A90001A602668756925F00705636A1D43042BC3
:103AA00007D1A36A1D43E36A1BB12046FFF770FFED
:103AB00090B975612046FFF749FFE26D3F239340BF
:103AC000836000206065012384F83530C9E7E16A2E
:103AD000206B01430A43DBE740236365012084F840
:103AE0003500BEE70120BCE73F8010F0F0B583B0A1
:103AF000044600230193724B1D68724BA3FB0535EE
:103B0000AD0A876D3E68C26D08239340334210D0E2
:103B100003681A6812F0040F0BD01A6822F004022E
:103B20001A60C26D08239340BB60436D43F00103EC
:103B30004365E26D01239340334209D02268526904
:103B400012F0800F04D0BB60636D43F00203636525
:103B5000E26D04239340334209D02268126812F0C8
:103B6000020F04D0BB60636D43F004036365E26D34
:103B700010239340334224D02268126812F0080FB9
:103B80001FD0BB6023681A6812F4802F0DD01B6809
:103B900013F4002F04D1236C9BB12046984710E00A
:103BA000A36C73B1204698470BE01A6812F4807F2B
:103BB00003D11A6822F008021A60236C0BB1204668
:103BC0009847E26D20239340334255D02268126813
:103BD00012F0100F50D0BB6094F83530DBB2052BDB
:103BE0000ED023681A6812F4802F33D01B6813F4A8
:103BF000002F2AD1636C002B3ED0204698473BE033
:103C00002268136823F0160313602268536923F0B7
:103C100080035361236CA3B12268136823F0080367
:103C20001360E26D3F239340BB60002384F834307F
:103C3000012384F83530236D002B3FD02046984770
:103C40003CE0A36C002BE7D1EBE7E36BA3B120468C
:103C5000984711E01A6812F4807F09D11A6822F09F
:103C600010021A60002384F83430012384F83530C0
:103C7000E36B0BB120469847636DFBB1636D13F0A6
:103C8000010F17D0052384F835302268136823F01C
:103C900001031360019B01330193AB4204D82368F5
:103CA0001B6813F0010FF5D1002384F83430012391
:103CB00084F83530E36C0BB12046984703B0F0BD73
:103CC00090000020B5814E1B00230F2B00F2D980FD
:103CD000F0B482B039E0072200E00022B2403A435B
:103CE0000234684E46F82420674A1468EA4324EAFE
:103CF00005064F6817F4803F01D045EA0406624C80
:103D00002660646802EA04064F6817F4003F01D099
:103D100045EA04065C4C6660A46802EA04064F6843
:103D200017F4801F01D045EA0406574CA660E468EA
:103D300022404E6816F4001F01D045EA0402524C9E
:103D4000E26001330F2B00F2998001229A400C6847
:103D500004EA020532EA0404F3D14C68022C01D0D3
:103D6000122C10D1DE08083650F826C003F00704E4
:103D7000A7000F24BC402CEA040C0C69BC4044EAA8
:103D80000C0440F82640D0F800C05E000324B44084
:103D9000E7432CEA040C4C6804F00304B44044EA02
:103DA0000C0404604C6804F1FF3CBCF1010F03D922
:103DB000112C01D0122C10D1846807EA040CCC68B5
:103DC000B44044EA0C048460446824EA02024C686B
:103DD000C4F300149C4014434460C26817408A68CE
:103DE000B2403A43C2604A6812F0805FA9D0002214
:103DF0000192264A546C44F480445464526C02F498
:103E000080420192019A9C08A61C1E4A52F8267014
:103E100003F0030296000F22B24027EA02071C4A71
:103E200090423FF45AAF02F5806290421AD002F5F8
:103E30008062904218D002F58062904216D002F55E
:103E40008062904214D002F58062904212D002F556
:103E50008062904210D002F5806290423FF43BAF06
:103E600008223BE7012239E7022237E7032235E740
:103E7000042233E7052231E706222FE702B0F0BC27
:103E80007047704700380140003C01400038024054
:103E9000000002400AB181617047090481617047E6
:103EA00008B5054B5B69034200D108BD024B586160
:103EB000FEF7ECFBF9E700BF003C014003685A69DC
:103EC00012F4806F01D1002070476FF480625A6154
:103ED00000230363202280F83D2080F83E30026CEE
:103EE00042F00402026480F83C30012070472DE962
:103EF000F04107460D4690461E4622E0FFF728F89F
:103F0000069BC01AB04200D8DEB900233B632022D2
:103F100087F83D2087F83E303A6C42F020023A6440
:103F200087F83C3001201AE03B689C6925EA0404CC
:103F3000A4B2B4FA84F46409A0450FD1B6F1FF3FEE
:103F4000DCD1C5F30743012BEED13B685C6925EA60
:103F50000404A4B2B4FA84F46409EDE70020BDE8D7
:103F6000F0812DE9F04105460E46174698463DE0A2
:103F70001A6842F400721A602B686FF480625A610A
:103F800000232B63202285F83D2085F83E302A6CE3
:103F900042F004022A6485F83C30012034E0FEF748
:103FA000D7FFA0EB0800B84200D8FFB900232B636D
:103FB000202285F83D2085F83E302A6C42F0200210
:103FC0002A6485F83C3001201EE02B689C6926EAB3
:103FD0000404A4B2003C18BF0124A4B12B685A69A0
:103FE00012F4806FC4D1B7F1FF3FD8D1C6F30743B5
:103FF000012BEAD12B685C6926EA0404A4B2003CD8
:1040000018BF0124E9E70020BDE8F08170B504463F
:104010000D46164623685B6913F0800F1CD12046BD
:10402000FFF74CFFD0B9B5F1FF3FF3D0FEF790FF9B
:10403000801BA84201D8002DECD10023236320224D
:1040400084F83D2084F83E30226C42F02002226445
:1040500084F83C30012000E0002070BD0120FCE726
:104060002DE9F04385B004460D46914698460C9ED6
:104070000D9F0368196841F48071196000973346F9
:1040800000224FF00111FFF732FF18B1012005B0F7
:10409000BDE8F083236805F0FE051D613B4632460E
:1040A00020492046FFF75DFF08B10120EFE700231C
:1040B000039323685A6903929B690393039B3A46CF
:1040C00031462046FFF7A2FF38B9B8F1010F0FD1F2
:1040D00023685FFA89F61E61D9E7236C042B01D0AF
:1040E0000120D4E72268136843F400731360F7E7F4
:1040F00023684FEA19221A613A4631462046FFF7F3
:1041000085FF20B923685FFA89F61E61BFE7236C3B
:10411000042B01D00120BAE72268136843F400732E
:104120001360F7E7020001002DE9F04784B0044670
:104130000D4616469946DDF830800D9F02681368DB
:1041400043F4806313600368196841F48071196057
:104150000097434600224FF00111FFF7C8FE18B147
:10416000012004B0BDE8F0875FFA85FA236805F006
:10417000FE051D613B46424636492046FFF7F1FEEB
:1041800008B10120EDE70023039323685A690392E5
:104190009B690393039B3A4641462046FFF736FF4F
:1041A00080B9B9F1010F18D12368F6B21E613A4601
:1041B00041462046FFF72AFF68B3236C042B24D026
:1041C0000120CEE7236C042B01D00120C9E722682F
:1041D000136843F400731360F7E72368320A1A6127
:1041E0003A4641462046FFF711FF18B92368F6B258
:1041F0001E61DCE7236C042B01D00120B1E72268AB
:10420000136843F400731360F7E72268136843F4FC
:1042100000731360D4E72268136843F4807313605B
:104220000097434600224FF001112046FFF75FFE42
:1042300008B1012095E722684AF0010313613B466B
:10424000424604492046FFF78CFE002889D0012011
:1042500087E700BF0200010070B504460D46164610
:1042600023685B6913F0040F1CD12046FFF726FE7C
:10427000D0B9B5F1FF3FF3D0FEF76AFE801BA8422C
:1042800001D8002DECD100232363202284F83D20A7
:1042900084F83E30226C42F02002226484F83C30E4
:1042A000012000E0002070BD0120FCE770B505464C
:1042B0000C4616462B68596911F0400F29D15969EF
:1042C00011F0100F15D1FEF743FE801BA04201D85C
:1042D000002CEFD100232B63202285F83D2085F8A8
:1042E0003E302A6C42F020022A6485F83C300120DE
:1042F00070BD6FF010025A6100232B63202285F8F5
:104300003D2085F83E302A6C2A6485F83C30012037
:10431000EEE70020ECE70000002800F0C280F8B5CE
:10432000044690F83D30002B6DD0242384F83D30B6
:104330002268136823F00103136001F04FFA6268EA
:104340005A4B9A4264D85A4B98428CBF002301239F
:10435000002B40F0A880574DA5FB0035AF0C266818
:10436000716821F03F0141EA9541716021680B6A53
:1043700023F03F0365684D4A95424FD87A1C13439A
:104380000B622568E96921F44F4121F0FF01636860
:10439000464A93424CD801385B00B0FBF3F0013041
:1043A00040F6FC73184278D0C0F30B030B43EB616B
:1043B00021680B6823F0C003E269206A02431343BB
:1043C0000B6021688B6823F4034323F0FF03226909
:1043D000E068024313438B602168CB6823F0FF033E
:1043E0006269A06902431343CB602268136843F0FB
:1043F0000103136000202064202384F83D302063F3
:1044000084F83E00F8BD80F83C3005F0E5FC8CE710
:10441000294B98428CBF0023012399E74FF49672F1
:1044200002FB07F2254DA5FB025292090132A6E7D5
:10443000A268BAB9461E03EB4307B6FBF7F601368E
:10444000C6F30B06B6FA86F6760946BBC2B9421E1B
:1044500003EB4303B2FBF3F20132C2F30B0242F46B
:104460000043A3E7461E03EB830707EB8707B6FB72
:10447000F7F60136C6F30B06B6FA86F67609E4E7D8
:10448000421E03EB830303EB8303B2FBF3F201321F
:10449000C2F30B0242F4404388E7042386E701237A
:1044A00084E7012070470120ACE700BFA08601002F
:1044B0007F841E0083DE1B43FF083D00D34D621046
:1044C0002DE9F04383B004460F46904699460C9E72
:1044D000FEF73EFD054694F83D00C0B2202803D00B
:1044E000022003B0BDE8F0830095192301224B4957
:1044F0002046FFF7FCFC002840F0898094F83C300F
:10450000012B00F08680012384F83C3023681A6870
:1045100012F0010F03D11A6842F001021A602268FA
:10452000136823F400631360212384F83D30402393
:1045300084F83E30002323640A9B6362BDF82C306C
:104540006385638D2385364BE362019500964B4668
:10455000424639462046FFF783FD00285BD1238D74
:10456000002B35D02A4631462046FFF74FFD20BBB1
:10457000626A236812781A61616A4B1C6362228D39
:10458000013A92B22285638D9BB2013B9BB2638557
:104590002368586910F0040FE1D0002ADFD04A7870
:1045A0001A61636A01336362238D013B2385638D46
:1045B0009BB2013B9BB26385D1E7236C042B01D0F6
:1045C00001208EE72268136843F400731360F7E755
:1045D0002A4631462046FFF73FFE50B1236C042B9C
:1045E00001D001207DE72268136843F40073136053
:1045F000F7E72268136843F400731360202384F8FC
:104600003D30002384F83E3084F83C3069E70220D6
:1046100067E7022065E7012063E700BF02001000A2
:104620000000FFFF2DE9F04387B004460F46904697
:104630009946109EFEF78CFC054694F83D00C0B2EA
:10464000202804D00227384607B0BDE8F083009543
:10465000192301229D492046FFF749FC002840F01C
:10466000448194F83C30012B00F04181012384F80F
:104670003C3023681A6812F0010F03D11A6842F027
:1046800001021A602268136823F400631360222376
:1046900084F83D30402384F83E30002323640E9B91
:1046A0006362BDF83C306385638D2385884BE3628C
:1046B000019500964B46424639462046FFF734FDA9
:1046C0000746002840F01581238D5BB902932368CB
:1046D0005A6902929A690292029A1A6842F4007226
:1046E0001A6098E0012B0AD0022B1AD00023059300
:1046F00023685A6905929B690593059B8BE02268A4
:10470000136823F4806313600023039323685A69BA
:1047100003929A690392039A1A6842F400721A602B
:1047200079E02268136823F48063136022681368B9
:1047300043F4006313600023049323685A690492CE
:104740009B690493049B66E02A4631462046FFF7A6
:10475000ADFD002840F0CF8023681A69636A1A70A3
:10476000636A01336362238D013B2385638D9BB2B2
:10477000013B9BB263854EE00095334600225549CC
:104780002046FFF7B4FB002840F0B780226813688A
:1047900043F40073136023681A69636A1A70626ACB
:1047A000531C6362238D013B2385638D9BB2013BC8
:1047B0009BB2638523681B695370636A013363622C
:1047C000238D013B2385638D9BB2013B9BB26385A7
:1047D00021E02268136843F40073136023681A69A8
:1047E000636A1A70626A531C6362238D013B2385DE
:1047F000638D9BB2013B9BB2638523681B69537039
:10480000636A01336362238D013B2385638D9BB211
:10481000013B9BB26385238D002B5DD0032B2BD8EE
:10482000012B91D0022BA7D00095334600222949B5
:104830002046FFF75CFB002861D12268136823F44F
:104840008063136023681A69636A1A70636A0133AC
:104850006362238D013B2385638D9BB2013B9BB239
:1048600063850095334600221A492046FFF73FFB37
:104870000028AED00127E6E62A4631462046FFF75B
:1048800015FD00283DD123681A69636A1A70626AAF
:10489000531C6362238D013B2385638D9BB2013BD7
:1048A0009BB263852368596911F0040FB3D01B696B
:1048B0005370636A01336362238D013B2385638DEB
:1048C0009BB2013B9BB26385A5E700BF02001000CD
:1048D0000000FFFF04000100202384F83D30002386
:1048E00084F83E3084F83C30ADE60227ABE6022780
:1048F000A9E60127A7E60127A5E60127A3E60127E8
:10490000A1E601279FE600BF2DE9F04782B0D0F86D
:104910000080C1EBC10300EB83035A6D1B6D9A420B
:1049200055D807460C46C1469B1AC1EBC10200EBA5
:104930008202526C9A4200D31A4602F1030A4FEAED
:104940009A0A15E006F1030A4FEA9A0AC4EBC40575
:1049500007EB8505A96C3B7C0093B3B2E2B24046FD
:1049600002F08FF8AB6C3344AB646B6D1E446E6524
:1049700009EB441303F510639B699BB2534512D3B3
:10498000C4EBC40207EB8202516D136D99420AD247
:104990004BB15B1AC4EBC40207EB8202566C9E4219
:1049A000D0D31E46CEE7C4EBC40007EB80073A6DB8
:1049B0007B6D9A420FD804F00F040123A340D8F86E
:1049C000344824EA0304C8F83448002000E00120F9
:1049D00002B0BDE8F0870020FAE7000070B5054698
:1049E0000E460368196C03EB461303F53064A368A5
:1049F0000269012A09D0354A914261D113F4004F6E
:104A000054D04FF40043A3605DE013F0080F14D0BE
:104A10002F4A914205D913F4004F02D04FF40043BE
:104A2000A360284606F09AFA05F5717201212868FC
:104A300002F016FA0823A36045E013F0200F02D01D
:104A40002023A3603FE013F0280F3CD1204A91427D
:104A500006D913F4004F03D04FF40043A36032E0B3
:104A6000C6EBC60305EB8303D3F804222169C1F327
:104A70001201521AC3F81422D3F80412D3F80822F0
:104A80000A44C3F80822F1B2284606F06FFAD6B9F4
:104A9000C6EBC60605EB8603D3F810329BB905F5C5
:104AA00071720121286802F0DBF90CE013F0200F8D
:104AB00001D02023A360F1B2284606F057FA02E0A5
:104AC000F1B206F053FA002070BD00BF0A31544F16
:104AD0000A30544F38B5044603681D6C03EB41138C
:104AE00003F5306399680269012A0DD0124A954294
:104AF00014D0204606F032FA104B9D4202D92369A9
:104B0000012B12D0002038BD0C4A9542F1D911F486
:104B1000004FEED04FF400429A60EAE711F4004FE4
:104B2000E7D04FF400429A60E3E704F57172012187
:104B3000206802F095F9E5E70A31544F0A30544FE6
:104B40002DE9F84F04460568284602F068F908B1D7
:104B5000BDE8F88F2F460646206802F02FF900289E
:104B6000F6D0206802F02AF910F0020F04D0226873
:104B7000536903F002035361206802F01FF910F437
:104B8000002F74D1206802F019F910F4802F40F042
:104B9000C280206802F012F90028C0F23281206839
:104BA00002F00CF910F4006F0AD0D5F8083813F0B1
:104BB000010F40F040812268536903F400635361A0
:104BC000206802F0FBF810F4805F40F03881206824
:104BD00002F0F4F810F4005F40F08B81206802F0DE
:104BE000EDF810F0100F14D02268936923F0100331
:104BF00093612E6A06F00F07C6F34343022B00F0C1
:104C00009081062B00F0AC812268936943F0100379
:104C10009361206802F0D2F810F0080F40F0B281E2
:104C2000206802F0CBF810F4801F40F0B4812068B7
:104C300002F0C4F810F4001F40F0B781206802F0C1
:104C4000BDF810F0804F40F0BA81206802F0B6F84D
:104C500010F0040F3FF47CAF23685D6815F0040F7B
:104C600040F0B681226853682B43536070E7206898
:104C700002F0A8F88046B14625E007EB491301226F
:104C8000C3F8082B49462046FFF7A8FE2BE049460B
:104C90002046FFF71FFF07EB49130822C3F8082B34
:104CA00024E007EB49132022C3F8082B1AF4005F15
:104CB00005D007EB49134FF40052C3F8082B09F154
:104CC00001094FEA5808B8F1000F3FF45BAF18F044
:104CD000010FF4D05FFA89F1206802F083F8824670
:104CE00010F0010FC9D11AF0080FD0D11AF0100F2F
:104CF00004D007EB49131022C3F8082B1AF0200F39
:104D0000D4D02369012BCCD104F571720121206824
:104D100002F0A6F8C5E7206802F05CF88046B146CC
:104D20002FE0C9EBC90304EB8303596C9A6C0A4466
:104D30009A6449E01AF0080F04D007EB49130822DF
:104D4000C3F808291AF0100F04D007EB49131022FA
:104D5000C3F808291AF0400F04D007EB491340228A
:104D6000C3F808291AF0020F04D007EB49130222F6
:104D7000C3F808291AF0800F3ED109F101094FEA62
:104D80005808B8F1000F3FF404AF18F0010FF4D049
:104D90005FFA89FB5946206802F02DF8824610F030
:104DA000010FC7D009F00F03012101FA03F2D7F870
:104DB000343823EA0203C7F8343807EB4913C3F841
:104DC000081923698B42ACD05946204606F0DAF820
:104DD0002369012BAED1B9F1000FABD1C9EBC903E7
:104DE00004EB83031B6D002BA4D104F57172012128
:104DF000206802F035F89DE749462046FFF784FD1C
:104E0000BBE7D5F8043823F00103C5F8043894F85B
:104E1000F433012B08D0204606F0F4F822685369D9
:104E200003F000435361BAE6002184F8F4132046EE
:104E300000F002FAF2E7204606F0CCF8BBE605F5F2
:104E40000068D8F8043023F00103C8F804301021BA
:104E5000206801F019FD14E007EB46134FF67F318F
:104E6000C3F80819D3F8002922F40012C3F8002966
:104E7000C3F8081BD3F8002B22F40012C3F8002B50
:104E800001366368B342E7D8D8F81C3043F0011309
:104E9000C8F81C30236BEBB1D8F8843043F00B0317
:104EA000C8F88430D8F8443043F00B03C8F84430D5
:104EB000D5F8003823F4FE63C5F8003804F57172A4
:104EC000217C206801F0CCFF2268536903F48053F1
:104ED00053617CE6D8F8143043F4005343F02B03BD
:104EE000C8F81430D8F8103043F00B03C8F810306D
:104EF000DEE7206801F097FF206801F0D9FCE06050
:104F0000266800F065FC0146227B304601F04AFC31
:104F1000204606F048F82268536903F400535361B1
:104F20005CE647F6F0731E423FF46EAE4FEA161A87
:104F3000C7EBC70804EB8808C6F30A12D8F80812B2
:104F4000284601F0BFFECAF30A02D8F8083213441B
:104F5000C8F80832D8F814321A44C8F8142253E6B4
:104F6000082204F57171284601F0ACFEC6F30A165A
:104F7000C7EBC70204EB8202D2F814321E44C2F817
:104F8000146241E6204606F008F82268536903F0EF
:104F90000803536144E60021204606F03FF82268EA
:104FA000536903F48013536141E60021204606F063
:104FB0002FF82268536903F4001353613EE620463C
:104FC00006F032F82268536903F0804353613CE6EF
:104FD000204606F02FF845E690F8BC33012B0DD0A3
:104FE00010B50446012380F8BC3380F838100068FF
:104FF00001F0D4FE002084F8BC0310BD02207047ED
:10500000F8B507460C4611F0800F27D101F00F05C7
:10501000C5EBC506B60006F5FC760644311DC5EBAA
:10502000C50500EB8505002085F8FD0104F00F049F
:105030000C708A60CB704A7802B1CC80022B1DD0F4
:1050400097F8BC33012B1CD0012387F8BC33386898
:1050500001F03FFC002087F8BC03F8BD01F00F0011
:10506000C0EBC0018900383139440431C0EBC000C5
:1050700007EB8000012580F83D50D7E700230B7136
:10508000DEE70220E9E738B501F00F04C4EBC40104
:10509000890001F5FC7101440431C4EBC40500EB47
:1050A0008505C5F80822C5F810320023C5F814326A
:1050B00085F8FD3185F8FC410369012B06D064B900
:1050C000DAB2006801F04FFC002038BDC4EBC40523
:1050D00000EB8505C5F80C22F1E7DAB2006801F0B3
:1050E000E5FCF1E738B501F00F04C4EBC401890019
:1050F000383101440431C4EBC40500EB8505AA64D2
:105100002B6500236B65012385F83D3085F83C4015
:105110000369012B06D05CB9DAB2006801F023FC08
:10512000002038BDC4EBC40500EB8505EA64F2E756
:10513000DAB2006801F0BAFCF2E738B501F00F0509
:105140004268954239D804460B4611F0800F1FD1B2
:10515000C1EBC101890001F5FC7101440431C3EBCD
:10516000C30300EB8303002283F8FD2101238B702E
:105170000D7094F8BC33012B21D0012384F8BC338B
:10518000206801F0B0FD8DB1002084F8BC0338BD6B
:10519000C5EBC5018900383101440431C5EBC503B5
:1051A00000EB8303012283F83D20DFE704F57172F1
:1051B000217C206801F054FEE6E70120E7E70220A9
:1051C000E5E701F00F034268934231D810B5044679
:1051D00011F0800F1ED1C3EBC301890001F5FC71F2
:1051E00001440431C3EBC30200EB8202002082F8C9
:1051F000FD0100228A700B7094F8BC33012B19D08A
:10520000012384F8BC33206801F09AFD002084F863
:10521000BC0310BDC3EBC301890038310144043124
:10522000C3EBC30200EB8202012082F83D00E0E7FD
:10523000012070470220ECE770470000002800F0D2
:10524000B98170B582B00446036813F0010F3BD0FA
:10525000A64B9B6803F00C03042B2CD0A34B9B683C
:1052600003F00C03082B21D06368B3F5803F4FD0C7
:10527000B3F5A02F52D09D4B1A6822F480321A60E9
:105280001A6822F480221A606368002B50D0FDF760
:105290005FFE0546954B1B6813F4003F14D1FDF7E4
:1052A00057FE401B6428F5D903208AE18F4B5B68C9
:1052B00013F4800FD8D08D4B1B6813F4003F03D03C
:1052C0006368002B00F07881236813F0020F54D03C
:1052D000864B9B6813F00C0F3ED0844B9B6803F009
:1052E0000C03082B33D0E368002B67D0804B0122DE
:1052F0001A60FDF72DFE05467C4B1B6813F0020F6C
:1053000053D1FDF725FE401B0228F5D9032058E1B3
:10531000764A136843F480331360B5E7734B1A6819
:1053200042F480221A601A6842F480321A60ABE7B5
:10533000FDF70EFE05466D4B1B6813F4003FC3D00E
:10534000FDF706FE401B6428F5D9032039E1674BC1
:105350005B6813F4800FC6D1644B1B6813F0020F17
:1053600003D0E368012B40F02981604A136823F0E1
:10537000F803216943EAC1031360236813F0080F9F
:1053800040D0636963B35B4B01221A60FDF7E0FD17
:105390000546564B5B6F13F0020F33D1FDF7D8FD76
:1053A000401B0228F5D903200BE1504A136823F073
:1053B000F803216943EAC1031360DEE74C4B002286
:1053C0001A60FDF7C5FD0546484B1B6813F0020F38
:1053D000D3D0FDF7BDFD401B0228F5D90320F0E036
:1053E000444B00221A60FDF7B3FD05463F4B5B6F4F
:1053F00013F0020F06D0FDF7ABFD401B0228F5D9D4
:105400000320DEE0236813F0040F78D0374B1B6CC9
:1054100013F0805F0DD100230193344B1A6C42F0DE
:1054200080521A641B6C03F080530193019B012589
:1054300000E00025304B1B6813F4807F21D0A36867
:10544000012B32D0052B36D0284B1A6F22F00102E7
:105450001A671A6F22F004021A67A368002B34D06F
:10546000FDF776FD0646214B1B6F13F0020F45D169
:10547000FDF76EFD801B41F288339842F3D903207B
:105480009FE01D4A136843F480731360FDF760FDCD
:105490000646194B1B6813F4807FD0D1FDF758FDE9
:1054A000801B0228F5D903208BE0104A136F43F0CC
:1054B00001031367D1E70D4B1A6F42F004021A671C
:1054C0001A6F42F001021A67C7E7FDF741FD064671
:1054D000064B1B6F13F0020F10D0FDF739FD801B38
:1054E00041F288339842F3D903206AE00038024041
:1054F00000004742800E474200700040E5B9A369B2
:10550000002B5DD0314A926802F00C02082A5AD072
:10551000022B17D02E4B00221A60FDF719FD04460E
:105520002A4B1B6813F0007F42D0FDF711FD001BD2
:105530000228F5D9032044E0244A136C23F0805359
:105540001364DCE7224B00221A60FDF701FD0546DB
:105550001E4B1B6813F0007F06D0FDF7F9FC401BC3
:105560000228F5D903202CE0E369226A1343626A1A
:1055700043EA8213A26A5208013A43EA0243E26A0A
:1055800043EA0263114A5360114B01221A60FDF78E
:10559000DFFC04460D4B1B6813F0007F06D1FDF7BE
:1055A000D7FC001B0228F5D903200AE0002008E000
:1055B000002006E001207047012002E0012000E009
:1055C000002002B070BD0120FBE700BF00380240A0
:1055D00060004742F8B5244B9B6803F00C03042B92
:1055E0003DD0082B3DD1204B5A6802F03F025B684A
:1055F00013F4800F12D01C4B5968C1F3881100239B
:105600001A48A1FB0001FBF7DFFA174B5B68C3F3F5
:10561000014301335B00B0FBF3F023E0124B5B6806
:10562000C3F388135C010025E41A65F10005AE019F
:1056300046EA9466A701381B66EB0501CC0044EAF4
:105640005074C500E81844F100018B0243EA9053FE
:105650008402204619460023FBF7B6FAD5E7034833
:1056600000E00348F8BD00BF00380240001BB7004F
:105670000024F400002800F09A8070B50D4604461E
:105680004F4B1B6803F00F038B4208D2CBB24C4A3E
:105690001370136803F00F038B4240F08A80236875
:1056A00013F0020F17D013F0040F04D0454A93688B
:1056B00043F4E0539360236813F0080F04D0414A89
:1056C000936843F4604393603E4A936823F0F00389
:1056D000A1680B439360236813F0010F32D0636815
:1056E000012B21D09A1E012A25D9364A126812F0C0
:1056F000020F60D033498A6822F0030213438B60A3
:10570000FDF726FC06462F4B9B6803F00C036268EE
:10571000B3EB820F16D0FDF71BFC801B41F28833E0
:105720009842F0D9032041E0264A126812F4003F63
:10573000E0D101203AE0234A126812F0007FD9D16B
:10574000012033E01E4B1B6803F00F03AB4207D967
:10575000EAB21B4B1A701B6803F00F03AB422CD14B
:10576000236813F0040F06D0164A936823F4E0531D
:10577000E1680B439360236813F0080F07D0114AC8
:10578000936823F46043216943EAC1039360FFF700
:1057900021FF0C4B9B68C3F303130B4AD35CD84027
:1057A0000A4B18600F20FDF787FB002070BD012019
:1057B00070470120FAE70120F8E70120F6E700BF73
:1057C000003C0240003802402410010890000020F4
:1057D000014B1868704700BF9000002008B5FFF724
:1057E000F7FF044B9B68C3F38223034AD35CD84082
:1057F00008BD00BF003802403410010808B5FFF7AB
:10580000E7FF044B9B68C3F34233034AD35CD840A1
:1058100008BD00BF003802403410010830B583B025
:105820000446036813F0050F06D1236813F0020F36
:105830002ED1002003B030BD494B00221A60FDF785
:1058400087FB0546474B1B6813F0006F06D0FDF73A
:105850007FFB431B022BF5D90320EBE76268A368AB
:105860001B0743EA82133F4AC2F884303C4B0122B3
:105870001A60FDF76DFB05463A4B1B6813F0006F8D
:10588000D3D1FDF765FB431B022BF5D90320D1E7EC
:1058900000230193334B1A6C42F080521A641B6C44
:1058A00003F080530193019B2F4A136843F48073E4
:1058B0001360FDF74DFB05462B4B1B6813F4807FEF
:1058C00006D1FDF745FB431B022BF5D90320B1E7B9
:1058D000244B1B6F13F4407312D0E26802F4407241
:1058E0009A420DD01F4B1A6F22F440721F490120BB
:1058F0000860002008601A671B6F13F0010F13D1B6
:10590000E36803F44072B2F5407F1ED0154A9368F5
:1059100023F4F813936013490B6FE268C2F30B0290
:1059200013430B67002085E7FDF712FB05460D4B7F
:105930001B6F13F0020FE3D1FDF70AFB401B41F28E
:1059400088339842F3D9032074E706498A6822F421
:10595000F81223F0704323F4407313438B60DAE7AB
:10596000680047420038024000700040400E474245
:1059700098B110B5044643795BB102236371226884
:10598000136843F004031360012363710020A060D7
:1059900010BD037104F094FBEFE70120704738B5A8
:1059A00004460268D36823F0A003D360FDF7D0FA61
:1059B00005462368DB6813F0200F07D1FDF7C8FA0E
:1059C000401BB0F57A7FF4D9032000E0002038BDF9
:1059D00038B50368DA6812F0400F01D0002038BDF6
:1059E00004464FF0FF32DA60FDF7B2FA054623684D
:1059F000DB6813F0400F07D1FDF7AAFA431BB3F59C
:105A00007A7FF4D90320EAE70020E8E738B50028D8
:105A10005CD00446437F002B41D002236377236888
:105A2000CA225A62236853225A622046FFF7D0FFE7
:105A30000546002837D12268936823F4E00323F059
:105A40004003936021688A68636820690343606942
:105A5000034313438B602368E2681A612268136969
:105A6000A16843EA014313612268D36823F08003ED
:105A7000D36023689B6813F0200F1BD02268136C3F
:105A800023F4802313642268136CA1690B4313640D
:105A90002368FF225A6201236377284638BD0377C3
:105AA00004F040FBB9E72368FF225A6204236377BE
:105AB0000125F2E72046FFF772FF0028DED02368B9
:105AC000FF225A62042363770125E6E70125E4E714
:105AD0002DE9F0410646884617461D463468A468FD
:105AE00038EA04030CBF01240024BC4237D0B5F1CE
:105AF000FF3FF3D0FDF72CFA069BC01AA84201D253
:105B0000002DEBD13268536823F0E00353607368D3
