:020000040800F2
:1000000000000220B19F00085D8500085F850008A0
:100010006185000863850008658500080000000010
:10002000000000000000000000000000A15D0008CA
:100030006785000800000000415E0008698500082F
:1000400001A0000801A0000801A0000801A000080C
:1000500001A0000801A000087F85000801A0000899
:1000600001A00008898500089385000801A0000808
:1000700001A0000801A0000801A0000801A00008DC
:1000800001A0000801A0000801A0000801A00008CC
:100090009D85000801A0000801A00008AD850008AA
:1000A00001A0000801A0000801A0000801A00008AC
:1000B00001A0000801A0000801A0000801A000089C
:1000C00001A0000801A0000801A0000801A000088C
:1000D00001A0000801A0000801A0000801A000087C
:1000E00001A0000801A0000801A0000801A000086C
:1000F00001A0000801A0000801A00008A9920008C2
:1001000001A0000801A0000801A0000801A000084B
:1001100001A0000801A0000801A0000801A000083B
:1001200001A00008B985000801A0000801A000088E
:1001300001A0000801A0000801A0000801A000081B
:10014000C985000801A0000801A00008D9850008A1
:1001500001A00008E9850008F985000801A0000851
:1001600001A0000801A0000801A0000801A00008EB
:1001700001A0000801A0000801A000080000000084
:0801800001A0000801A0000825
:1001900010B5054C237833B9044B13B10448AFF3C1
:1001A00000800123237010BD4404002000000000E3
:1001B000D8B6000808B5034B1BB103490348AFF399
:1001C000008008BD0000000048040020D8B60008E8
:1001D00081F0004102E000BF83F0004330B54FEAF8
:1001E00041044FEA430594EA050F08BF90EA020F65
:1001F0001FBF54EA000C55EA020C7FEA645C7FEAF8
:10020000655C00F0E2804FEA5454D4EB5555B8BF1A
:100210006D420CDD2C4480EA020281EA030382EA8B
:10022000000083EA010180EA020281EA0303362D1D
:1002300088BF30BD11F0004F4FEA01314FF4801CF0
:100240004CEA113102D0404261EB410113F0004F02
:100250004FEA03334CEA133302D0524263EB4303B9
:1002600094EA050F00F0A780A4F10104D5F1200E57
:100270000DDB02FA0EFC22FA05F2801841F10001B2
:1002800003FA0EF2801843FA05F359410EE0A5F186
:1002900020050EF1200E012A03FA0EFC28BF4CF0B7
:1002A000020C43FA05F3C01851EBE37101F000456D
:1002B00007D54FF0000EDCF1000C7EEB00006EEB7A
:1002C0000101B1F5801F1BD3B1F5001F0CD3490804
:1002D0005FEA30004FEA3C0C04F101044FEA44525B
:1002E00012F5800F80F09A80BCF1004F08BF5FEAE2
:1002F000500C50F1000041EB045141EA050130BDC2
:100300005FEA4C0C404141EB0101013C28BFB1F5D3
:10031000801FE9D291F0000F04BF01460020B1FA1E
:1003200081F308BF2033A3F10B03B3F120020CDAF1
:100330000C3208DD02F1140CC2F10C0201FA0CF0CF
:1003400021FA02F10CE002F11402D8BFC2F1200C34
:1003500001FA02F120FA0CFCDCBF41EA0C019040EA
:10036000E41AA2BF01EB0451294330BD6FEA040433
:100370001F3C1CDA0C340EDC04F11404C4F120021E
:1003800020FA04F001FA02F340EA030021FA04F330
:1003900045EA030130BDC4F10C04C4F1200220FA87
:1003A00002F001FA04F340EA0300294630BD21FAC5
:1003B00004F0294630BD94F0000F83F4801306BF8B
:1003C00081F480110134013D4EE77FEA645C18BF7F
:1003D0007FEA655C29D094EA050F08BF90EA020F16
:1003E00005D054EA000C04BF1946104630BD91EA0E
:1003F000030F1EBF0021002030BD5FEA545C05D111
:100400004000494128BF41F0004130BD14F580044F
:100410003CBF01F5801130BD01F0004545F0FE41C3
:1004200041F470014FF0000030BD7FEA645C1ABFF8
:10043000194610467FEA655C1CBF0B46024650EA2F
:10044000013406BF52EA033591EA030F41F400215B
:1004500030BD00BF90F0000F04BF0021704730B5E1
:100460004FF4806404F132044FF000054FF00001B6
:1004700050E700BF90F0000F04BF0021704730B577
:100480004FF4806404F1320410F0004548BF40424C
:100490004FF000013EE700BF42004FEAE2014FEAA1
:1004A00031014FEA02701FBF12F07F4393F07F4F7C
:1004B00081F06051704732F07F4208BF704793F07F
:1004C0007F4F04BF41F40021704730B54FF4607492
:1004D00001F0004521F000411CE700BF50EA010295
:1004E00008BF704730B54FF000050AE050EA01023E
:1004F00008BF704730B511F0004502D5404261EBAE
:1005000041014FF4806404F132045FEA915C3FF4EE
:10051000D8AE4FF003025FEADC0C18BF03325FEA8B
:10052000DC0C18BF033202EBDC02C2F1200300FA3C
:1005300003FC20FA02F001FA03FE40EA0E0021FA61
:1005400002F11444BDE600BF70B54FF0FF0C4CF44F
:10055000E06C1CEA11541DBF1CEA135594EA0C0F01
:1005600095EA0C0F00F0DEF82C4481EA030621EA3C
:100570004C5123EA4C5350EA013518BF52EA033577
:1005800041F4801143F4801338D0A0FB02CE4FF029
:100590000005E1FB02E506F00042E0FB03E54FF059
:1005A0000006E1FB03569CF0000F18BF4EF0010E51
:1005B000A4F1FF04B6F5007F64F5407404D25FEA4D
:1005C0004E0E6D4146EB060642EAC62141EA555100
:1005D0004FEAC52040EA5E504FEACE2EB4F1FD0C42
:1005E00088BFBCF5E06F1ED8BEF1004F08BF5FEAC0
:1005F000500E50F1000041EB045170BD06F0004672
:1006000046EA010140EA020081EA0301B4EB5C041E
:10061000C2BFD4EB0C0541EA045170BD41F4801116
:100620004FF0000E013C00F3AB8014F1360FDEBF3B
:10063000002001F0004170BDC4F10004203C35DA17
:100640000C341BDC04F11404C4F1200500FA05F39A
:1006500020FA04F001FA05F240EA020001F000423B
:1006600021F0004110EBD37021FA04F642EB0601B1
:100670005EEA430E08BF20EAD37070BDC4F10C04DB
:10068000C4F1200500FA04F320FA05F001FA04F29F
:1006900040EA020001F0004110EBD37041F100018B
:1006A0005EEA430E08BF20EAD37070BDC4F1200596
:1006B00000FA05F24EEA020E20FA04F301FA05F2FE
:1006C00043EA020321FA04F001F0004121FA04F2A6
:1006D00020EA020000EBD3705EEA430E08BF20EA76
:1006E000D37070BD94F0000F0FD101F000464000B0
:1006F00041EB010111F4801F08BF013CF7D041EA32
:10070000060195F0000F18BF704703F00046520035
:1007100043EB030313F4801F08BF013DF7D043EA06
:100720000603704794EA0C0F0CEA135518BF95EABC
:100730000C0F0CD050EA410618BF52EA4306D1D143
:1007400081EA030101F000414FF0000070BD50EA62
:10075000410606BF1046194652EA430619D094EAEC
:100760000C0F02D150EA013613D195EA0C0F05D1D6
:1007700052EA03361CBF104619460AD181EA03012A
:1007800001F0004141F0FE4141F470014FF00000E2
:1007900070BD41F0FE4141F4780170BD70B54FF07D
:1007A000FF0C4CF4E06C1CEA11541DBF1CEA1355FD
:1007B00094EA0C0F95EA0C0F00F0A7F8A4EB0504DF
:1007C00081EA030E52EA03354FEA013100F08880D6
:1007D0004FEA03334FF0805545EA131343EA12639F
:1007E0004FEA022245EA111545EA10654FEA002654
:1007F0000EF000419D4208BF964244F1FD0404F50D
:10080000407402D25B084FEA3202B61A65EB030568
:100810005B084FEA32024FF480104FF4002CB6EB25
:10082000020E75EB030E22BFB61A754640EA0C00A5
:100830005B084FEA3202B6EB020E75EB030E22BFE5
:10084000B61A754640EA5C005B084FEA3202B6EB26
:10085000020E75EB030E22BFB61A754640EA9C00E5
:100860005B084FEA3202B6EB020E75EB030E22BFB5
:10087000B61A754640EADC0055EA060E18D04FEA73
:10088000051545EA16754FEA06164FEAC30343EA13
:1008900052734FEAC2025FEA1C1CC0D111F4801FE0
:1008A0000BD141EA00014FF000004FF0004CB6E7D9
:1008B00011F4801F04BF01430020B4F1FD0C88BF78
:1008C000BCF5E06F3FF6AFAEB5EB030C04BFB6EB83
:1008D000020C5FEA500C50F1000041EB045170BD76
:1008E0000EF0004E4EEA113114EB5C04C2BFD4EBA3
:1008F0000C0541EA045170BD41F480114FF0000E27
:10090000013C90E645EA060E8DE60CEA135594EAA2
:100910000C0F08BF95EA0C0F3FF43BAF94EA0C0FA5
:100920000AD150EA01347FF434AF95EA0C0F7FF41A
:1009300025AF104619462CE795EA0C0F06D152EA6E
:1009400003353FF4FDAE1046194622E750EA410652
:1009500018BF52EA43067FF4C5AE50EA41047FF463
:100960000DAF52EA43057FF4EBAE12E74FF0FF3CC8
:1009700006E000BF4FF0010C02E000BF4FF0010C99
:100980004DF804CD4FEA410C7FEA6C5C4FEA430C12
:1009900018BF7FEA6C5C1BD001B050EA410C0CBF61
:1009A00052EA430C91EA030F02BF90EA020F0020C3
:1009B000704710F1000F91EA030F58BF994208BF2A
:1009C00090422CBFD8176FEAE37040F001007047E7
:1009D0004FEA410C7FEA6C5C02D150EA013C07D13E
:1009E0004FEA430C7FEA6C5CD6D152EA033CD3D089
:1009F0005DF8040B704700BF8446104662468C4683
:100A00001946634600E000BF01B5FFF7B7FF0028B5
:100A100048BF10F1000F01BD4DF808EDFFF7F4FFDE
:100A20000CBF012000205DF808FB00BF4DF808ED69
:100A3000FFF7EAFF34BF012000205DF808FB00BF8C
:100A40004DF808EDFFF7E0FF94BF012000205DF8AE
:100A500008FB00BF4DF808EDFFF7CEFF94BF012063
:100A600000205DF808FB00BF4DF808EDFFF7C4FF5C
:100A700034BF012000205DF808FB00BF4FEA4102AF
:100A800012F5001215D211D56FF47873B3EB6252E0
:100A900012D94FEAC12343F0004343EA505311F007
:100AA000004F23FA02F018BF404270474FF0000099
:100AB000704750EA013005D111F0004008BF6FF0D7
:100AC000004070474FF00000704700BF4FEA4102FE
:100AD000B2F1E04324BFB3F5001CDCF1FE5C0DD99C
:100AE00001F0004C4FEAC0024CEA5070B2F1004FE6
:100AF00040EB830008BF20F00100704711F0804FE9
:100B000021D113F13872BCBF01F00040704741F4AD
:100B100080114FEA5252C2F11802C2F1200C10FAB1
:100B20000CF320FA02F018BF40F001004FEAC12395
:100B30004FEAD32303FA0CFC40EA0C0023FA02F339
:100B40004FEA4303CCE77FEA625307D150EA01330F
:100B50001EBF4FF0FE4040F44000704701F00040DF
:100B600040F0FE4040F40000704700BF53B94AB95E
:100B7000002908BF00281CBF4FF0FF314FF0FF30A5
:100B800001F0C0B8ADF1080C6DE904CE00F006F834
:100B9000DDF804E0DDE9022304B070472DE9F047F9
:100BA000089D04468C46002B40F083808A421746FD
:100BB00047D9B2FA82F242B1C2F1200024FA00F021
:100BC0009140974040EA010C94404FEA1748230CAB
:100BD000BCFBF8F61FFA87FE08FB16C143EA014387
:100BE00006FB0EF1994209D9FB1806F1FF3080F09F
:100BF0001981994240F21681023E3B445B1AA4B22D
:100C0000B3FBF8F008FB103344EA034400FB0EFE8C
:100C1000A64509D93C1900F1FF3380F00581A645AE
:100C200040F2028102383C4440EA0640A4EB0E0444
:100C300000261DB1D4400023C5E900433146BDE87C
:100C4000F08702B9FFDEB2FA82F2002A50D1CB1B44
:100C50004FEA174E1FFA87F80126B3FBFEFC210C62
:100C60000EFB1C3341EA034108FB0CF38B4207D90E
:100C700079180CF1FF3002D28B4200F2E9808446F1
:100C8000C91AA3B2B1FBFEF00EFB101143EA0144F6
:100C900008FB00F8A04507D93C1900F1FF3302D248
:100CA000A04500F2D9801846A4EB080440EA0C40A5
:100CB000BFE78B4209D9002D00F0B1800026C5E9BD
:100CC000000130463146BDE8F087B3FA83F6002EC6
:100CD0004AD18B4202D3824200F2B880841A61EB7F
:100CE000030101208C46002DA8D0C5E9004CA5E7E2
:100CF000C2F1200320FA03F6974001FA02F04FEA0E
:100D0000174ED9403043030CB1FBFEF61FFA87F8AB
:100D10000EFB161143EA014306FB08F1994204FA5F
:100D200002F409D9FB1806F1FF3C80F08D8099424E
:100D300040F28A80023E3B445B1A81B2B3FBFEF074
:100D40000EFB103341EA034100FB08F38B4207D945
:100D5000791800F1FF3C73D28B4271D902383944C3
:100D6000CB1A40EA064678E7C6F1200C03FA06F4EF
:100D700022FA0CF31C4320FA0CF701FA06F34FEAAF
:100D8000144E21FA0CF11F433B0CB1FBFEF91FFA84
:100D900084F80EFB191143EA014109FB08FA8A4560
:100DA00002FA06F200FA06F308D9611809F1FF30D9
:100DB00048D28A4546D9A9F102092144A1EB0A018A
:100DC000BFB2B1FBFEF00EFB101147EA014700FB7A
:100DD00008F8B84507D9E71900F1FF312ED2B84518
:100DE0002CD90238274440EA0940A7EB0807A0FBAA
:100DF00002894F45C64649461AD317D05DB1B3EBB9
:100E00000E0267EB010707FA0CFCF2404CEA020203
:100E1000F740C5E9002700263146BDE8F0872E4699
:100E200028460BE70646E9E61846FDE64345E5D2C7
:100E3000B8EB020E69EB04010138DFE70846D2E7A0
:100E400060468DE78146B9E7664675E730464AE772
:100E5000ACF1020C394413E702383C4424E700BFEC
:100E600003685A004CBF43F0004323F0004318448A
:100E7000704700BF2DE9F84329B34F1E04461546BD
:100E80003E464FF0000808EB060101EBD171491016
:100E900004EBC1094846FFF7E3FF0346C8000830EA
:100EA0008F42204409D0AB4209D8FFF7D9FF01385F
:100EB000A8420AD201F10108E5E7AB4205D988450D
:100EC00001D04E1EDFE74FF000094846BDE8F88329
:100ED000012807D0022807D0044B00280CBF184671
:100EE0000020704702487047024870479515000877
:100EF000991500089D15000830B5234B83B00446B2
:100F00008D1E3BB301A92846AFF30080E8B10199DB
:100F10002A46FFF7AFFF0146B8B1FFF7A1FF4B68C4
:100F2000A064012B2BD0002B01F1040023DBFFF781
:100F300097FF0023C4E913030368002B10DBFFF7BE
:100F40008FFF2061002003B030BD00230920236102
:100F500003B030BD0D490E48091AC9100191D7E7F9
:100F6000C3F30360FFF7B4FF0028206114BF002023
:100F7000092003B030BD0123C4E91303DCE70023DB
:100F800023610520DFE700BF00000000E0BA000891
:100F900090B900080368DA0710B5044606D49B0729
:100FA00000F1480009D500F04BFC2368590709D52A
:100FB0001A070ED5DB0613D510BD00F039FC2368E7
:100FC0005907F5D404F1D00000F042FC23681A0759
:100FD000F0D404F5A87000F043FC2368DB06EBD4E2
:100FE00004F5E870BDE8104000F07EBC03460068E0
:100FF00000B11844704700BF09207047704700BF18
:1010000070B504460E46316C2046FFF775FF054665
:1010100088B9336C636132462369214601209847C1
:101020000828F0D0072806D12846316CFFF7E6FFE4
:10103000301D00F0F1FB0AF011FA00BF2DE9F04776
:101040000D1D064614460FCDADF5727D0DF10C0C4D
:10105000ACE80F000FCDACE80F000FCDACE80F00EF
:1010600095E80F0002ADF768D6F818808CE80F00FD
:1010700000232B6021E02B6C73614FF4F072294642
:101080007AA800F041FE33697AAA31465046984763
:10109000889BCDE9005821466B6481463346324631
:1010A0000120B8470446E8B94FF4F0727AA92846FF
:1010B00000F02AFEB9F1080F1BD1296C3046FFF76A
:1010C0001BFF09345FFA84FA81460028D3D0AB6B4A
:1010D0004AF01001CDE9005832466B6401203346D6
:1010E000B84708B14FF0090948460DF5727DBDE8D3
:1010F000F087B9F1070FF5D12046296CFFF77EFF85
:1011000003A800F089FB00BF406C7047F0B5CB6BC3
:101110000B640E1D0F4605460FCEF9B001AC0FC48F
:101120000FCE0FC40FCE0FC496E80F004FF0FF365E
:1011300084E80F00009606E02B696A462946984726
:101140000828044608D110992846FFF7D5FE002844
:10115000F2D0092079B0F0BD6846FFF71BFF062CDE
:10116000F7D139462846FFF74BFF00BF30B4DD6B9F
:10117000C160826119461D64002230BC5EE700BF79
:1011800070B5C66843690B64AEB903690A46044684
:101190000D46014602209847072805D008280FD1A0
:1011A00029462046FFF72CFF3046296CFFF726FF23
:1011B000281D00F031FB0122FFF740FF0AF04EF935
:1011C0000AF04CF9C2681AB1CA6B0A64002235E70A
:1011D0009CE700BF704700BF836801460BB1012048
:1011E00018477047012912D009D873B90F2A0CD8B3
:1011F00000EB820218465368009A13607047033967
:10120000012994BF01200220704702207047084640
:10121000704700BF10B584B0002303AC0A460094A9
:101220001946FFF7DFFF039804B010BD012912D063
:1012300009D873B90F2A0CD800EB8200009A126803
:101240004260184670470339012994BF01200220EB
:101250007047022070470846704700BF10B584B041
:10126000002303AC039200940A461946FFF7DEFF01
:1012700004B010BDF0B5D36B1364151D8C46064643
:101280000FCDADF50F7D17AC0FC40FCD0FC40FCD33
:101290000FC495E80F004FF0FF3784E80F00654654
:1012A000169710E0FFF7DAFF294616A8B047034665
:1012B00016AA6946082083B9049B98470528044666
:1012C0000CD0092809D026996846FFF715FE034679
:1012D0006A460C2116A8002BE4D0092416A8FFF7B3
:1012E00059FE20460DF50F7DF0BD00BF2DE9F04FF2
:1012F000CC6C89B00D4654F8041B0694174600F0D8
:1013000003081E46002B79D00B0CDAB209048DF8C5
:101310001D30022304EB820405918DF81C302B6DE7
:10132000B8F1020F08BFAC6B13F001030CD03846C4
:1013300005A900F073FB18B9082009B0BDE8F08FCB
:10134000092009B0BDE8F08FD4F800A0BAF1000F71
:10135000EDD0019300F008030293022E4AD0B4F8B6
:1013600000A0B4F802900434AA6C29F0010B0F21FC
:1013700038469344FFF74EFF834539D82AF00102DF
:101380005A44824294BF002001204FEA490303F0EF
:1013900002030AF0010A43EA0A03012B49D0022B97
:1013A00032D0002BCCD1B8F1000F02D0002840F091
:1013B000CD800434D4F800A0BAF1000FCDD105A936
:1013C000384600F02BFB0028BAD1019B002BB3D08C
:1013D0000F213846FFF71EFF0E2102463846FFF761
:1013E0003DFF38466A4A0F21FFF738FF0720A8E77C
:1013F0000020CAE7D4F804900834B5E709020323B3
:101400000591ADF81C308AE7236823F0004BB8F152
:10141000000F45D128B1029A002A5CD0BBF1000F21
:1014200074D0002B00DA04340BF1010B04EB8B04B5
:10143000C0E7B8F1000F19D1B0B1D4E90023991C6D
:101440004FEAD2723FF47CAF05F1580101330491A9
:1014500000F09080201DFFF7C9FD04AB014628462F
:10146000AFF3008000285BD10834A3E70D21384694
:10147000D5F82090FFF7CEFE8145F5D1AB6A9C42AE
:10148000F2D12046FFF7ECFC0F2102463846FFF769
:10149000E5FE38462A460021FFF7E0FE072050E728
:1014A0000D213846D5F82090FFF7B4FE814501D0D4
:1014B0002368B6E7AB6A9C42FAD104220021C5E951
:1014C0000B12A318C5F828B06B6323688B4259DB55
:1014D00001230193A8E705F15803CDF80C8004F12E
:1014E000040AB04691461E460DE00496FFF77EFDC5
:1014F00004AB014600222846AFF3008009F1010940
:101500000AF1040AE8B9D9455046EED138460D2112
:10151000FFF780FE049B2862C5E90934062010E726
:1015200081460D213846FFF775FEB9F1020F28629A
:1015300025D12B46049A43F82C2F6B62AC6206200F
:10154000FFE646462368DDF80C806AE72046FFF791
:1015500087FC04340246AC6328461446AFF300808F
:1015600000283FF4EDAE384622460F21FFF776FE05
:101570000720E6E638460D21FFF74CFE2862049B63
:101580006B62DBE70BF1010004EB80007AE700BF40
:10159000000000000023A9E60123A7E60223A5E638
:1015A0002DE9F0430646C3B015461C46042900F257
:1015B000B980DFE801F09A53B7290300002C40F00E
:1015C000B180102A00F2AE800368D80600F1F380E3
:1015D00020AF384600F092F9B06B0023012404FAE2
:1015E00003F22A42014604D051F8042B47F8232085
:1015F00008460133042BF2D1B063384600F074F989
:10160000002043B0BDE8F083032C40F08B8094B2FF
:1016100004EB1243102B4FEA124500F2838003685B
:101620001F0700F1D08020AF384600F03BF907EBF0
:10163000C501B56B54B10B46E81A01EBC401E400D7
:101640001A5843F8042B8B42FAD125443846B56327
:1016500000F006F9002043B0BDE8F083012C4FEA0A
:10166000124895B25AD0052C5CD108EB0509B9F1A6
:10167000200F57D8B8F10F0F77D9A946002D40F0A9
:101680008880B36B6DB320AF4FF0000907EBC8073C
:10169000043F03EBC50553F8041B47F8041FAB4296
:1016A000F9D1B9F1000F0FD06F464146102938BF6C
:1016B000102107EBC101843903EBC90553F8040B72
:1016C00041F8040FAB42F9D1012C00F08480B8F14D
:1016D0000F0FB56345D9B9F1000F02D0684600F08D
:1016E000B7F8002043B0BDE8F083DCB9876B234630
:1016F000012094B206F1040C00FA03F222423946AA
:1017000004D051F8042B4CF823200F460133102B42
:10171000F2D115F40050E4D1B76304E008EB0503FF
:10172000102B03D9022043B0BDE8F083B8F10F0FAE
:10173000F8D83368DA0706D5304623F0030340F8BB
:10174000483B00F079F820AF384600F075F8B36BED
:10175000002D99D11D460435B563384600F068F870
:10176000BFE720A800F06CF8B5E7B9F1100F40D939
:10177000A9F110093368D90708D523F001033046D1
:1017800043F0020340F8483B00F05EF8B9F1000F67
:1017900032D033685A0720D4B8F10F0F25D96F46DD
:1017A0003846C8F1100500F057F8002DB36B7FF7ED
:1017B0007CAF20AF6AE723F01003336006F5E870D2
:1017C00000F09CF804E723F00803036000F5A8701C
:1017D00000F068F827E720AFBDE7304623F00403A8
:1017E00040F8D03B00F038F8D6E720A800F02CF8FD
:1017F000D5E74FF00009BDE7B8F10F0F3FF641AF55
:1018000020AF384600F020F8B36B002D7FF43CAFDA
:10181000384600F015F864E700F1340191E838002B
:101820009C46A6464CF8045D90E8FF0FE54600BDD7
:1018300090EC210B704700BF80EC210B704700BF7C
:1018400090EC200B704700BF80EC200B704700BF6E
:10185000D0EC200B704700BFC0EC200B704700BFDE
:10186000F0EC0201F0EC0211F0EC0221F0EC02319C
:10187000F0EC0241F0EC0251F0EC0261F0EC02718C
:10188000F0EC0281F0EC0291F0EC02A1F0EC02B17C
:10189000F0EC02C1F0EC02D1F0EC02E1F0EC02F16C
:1018A000704700BFE0EC0201E0EC0211E0EC022125
:1018B000E0EC0231E0EC0241E0EC0251E0EC0261CC
:1018C000E0EC0271E0EC0281E0EC0291E0EC02A1BC
:1018D000E0EC02B1E0EC02C1E0EC02D1E0EC02E1AC
:1018E000E0EC02F1704700BFB0FC0181B0FC019157
:1018F000B0FC01A1B0FC01B1704700BFA0FC0181A8
:10190000A0FC0191A0FC01A1A0FC01B1704700BFA7
:10191000EC4600B52DE900502DE9FF1F4FF0000304
:101920002DE90C0001A9FFF7F1FBDDF840E012B052
:10193000704700BFEC4600B52DE900502DE9FF1FB0
:101940004FF000032DE90C0001A9FFF719FCDDF8A9
:1019500040E012B0704700BFEC4600B52DE90050E2
:101960002DE9FF1F4FF000032DE90C0001A9FFF73F
:1019700029FCDDF840E012B0704700BFEC4600B52E
:101980002DE900502DE9FF1F4FF000032DE90C0059
:1019900001ABFFF7EBFBDDF840E012B0704700BF92
:1019A000EC4600B52DE900502DE9FF1F4FF0000374
:1019B0002DE90C0001AAFFF75DFCDDF840E012B054
:1019C000704700BF027A7AB9437AA3B14268013BFB
:1019D00010B4437213680321141D01721A0244608B
:1019E000026010BC180E70470368013A02721A02B6
:1019F0000260180E7047B020704700BF00B585B078
:101A000003AA0023009219460C22FFF7EBFB039870
:101A100005B05DF804FB00BFF0E700BF2DE9F0431F
:101A2000054685B00E464FF000083046FFF7CAFF66
:101A3000B028044600F0B280070620D500F0F0037D
:101A4000802B4DD0902B36D0A02B60D0B02B74D0F3
:101A5000C02B00F08B8000F0F803D02B0BD100F0EE
:101A60000702013242F40022052301212846FFF734
:101A700097FD0028D9D0092005B0BDE8F0830DF10D
:101A80000C09002319468700CDF800900D22284646
:101A9000FFF7A8FBFFB2039BCDF800900437600668
:101AA0004CBFDF1BFF18002319460D222846039761
:101AB000FFF7BCFBB9E700F00D030D2BDBD003AF44
:101AC000002300F00F02194600972846FFF78AFB13
:101AD0000023009719460D222846FFF7A7FBA4E72D
:101AE0003046FFF76FFF24022043B0F5004FC2D00D
:101AF00004010023A2B219462846FFF751FD002831
:101B0000B9D114F4004F18BF4FF001088DE7C2435C
:101B100002F007034FF47F621A41010702F47F626B
:101B20004FF0000348BF42F4804219462846FFF7B1
:101B300037FD00283FF479AF9DE7B12833D0B228B4
:101B400000F08B80B32839D000F0FC03B42B92D086
:101B500000F007020132012342F400221946284610
:101B6000FFF71EFD00283FF460AF84E7C62842D08F
:101B7000C7284CD000F0F803C02B5BD0C82860D039
:101B8000C9287FF478AF3046FFF71CFF020300F04E
:101B90000F0002F470220130024365E7B8F1000F34
:101BA00018D0002068E73046FFF70CFF02460028F7
:101BB0003FF461AF10F0F003D0D05CE73046FFF7A0
:101BC00001FF010300F00F0001F47021421C01230A
:101BD0000A43C3E703AC43460E224146009428461D
:101BE000FFF700FB0094284643460F224146FFF7CB
:101BF0001DFB404640E73046FFF7E4FE010300F0DE
:101C00000F0001F47021421C03230A43A6E730466B
:101C1000FFF7D8FE024600283FF42DAF10F0F00386
:101C20007FF429AF04212846FFF7BAFC00283FF4CF
:101C3000FCAE20E700F00F020132032342F4202221
:101C40008CE73046FFF7BEFE00F0F00200F00F0315
:101C50001032013343EA023206E700230DF10C098A
:101C60000D221946CDF800902846FFF7BBFA304602
:101C7000FFF7A8FE02064FF002070CD5039B00F009
:101C80007F00B840034430460393FFF79BFE0306F2
:101C900007F10707F2D4039BCDF8009000F07F0412
:101CA00003F50172BC400023144419460D22284656
:101CB0000394FFF7BBFAB8E610B5C26C84B0536862
:101CC00003248DF80C401B0202F108040846D27967
:101CD000019301A902948DF80D20FFF79FFE04B037
:101CE00010BD00BF08B5FFF797FE806C08BD00BFB0
:101CF00008B5FFF791FEC06CC379023300EB830097
:101D000008BD00BF704700BF844641EA000313F0DE
:101D100003036DD1403A41D351F8043B40F8043BF2
:101D200051F8043B40F8043B51F8043B40F8043BB5
:101D300051F8043B40F8043B51F8043B40F8043BA5
:101D400051F8043B40F8043B51F8043B40F8043B95
:101D500051F8043B40F8043B51F8043B40F8043B85
:101D600051F8043B40F8043B51F8043B40F8043B75
:101D700051F8043B40F8043B51F8043B40F8043B65
:101D800051F8043B40F8043B51F8043B40F8043B55
:101D900051F8043B40F8043B403ABDD2303211D3F5
:101DA00051F8043B40F8043B51F8043B40F8043B35
:101DB00051F8043B40F8043B51F8043B40F8043B25
:101DC000103AEDD20C3205D351F8043B40F8043BF5
:101DD000043AF9D2043208D0D2071CBF11F8013BF3
:101DE00000F8013B01D30B8803806046704700BFB9
:101DF000082A13D38B078DD010F003038AD0C3F1C8
:101E00000403D21ADB071CBF11F8013B00F8013BA9
:101E100080D331F8023B20F8023B7BE7043AD9D368
:101E2000013A11F8013B00F8013BF9D20B7803703D
:101E30004B7843708B7883706046704708B50248D2
:101E400008F082F808BD00BFD079002000B583B04B
:101E5000064B01930623009300234FF4807204493C
:101E6000044804F02AFF03B05DF804FB600400207E
:101E70000CB70008791E000800B5ADF56D7DC920CE
:101E800005F020F900238DF80632ADF8AA33ADF83D
:101E9000AC33ADF8AE3303A807F0C4FD03A807F0D8
:101EA000E5FA03A807F0C4FA03A807F039FB03A872
:101EB00007F0DCFA03A807F06FFD03A807F0D3FED4
:101EC000BDF9F810ADF8AA13BDF8D821524212B2EC
:101ED000ADF8AC23BDF9AE330093CAA807F0F4FE09
:101EE000DFE7000010B504460E4B18784FF47A7304
:101EF000B3FBF0F30C4A1068B0FBF3F000F014FDF4
:101F000068B90F2C01D901200AE0002221464FF0C8
:101F1000FF3000F0C7FC054B1C60002000E00120F2
:101F200010BD00BF000000200C00002004000020B5
:101F300008B50B4B1A6842F400721A601A6842F432
:101F400080621A601A6842F480721A60032000F0FE
:101F500097FC0F20FFF7C6FF06F0DEFA002008BD51
:101F6000003C0240034A1168034B1B780B4413608A
:101F7000704700BF6404002000000020014B186877
:101F8000704700BF640400204A4B5A6822F4403274
:101F90005A605A6841680A435A600268536823F4D9
:101FA0008073536002685368016943EA01235360F8
:101FB0000268536823F04073536002685368816875
:101FC0000B4353600268936823F4006393600268D4
:101FD0009368C1680B439360826A374B9A4257D02B
:101FE0000268936823F07063936002689368816A63
:101FF0000B4393600268936823F040539360026838
:102000009368C16A0B4393600268936823F00203EC
:10201000936002689368017E43EA4103936090F8FD
:102020002030002B3FD00268536843F400635360B4
:102030000268536823F46043536001684B68426A46
:10204000013A43EA42334B600268D36A23F47003D7
:10205000D3620168CB6AC269013A43EA0253CB6298
:102060000268936823F4007393600268936890F8A1
:10207000301043EA412393600268936823F480633D
:10208000936002689368416943EA812393607047D3
:102090000268936823F0706393600268936823F08A
:1020A00040539360B0E70268536823F400635360C1
:1020B000CAE700BF002301400100000F38B310B58C
:1020C0000446036C43B1236C13F0100F0BD00120B6
:1020D000002384F83C3010BD05F034FC0023636419
:1020E00084F83C30EFE7236C23F4885323F0020399
:1020F00043F0020323642046FFF746FF002060649C
:10210000236C23F0030343F001032364E0E7012081
:102110007047000030B482B00023019390F83C3047
:10212000012B00F0B780012380F83C300B68092BAD
:102130003ED90568EA689BB203EB43031E3B0724C4
:1021400004FA03F322EA0303EB600568EA688C688B
:102150000B8803EB43031E3B04FA03F31343EB60CA
:102160004B68062B3AD805686A6B03EB8303053B83
:102170001F2404FA03F322EA03036B6305686A6B06
:102180004B6803EB8303053B0C8804FA03F313430A
:102190006B630268404B9A4250D002683E4B9A42B1
:1021A00055D0002380F83C30184602B030BC704750
:1021B00005682A699BB203EB4303072404FA03F37F
:1021C00022EA03032B6105682A698C680B8803EBFC
:1021D000430304FA03F313432B61C1E70C2B16D816
:1021E00005682A6B03EB8303233B1F2404FA03F3E4
:1021F00022EA03032B6305682A6B4B6803EB830316
:10220000233B0C8804FA03F313432B63C1E70568EF
:10221000EA6A03EB8303413B1F2404FA03F322EA37
:102220000303EB620568EA6A4B6803EB8303413BF7
:102230000C8804FA03F31343EB62AAE70B68122B32
:10224000ABD1164A536843F480035360A5E70B688B
:10225000103B012BA5D8114A536843F40003536087
:102260000B68102B9DD10E4B1B6802F1467202F5D4
:102270002E3202F28332A2FB03239B0C03EB830377
:102280005B00019302E0019B013B0193019B002B4A
:10229000F9D186E7022088E70020014000230140B1
:1022A0000C000020002800F0A18038B5044690F80A
:1022B0002030D3B12268136823F002031360FFF7C4
:1022C0005DFE054623685A6812F0020F10D0FFF732
:1022D00055FE401B0A28F5D9636A43F40033636254
:1022E000052384F82030012038BD05F0B3FBE1E779
:1022F0001A6842F001021A60FFF740FE05462368A3
:102300005A6812F0010F0DD1FFF738FE401B0A2862
:10231000F5D9636A43F400336362052384F82030FF
:102320000120E1E7227E012A3DD01A6822F08002D6
:102330001A60637E012B3BD02268136823F04003B0
:102340001360A37E012B39D02268136823F0200389
:102350001360E37E012B37D02268136843F010032B
:102360001360237F012B35D02268136823F0080304
:102370001360637F012B33D02268136823F00403BA
:102380001360A368E268134322691343626913432D
:102390006268013A21681343CB6100206062012327
:1023A00084F82030A0E71A6842F080021A60C0E783
:1023B0002268136843F040031360C2E72268136881
:1023C00043F020031360C4E72268136823F010036E
:1023D0001360C6E72268136843F008031360C8E778
:1023E0002268136843F004031360CAE701207047B2
:1023F00070B490F820400568AD68013CE4B2012C4F
:1024000065D815F0E05F5CD0C5F30164022C05D9F6
:10241000436A43F40003436201205DE00125A540C7
:102420001D608B68002B39D10E68CB68056843EAC4
:10243000465604F118031B01EE5003680D6904F1C0
:10244000180603EB06135D600B7D012B31D0D179AB
:1024500093791B0443EA0163517943EA0123157917
:1024600001682B4301EB0411C1F88C31D1789378CA
:102470001B0443EA0163517843EA0123117802689F
:102480000B4302EB0412C2F88831026818342401AD
:10249000135943F00103135100201DE04D6843EA36
:1024A000C503CD6806682B4304F118052D0173514F
:1024B000C3E7036803EB0613596841F48071596060
:1024C000C5E7436A43F400134362012004E0436A12
:1024D00043F480234362012070BC704730B490F80D
:1024E0002040013CE4B2012C00F2918051B9046813
:1024F000E46814F0030F10D1436A43F400134362FD
:10250000012089E00468246914F0030F05D1436AAF
:1025100043F40013436201207EE0056801F11B04CF
:1025200024012C5904F004049460002C61D1056846
:1025300001F11B0424012C59640D1460056801F19C
:102540001B0424012D59C5F34005D56005682544B9
:102550006D6805F00F051561056825446D68C5F3C4
:102560000725956105682C446468240C5461026851
:1025700002EB0112D2F8B8211A70026802EB0112C4
:10258000D2F8B821C2F307225A70026802EB011296
:10259000D2F8B821C2F307429A70026802EB011226
:1025A000D2F8B821120EDA70026802EB0112D2F8EA
:1025B000BC211A71026802EB0112D2F8BC21C2F3ED
:1025C00007225A71026802EB0112D2F8BC21C2F351
:1025D00007429A71026802EB0112D2F8BC21120E76
:1025E000DA7171B90268D36843F02003D360002028
:1025F00012E0056801F11B0424012C59E408546021
:102600009CE70268136943F020031361EFE7436A14
:1026100043F480234362012030BC70477047704709
:1026200070477047704770477047704770477047F2
:10263000704770472DE9F84F054603685C69D3F889
:1026400004809F68D3F80CB0D3F810A0D3F818908A
:1026500014F001063BD017F0010616D001229A6053
:1026600017F0020F08D117F0040F0CD117F008066D
:1026700006D04FF4805608E0FFF7D0FF002604E0B4
:10268000FFF7CFFF01E04FF4006617F4807F0DD015
:102690002B684FF480729A6017F4007F40F08680B8
:1026A00017F4806F00F0868046F4005617F4803FE0
:1026B0000DD02B684FF480329A6017F4003F40F041
:1026C000838017F4802F00F0838046F4004614F0D6
:1026D000080F07D01BF0100F04D046F400762B68CB
:1026E0001022DA6014F0040F02D01BF0080F79D129
:1026F00014F0020F04D02B68DB6813F0030F78D1BD
:1027000014F0400F07D01AF0100F04D046F4806682
:102710002B6810221A6114F0200F02D01AF0080F53
:102720006BD114F0100F04D02B681B6913F0030F4A
:102730006AD114F4003F02D018F0100F68D114F4DD
:10274000803F02D018F0080F69D114F4004F7AD0FE
:1027500018F0040F74D014F4807F04D019F0010F26
:1027600001D046F0010614F4007F04D019F0020FE6
:1027700001D046F0020614F4806F04D019F0040F63
:1027800001D046F0040614F4006F59D019F0700916
:1027900056D0B9F1400F65D058D8B9F1200F5ED0AE
:1027A000B9F1300F42D146F0200644E02846FFF749
:1027B00036FF7BE717F4006F02D046F4804675E7DA
:1027C0002846FFF72FFF71E72846FFF729FF7EE72E
:1027D00017F4002F02D046F4803678E72846FFF73A
:1027E00022FF74E72B680822DA602846FFF71CFFF7
:1027F0007EE7284607F08EFA82E72B6808221A61E6
:102800002846FFF713FF8CE72846FFF70EFF90E7F7
:102810002B6810225A602846FFF709FF8FE72B68C4
:1028200008225A602846FFF703FF8EE7B9F1100F20
:1028300001D146F008062A68936923F0700393617A
:102840002B6804225A609EB9BDE8F88FB9F1500F89
:102850000BD0B9F1600FEED146F48076EBE746F08D
:102860001006E8E746F04006E5E746F08006E2E7B6
:102870006B6A1E436E622846FFF7DBFEE4E700004A
:10288000074AD36823F4E0631B041B0C000200F426
:10289000E060034343F0BF6343F40033D360704709
:1028A00000ED00E030B4174BDB68C3F30223C3F143
:1028B0000704042C28BF04241D1D062D18D9033B32
:1028C0004FF0FF3505FA04F421EA0401994005FAB6
:1028D00003F322EA0303194300280BDB0901C9B201
:1028E00000F1604000F5614080F8001330BC704793
:1028F0000023E5E700F00F000901C9B2024B1954AB
:10290000F4E700BF00ED00E014ED00E0002807DB75
:1029100000F01F02400901239340024A42F8203090
:10292000704700BF00E100E00138B0F1807F0AD2BB
:10293000064B5860064AF02182F823100020986068
:1029400007221A6070470120704700BF10E000E0C6
:1029500000ED00E068B110B5044643792BB10223C5
:10296000637101236371002010BD037105F014F938
:10297000F5E701207047000010B40368D9B21039A0
:102980000C4AA2FB014212090B4CA25CC2655F29F2
:1029900009D923F47F7323F0030304338365806D27
:1029A0005DF8044B704723F47F7323F003038365C2
:1029B000F5E700BFABAAAAAA18B70008836A826924
:1029C00092B9012B0AD0022B02D00BB10020704724
:1029D000C36A13F0807F28D100207047C36AB3F127
:1029E000C07F24D000207047B2F5005F09D0022BD1
:1029F00025D9032B25D1C36A13F0807F23D1002072
:102A00007047032B03D8DFE803F01404140A0020F6
:102A10007047C36A13F0807F0DD100207047C36AEE
:102A2000B3F1C07F09D0002070470120704701201A
:102A30007047012070470120704701207047012036
:102A400070470020704701207047000070B50446B1
:102A5000FFF794FA002C5BD00546002384F834304D
:102A6000022384F835302268136823F001031360D1
:102A700023681A6812F0010F0AD0FFF77FFA431B90
:102A8000052BF5D920236365032084F8350070BD3C
:102A90001A68204810406168A2680A43E1680A4346
:102AA00021690A4361690A43A1690A43E1690A434A
:102AB000216A0A430243616A04291ED01A6026680B
:102AC000756925F00705636A1D43042B07D1A36AC6
:102AD0001D43E36A1BB12046FFF770FF90B9756193
:102AE0002046FFF749FFE26D3F23934083600020BB
:102AF0006065012384F83530C9E7E16A206B014342
:102B00000A43DBE740236365012084F83500BEE714
:102B10000120BCE73F8010F0F0B583B004460023ED
:102B20000193724B1D68724BA3FB0535AD0A876D8F
:102B30003E68C26D08239340334210D003681A6880
:102B400012F0040F0BD01A6822F004021A60C26D52
:102B500008239340BB60436D43F001034365E26D7E
:102B600001239340334209D02268526912F0800F4A
:102B700004D0BB60636D43F002036365E26D042320
:102B80009340334209D02268126812F0020F04D039
:102B9000BB60636D43F004036365E26D10239340F3
:102BA000334224D02268126812F0080F1FD0BB6095
:102BB00023681A6812F4802F0DD01B6813F4002FBD
:102BC00004D1236C9BB12046984710E0A36C73B1ED
:102BD000204698470BE01A6812F4807F03D11A68E8
:102BE00022F008021A60236C0BB120469847E26D70
:102BF00020239340334255D02268126812F0100F00
:102C000050D0BB6094F83530DBB2052B0ED0236872
:102C10001A6812F4802F33D01B6813F4002F2AD1C6
:102C2000636C002B3ED0204698473BE02268136837
:102C300023F0160313602268536923F08003536165
:102C4000236CA3B12268136823F008031360E26DBC
:102C50003F239340BB60002384F83430012384F881
:102C60003530236D002B3FD0204698473CE0A36CC5
:102C7000002BE7D1EBE7E36BA3B12046984711E0C7
:102C80001A6812F4807F09D11A6822F010021A60C3
:102C9000002384F83430012384F83530E36B0BB122
:102CA00020469847636DFBB1636D13F0010F17D099
:102CB000052384F835302268136823F0010313607C
:102CC000019B01330193AB4204D823681B6813F0C6
:102CD000010FF5D1002384F83430012384F8353016
:102CE000E36C0BB12046984703B0F0BD0C00002008
:102CF000B5814E1B00230F2B00F2D980F0B482B0B7
:102D000039E0072200E00022B2403A430234684E24
:102D100046F82420674A1468EA4324EA05064F6807
:102D200017F4803F01D045EA0406624C26606468CF
:102D300002EA04064F6817F4003F01D045EA040692
:102D40005C4C6660A46802EA04064F6817F4801FB2
:102D500001D045EA0406574CA660E46822404E685C
:102D600016F4001F01D045EA0402524CE260013320
:102D70000F2B00F2998001229A400C6804EA0205A8
:102D800032EA0404F3D14C68022C01D0122C10D189
:102D9000DE08083650F826C003F00704A7000F2409
:102DA000BC402CEA040C0C69BC4044EA0C0440F81A
:102DB0002640D0F800C05E000324B440E7432CEA6C
:102DC000040C4C6804F00304B44044EA0C040460AE
:102DD0004C6804F1FF3CBCF1010F03D9112C01D068
:102DE000122C10D1846807EA040CCC68B44044EA81
:102DF0000C048460446824EA02024C68C4F30014A2
:102E00009C4014434460C26817408A68B2403A4309
:102E1000C2604A6812F0805FA9D000220192264A5F
:102E2000546C44F480445464526C02F48042019225
:102E3000019A9C08A61C1E4A52F8267003F0030251
:102E400096000F22B24027EA02071C4A90423FF444
:102E50005AAF02F5806290421AD002F58062904229
:102E600018D002F58062904216D002F5806290423E
:102E700014D002F58062904212D002F58062904236
:102E800010D002F5806290423FF43BAF08223BE74E
:102E9000012239E7022237E7032235E7042233E72C
:102EA000052231E706222FE702B0F0BC70477047D9
:102EB00000380140003C0140003802400000024060
:102EC0000AB1816170470904816170477047000051
:102ED00008B5054B5B69034200D108BD024B586140
:102EE000FFF7F4FFF9E700BF003C0140002800F0C5
:102EF000C280F8B5044690F83D30002B6DD02423F5
:102F000084F83D302268136823F00103136001F058
:102F10002BF862685A4B9A4264D85A4B98428CBF3D
:102F200000230123002B40F0A880574DA5FB00355E
:102F3000AF0C2668716821F03F0141EA954171604C
:102F400021680B6A23F03F0365684D4A95424FD8CC
:102F50007A1C13430B622568E96921F44F4121F083
:102F6000FF016368464A93424CD801385B00B0FBCE
:102F7000F3F0013040F6FC73184278D0C0F30B0335
:102F80000B43EB6121680B6823F0C003E269206A00
:102F9000024313430B6021688B6823F4034323F03F
:102FA000FF032269E068024313438B602168CB680A
:102FB00023F0FF036269A06902431343CB602268D8
:102FC000136843F00103136000202064202384F879
:102FD0003D30206384F83E00F8BD80F83C3004F0BA
:102FE000DBFF8CE7294B98428CBF0023012399E734
:102FF0004FF4967202FB07F2254DA5FB025292098F
:103000000132A6E7A268BAB9461E03EB4307B6FB36
:10301000F7F60136C6F30B06B6FA86F6760946BB16
:10302000C2B9421E03EB4303B2FBF3F20132C2F317
:103030000B0242F40043A3E7461E03EB830707EBB2
:103040008707B6FBF7F60136C6F30B06B6FA86F627
:103050007609E4E7421E03EB830303EB8303B2FB31
:10306000F3F20132C2F30B0242F4404388E7042337
:1030700086E7012384E7012070470120ACE700BF09
:10308000A08601007F841E0083DE1B43FF083D00F5
:10309000D34D62102DE9F04782B0D0F80080C1EB2B
:1030A000C10300EB83035A6D1B6D9A4255D8074646
:1030B0000C46C1469B1AC1EBC10200EB8202526C66
:1030C0009A4200D31A4602F1030A4FEA9A0A15E01F
:1030D00006F1030A4FEA9A0AC4EBC40507EB85051B
:1030E000A96C3B7C0093B3B2E2B2404601F0F5FE1E
:1030F000AB6C3344AB646B6D1E446E6509EB4413DB
:1031000003F510639B699BB2534512D3C4EBC40211
:1031100007EB8202516D136D99420AD24BB15B1AD3
:10312000C4EBC40207EB8202566C9E42D0D31E460B
:10313000CEE7C4EBC40007EB80073A6D7B6D9A4283
:103140000FD804F00F040123A340D8F8344824EA30
:103150000304C8F83448002000E0012002B0BDE8B4
:10316000F0870020FAE7000070B505460E460368B8
:10317000196C03EB461303F53064A3680269012A56
:1031800009D0354A914261D113F4004F54D04FF425
:103190000043A3605DE013F0080F14D02F4A914262
:1031A00005D913F4004F02D04FF40043A360284622
:1031B00005F0B4FF05F571720121286802F07CF872
:1031C0000823A36045E013F0200F02D02023A36062
:1031D0003FE013F0280F3CD1204A914206D913F466
:1031E000004F03D04FF40043A36032E0C6EBC603A8
:1031F00005EB8303D3F804222169C1F31201521AAB
:10320000C3F81422D3F80412D3F808220A44C3F8EE
:103210000822F1B2284605F089FFD6B9C6EBC606EA
:1032200005EB8603D3F810329BB905F571720121C5
:10323000286802F041F80CE013F0200F01D02023A1
:10324000A360F1B2284605F071FF02E0F1B205F08B
:103250006DFF002070BD00BF0A31544F0A30544F3B
:1032600038B5044603681D6C03EB411303F5306366
:1032700099680269012A0DD0124A954214D020465D
:1032800005F04CFF104B9D4202D92369012B12D04F
:10329000002038BD0C4A9542F1D911F4004FEED010
:1032A0004FF400429A60EAE711F4004FE7D04FF480
:1032B00000429A60E3E704F571720121206801F091
:1032C000FBFFE5E70A31544F0A30544F2DE9F84F20
:1032D00004460568284601F0CEFF08B1BDE8F88F26
:1032E0002F460646206801F095FF0028F6D020689A
:1032F00001F090FF10F0020F04D02268536903F030
:1033000002035361206801F085FF10F4002F74D18F
:10331000206801F07FFF10F4802F40F0C280206809
:1033200001F078FF0028C0F23281206801F072FFBE
:1033300010F4006F0AD0D5F8083813F0010F40F0F0
:1033400040812268536903F400635361206801F0EF
:1033500061FF10F4805F40F03881206801F05AFF6F
:1033600010F4005F40F08B81206801F053FF10F0F3
:10337000100F14D02268936923F0100393612E6A12
:1033800006F00F07C6F34343022B00F09081062B93
:1033900000F0AC812268936943F0100393612068C8
:1033A00001F038FF10F0080F40F0B281206801F002
:1033B00031FF10F4801F40F0B481206801F02AFF33
:1033C00010F4001F40F0B781206801F023FF10F0D7
:1033D000804F40F0BA81206801F01CFF10F0040F0C
:1033E0003FF47CAF23685D6815F0040F40F0B681B0
:1033F000226853682B43536070E7206801F00EFF8A
:103400008046B14625E007EB49130122C3F8082B9B
:1034100049462046FFF7A8FE2BE049462046FFF725
:103420001FFF07EB49130822C3F8082B24E007EB22
:1034300049132022C3F8082B1AF4005F05D007EBCC
:1034400049134FF40052C3F8082B09F101094FEA60
:103450005808B8F1000F3FF45BAF18F0010FF4D03B
:103460005FFA89F1206801F0E9FE824610F0010F51
:10347000C9D11AF0080FD0D11AF0100F04D007EB01
:1034800049131022C3F8082B1AF0200FD4D0236957
:10349000012BCCD104F571720121206801F00CFFE1
:1034A000C5E7206801F0C2FE8046B1462FE0C9EBB7
:1034B000C90304EB8303596C9A6C0A449A6449E08B
:1034C0001AF0080F04D007EB49130822C3F80829A3
:1034D0001AF0100F04D007EB49131022C3F8082983
:1034E0001AF0400F04D007EB49134022C3F8082913
:1034F0001AF0020F04D007EB49130222C3F808297F
:103500001AF0800F3ED109F101094FEA5808B8F1CD
:10351000000F3FF404AF18F0010FF4D05FFA89FBFD
:103520005946206801F093FE824610F0010FC7D083
:1035300009F00F03012101FA03F2D7F8343823EA26
:103540000203C7F8343807EB4913C3F80819236995
:103550008B42ACD05946204605F0F4FD2369012B7F
:10356000AED1B9F1000FABD1C9EBC90304EB8303B2
:103570001B6D002BA4D104F571720121206801F0AC
:103580009BFE9DE749462046FFF784FDBBE7D5F843
:10359000043823F00103C5F8043894F8F433012B00
:1035A00008D0204605F00EFE2268536903F0004360
:1035B0005361BAE6002184F8F413204600F002FAC1
:1035C000F2E7204605F0E6FDBBE605F50068D8F811
:1035D000043023F00103C8F804301021206801F002
:1035E0007FFB14E007EB46134FF67F31C3F8081951
:1035F000D3F8002922F40012C3F80029C3F8081BED
:10360000D3F8002B22F40012C3F8002B01366368B4
:10361000B342E7D8D8F81C3043F00113C8F81C3087
:10362000236BEBB1D8F8843043F00B03C8F8843037
:10363000D8F8443043F00B03C8F84430D5F80038CC
:1036400023F4FE63C5F8003804F57172217C20680C
:1036500001F032FE2268536903F4805353617CE623
:10366000D8F8143043F4005343F02B03C8F8143057
:10367000D8F8103043F00B03C8F81030DEE72068AC
:1036800001F0FDFD206801F03FFBE060266800F0DE
:1036900065FC0146227B304601F0B0FA204605F079
:1036A00062FD2268536903F4005353615CE647F6F8
:1036B000F0731E423FF46EAE4FEA161AC7EBC7080E
:1036C00004EB8808C6F30A12D8F80812284601F05D
:1036D00025FDCAF30A02D8F808321344C8F80832A4
:1036E000D8F814321A44C8F8142253E6082204F514
:1036F0007171284601F012FDC6F30A16C7EBC70226
:1037000004EB8202D2F814321E44C2F8146241E67D
:10371000204605F022FD2268536903F00803536137
:1037200044E60021204605F059FD2268536903F460
:103730008013536141E60021204605F049FD2268CF
:10374000536903F4001353613EE6204605F04CFD37
:103750002268536903F0804353613CE6204605F03C
:1037600049FD45E690F8BC33012B0DD010B5044659
:10377000012380F8BC3380F83810006801F03AFD6E
:10378000002084F8BC0310BD02207047F8B507463E
:103790000C4611F0800F27D101F00F05C5EBC506CF
:1037A000B60006F5FC760644311DC5EBC50500EBF9
:1037B0008505002085F8FD0104F00F040C708A6077
:1037C000CB704A7802B1CC80022B1DD097F8BC3365
:1037D000012B1CD0012387F8BC33386801F0A5FA0F
:1037E000002087F8BC03F8BD01F00F00C0EBC0015A
:1037F0008900383139440431C0EBC00007EB800048
:10380000012580F83D50D7E700230B71DEE7022049
:10381000E9E738B501F00F04C4EBC401890001F5F4
:10382000FC7101440431C4EBC40500EB8505C5F807
:103830000822C5F810320023C5F8143285F8FD318E
:1038400085F8FC410369012B06D064B9DAB200683F
:1038500001F0B5FA002038BDC4EBC40500EB8505C6
:10386000C5F80C22F1E7DAB2006801F04BFBF1E792
:1038700038B501F00F04C4EBC401890038310144AC
:103880000431C4EBC40500EB8505AA642B65002355
:103890006B65012385F83D3085F83C400369012BB9
:1038A00006D05CB9DAB2006801F089FA002038BDB0
:1038B000C4EBC40500EB8505EA64F2E7DAB2006800
:1038C00001F020FBF2E738B501F00F0542689542A0
:1038D00039D804460B4611F0800F1FD1C1EBC1014E
:1038E000890001F5FC7101440431C3EBC30300EB13
:1038F0008303002283F8FD2101238B700D7094F85F
:10390000BC33012B21D0012384F8BC33206801F0A3
:1039100016FC8DB1002084F8BC0338BDC5EBC50191
:103920008900383101440431C5EBC50300EB830342
:10393000012283F83D20DFE704F57172217C2068C5
:1039400001F0BAFCE6E70120E7E70220E5E701F035
:103950000F034268934231D810B5044611F0800F2E
:103960001ED1C3EBC301890001F5FC710144043190
:10397000C3EBC30200EB8202002082F8FD010022AB
:103980008A700B7094F8BC33012B19D0012384F892
:10399000BC33206801F000FC002084F8BC0310BD9B
:1039A000C3EBC3018900383101440431C3EBC302C6
:1039B00000EB8202012082F83D00E0E70120704721
:1039C0000220ECE770470000002800F0B98170B5D4
:1039D00082B00446036813F0010F3BD0A64B9B68EE
:1039E00003F00C03042B2CD0A34B9B6803F00C03B7
:1039F000082B21D06368B3F5803F4FD0B3F5A02FDB
:103A000052D09D4B1A6822F480321A601A6822F450
:103A100080221A606368002B50D0FEF7AFFA05468B
:103A2000954B1B6813F4003F14D1FEF7A7FA401B17
:103A30006428F5D903208AE18F4B5B6813F4800F6B
:103A4000D8D08D4B1B6813F4003F03D06368002B64
:103A500000F07881236813F0020F54D0864B9B68E6
:103A600013F00C0F3ED0844B9B6803F00C03082B23
:103A700033D0E368002B67D0804B01221A60FEF739
:103A80007DFA05467C4B1B6813F0020F53D1FEF7FD
:103A900075FA401B0228F5D9032058E1764A1368CD
:103AA00043F480331360B5E7734B1A6842F4802205
:103AB0001A601A6842F480321A60ABE7FEF75EFAC9
:103AC00005466D4B1B6813F4003FC3D0FEF756FA52
:103AD000401B6428F5D9032039E1674B5B6813F478
:103AE000800FC6D1644B1B6813F0020F03D0E3684C
:103AF000012B40F02981604A136823F0F803216903
:103B000043EAC1031360236813F0080F40D06369D0
:103B100063B35B4B01221A60FEF730FA0546564B41
:103B20005B6F13F0020F33D1FEF728FA401B022817
:103B3000F5D903200BE1504A136823F0F8032169FB
:103B400043EAC1031360DEE74C4B00221A60FEF724
:103B500015FA0546484B1B6813F0020FD3D0FEF749
:103B60000DFA401B0228F5D90320F0E0444B002257
:103B70001A60FEF703FA05463F4B5B6F13F0020F26
:103B800006D0FEF7FBF9401B0228F5D90320DEE042
:103B9000236813F0040F78D0374B1B6C13F0805F51
:103BA0000DD100230193344B1A6C42F080521A64F9
:103BB0001B6C03F080530193019B012500E000255D
:103BC000304B1B6813F4807F21D0A368012B32D0C7
:103BD000052B36D0284B1A6F22F001021A671A6F94
:103BE00022F004021A67A368002B34D0FEF7C6F94E
:103BF0000646214B1B6F13F0020F45D1FEF7BEF9AD
:103C0000801B41F288339842F3D903209FE01D4A7C
:103C1000136843F480731360FEF7B0F90646194B3E
:103C20001B6813F4807FD0D1FEF7A8F9801B02280F
:103C3000F5D903208BE0104A136F43F0010313679B
:103C4000D1E70D4B1A6F42F004021A671A6F42F067
:103C500001021A67C7E7FEF791F90646064B1B6F8C
:103C600013F0020F10D0FEF789F9801B41F2883360
:103C70009842F3D903206AE000380240000047422E
:103C8000800E474200700040E5B9A369002B5DD06B
:103C9000314A926802F00C02082A5AD0022B17D03F
:103CA0002E4B00221A60FEF769F904462A4B1B6866
:103CB00013F0007F42D0FEF761F9001B0228F5D90E
:103CC000032044E0244A136C23F080531364DCE7A0
:103CD000224B00221A60FEF751F905461E4B1B6865
:103CE00013F0007F06D0FEF749F9401B0228F5D9F2
:103CF00003202CE0E369226A1343626A43EA8213D9
:103D0000A26A5208013A43EA0243E26A43EA0263C2
:103D1000114A5360114B01221A60FEF72FF9044635
:103D20000D4B1B6813F0007F06D1FEF727F9001B2F
:103D30000228F5D903200AE0002008E0002006E070
:103D400001207047012002E0012000E0002002B0C5
:103D500070BD0120FBE700BF003802406000474211
:103D6000F8B5244B9B6803F00C03042B3DD0082BC3
:103D70003DD1204B5A6802F03F025B6813F4800F7C
:103D800012D01C4B5968C1F3881100231A48A1FBBB
:103D90000001FCF7EBFE174B5B68C3F301430133F3
:103DA0005B00B0FBF3F023E0124B5B68C3F38813B6
:103DB0005C010025E41A65F10005AE0146EA94664F
:103DC000A701381B66EB0501CC0044EA5074C5001E
:103DD000E81844F100018B0243EA90538402204624
:103DE00019460023FCF7C2FED5E7034800E003486C
:103DF000F8BD00BF00380240001BB7000024F400EB
:103E0000002800F09A8070B50D4604464F4B1B68A1
:103E100003F00F038B4208D2CBB24C4A13701368E5
:103E200003F00F038B4240F08A80236813F0020FE7
:103E300017D013F0040F04D0454A936843F4E053BD
:103E40009360236813F0080F04D0414A936843F449
:103E5000604393603E4A936823F0F003A1680B43EC
:103E60009360236813F0010F32D06368012B21D0D7
:103E70009A1E012A25D9364A126812F0020F60D024
:103E800033498A6822F0030213438B60FEF776F809
:103E900006462F4B9B6803F00C036268B3EB820F5E
:103EA00016D0FEF76BF8801B41F288339842F0D9A8
:103EB000032041E0264A126812F4003FE0D10120BD
:103EC0003AE0234A126812F0007FD9D1012033E092
:103ED0001E4B1B6803F00F03AB4207D9EAB21B4B22
:103EE0001A701B6803F00F03AB422CD1236813F048
:103EF000040F06D0164A936823F4E053E1680B439D
:103F00009360236813F0080F07D0114A936823F4D5
:103F10006043216943EAC1039360FFF721FF0C4B23
:103F20009B68C3F303130B4AD35CD8400A4B186059
:103F30000F20FDF7D7FF002070BD01207047012042
:103F4000FAE70120F8E70120F6E700BF003C024055
:103F50000038024044B700080C000020014B1868EC
:103F6000704700BF0C00002008B5FFF7F7FF044BB7
:103F70009B68C3F38223034AD35CD84008BD00BFCB
:103F80000038024054B7000808B5FFF7E7FF044BBC
:103F90009B68C3F34233034AD35CD84008BD00BFDB
:103FA0000038024054B7000830B583B004460368B7
:103FB00013F0050F06D1236813F0020F2ED1002055
:103FC00003B030BD494B00221A60FDF7D7FF05460C
:103FD000474B1B6813F0006F06D0FDF7CFFF431B64
:103FE000022BF5D90320EBE76268A3681B0743EABD
:103FF00082133F4AC2F884303C4B01221A60FDF71D
:10400000BDFF05463A4B1B6813F0006FD3D1FDF797
:10401000B5FF431B022BF5D90320D1E70023019301
:10402000334B1A6C42F080521A641B6C03F08053BD
:104030000193019B2F4A136843F480731360FDF7CB
:104040009DFF05462B4B1B6813F4807F06D1FDF7BF
:1040500095FF431B022BF5D90320B1E7244B1B6FBF
:1040600013F4407312D0E26802F440729A420DD009
:104070001F4B1A6F22F440721F4901200860002074
:1040800008601A671B6F13F0010F13D1E36803F484
:104090004072B2F5407F1ED0154A936823F4F8139E
:1040A000936013490B6FE268C2F30B0213430B6773
:1040B000002085E7FDF762FF05460D4B1B6F13F0EF
:1040C000020FE3D1FDF75AFF401B41F288339842BB
:1040D000F3D9032074E706498A6822F4F81223F022
:1040E000704323F4407313438B60DAE76800474260
:1040F0000038024000700040400E474298B110B5B1
:10410000044643795BB1022363712268136843F06C
:1041100004031360012363710020A06010BD0371CC
:1041200004F0AEF8EFE70120704738B504460268A6
:10413000D36823F0A003D360FDF720FF0546236872
:10414000DB6813F0200F07D1FDF718FF401BB0F517
:104150007A7FF4D9032000E0002038BD38B5036829
:10416000DA6812F0400F01D0002038BD04464FF04D
:10417000FF32DA60FDF702FF05462368DB6813F0C3
:10418000400F07D1FDF7FAFE431BB3F57A7FF4D950
:104190000320EAE70020E8E738B500285CD00446B1
:1041A000437F002B41D0022363772368CA225A62DF
:1041B000236853225A622046FFF7D0FF05460028A5
:1041C00037D12268936823F4E00323F0400393601F
:1041D00021688A6863682069034360690343134365
:1041E0008B602368E2681A6122681369A16843EA58
:1041F000014313612268D36823F08003D3602368EE
:104200009B6813F0200F1BD02268136C23F48023CB
:1042100013642268136CA1690B4313642368FF22A3
:104220005A6201236377284638BD037704F05AF8B1
:10423000B9E72368FF225A62042363770125F2E776
:104240002046FFF772FF0028DED02368FF225A6263
:10425000042363770125E6E70125E4E700283BD046
:1042600010B504460023836290F85130002B2ED005
:10427000022384F851302268136823F0400313604E
:104280006368A2681343E2681343226913436269B7
:104290001343A26902F400721343E2691343226AD2
:1042A0001343A16A22680B431360638B03F004037A
:1042B000616A22680B4353602268D36923F4006368
:1042C000D36100206065012384F8513010BD80F86F
:1042D000503004F05DF8CBE70120704730B4036A3A
:1042E00023F001030362056A4268846924F07304C1
:1042F0000B681C4325F002058B682B43104DA84228
:1043000003D005F58065A84205D123F00803CD68E8
:104310002B4323F004030A4DA84203D005F5806522
:10432000A84205D122F440724D6915438A692A4397
:10433000426084614A684263036230BC704700BFD8
:104340000000014030B4036A23F480730362036AFF
:104350004268C46924F073040D682C4323F400738D
:104360008D6843EA0523124DA84203D005F5806508
:10437000A84206D123F40063CD6843EA052323F461
:1043800080630B4DA84203D005F58065A84207D194
:1043900022F440524D6942EA05128D6942EA051243
:1043A0004260C4614A68C263036230BC704700BFA8
:1043B0000000014030B4036A23F480530362036AAF
:1043C0004468C26922F4E6420D6842EA052223F4F9
:1043D00000538D6843EA0533094DA84203D005F523
:1043E0008065A84204D124F480444D6944EA8514D0
:1043F0004460C2614A680264036230BC704700BF17
:104400000000014030B4036A056A25F00105056229
:10441000846924F0F00444EA021423F00A030B43F5
:104420008461036230BC704730B4056A25F0100522
:1044300005628469036A24F4704444EA023423F078
:10444000A00343EA01138461036230BC70478368B0
:1044500023F070030B4343F00703836070477047FA
:104460000368304A904212D0B0F1804F0FD0A2F5CD
:104470007C4290420BD002F58062904207D002F558
:104480008062904203D002F57842904203D123F03B
:1044900070034A681343234A90422AD0B0F1804FF8
:1044A00027D0A2F57C42904223D002F58062904250
:1044B0001FD002F5806290421BD002F578429042F4
:1044C00017D002F57052904213D002F580629042EC
:1044D0000FD002F5806290420BD0A2F59832904244
:1044E00007D002F58062904203D002F580629042CC
:1044F00003D123F44073CA68134323F080034A694D
:10450000134303608B68C3620B688362054B984258
:1045100003D003F58063984201D10B690363012343
:104520004361704700000140B0B110B5044690F8F7
:104530003D3063B1022384F83D30214651F8040B2D
:10454000FFF78EFF012384F83D30002010BD80F876
:104550003C3004F08FF8EDE701207047B0B110B5A2
:10456000044690F83D3063B1022384F83D30214683
:1045700051F8040BFFF774FF012384F83D3000204D
:1045800010BD80F83C30FFF76AFFEDE7012070476F
:1045900030B4036A23F010030362036A446882693B
:1045A00022F4E6420D6842EA052223F020038D68DA
:1045B00043EA0513114DA84203D005F58065A842D2
:1045C00006D123F08003CD6843EA051323F04003AE
:1045D0000A4DA84203D005F58065A84207D124F40E
:1045E00040644D6944EA85048D6944EA8504446069
:1045F00082614A688263036230BC704700000140F8
:1046000038B590F83C30012B66D004460D460123A6
:1046100080F83C30022380F83D300C2A1AD8DFE8BD
:1046200002F0071919192019191934191919470015
:104630000068FFF753FE2268936943F00803936113
:104640002268936923F004039361226893692969BE
:104650000B439361012384F83D30002084F83C0033
:1046600038BD0068FFF794FF2268936943F4006344
:1046700093612268936923F480639361226893694C
:10468000296943EA01239361E4E70068FFF75AFED2
:104690002268D36943F00803D3612268D36923F009
:1046A0000403D3612268D36929690B43D361D1E73D
:1046B0000068FFF77FFE2268D36943F40063D3618B
:1046C0002268D36923F48063D3612268D36929699E
:1046D00043EA0123D361BDE70220C1E710B4846837
:1046E00024F47F4442EA03220A43224382605DF8B5
:1046F000044B704790F83C30012B66D010B504464F
:10470000012380F83C30022380F83D300268936832
:1047100023F47F4323F0770393600B68602B40D032
:1047200022D8402B47D00BD9502B0ED1CA684968EC
:104730000068FFF767FE50212068FFF788FE04E05D
:10474000202B0CD008D9302B09D0012384F83D3020
:10475000002084F83C0010BD0BB1102BF5D1194698
:104760002068FFF774FEF0E7702B0ED0B3F5005F02
:10477000EBD1CB684A6889680068FFF7AFFF226811
:10478000936843F480439360DFE7CB684A688968A5
:104790000068FFF7A3FF2268936843F077039360F4
:1047A000D3E7CA6849680068FFF73EFE60212068C9
:1047B000FFF74DFEC9E7CA6849680068FFF722FEA7
:1047C00040212068FFF743FEBFE70220704790F8C2
:1047D0003C30012B1CD070B4012680F83C600223D1
:1047E00080F83D3002685568936825F070050C68C4
:1047F0002C4323F080054B682B4354600268936080
:1048000080F83D60002380F83C30184670BC70474B
:104810000220704790F83C30012B22D0012380F811
:104820003C30CB6823F440738A68134323F48063DD
:104830004A68134323F400630A68134323F4805344
:104840000A69134323F400534A69134323F4804352
:10485000CA69134302685364002380F83C30184649
:1048600070470220704700002DE9F84304460268B3
:10487000136923F44053C1680B43136183680269D1
:10488000134342691343C2691A430168CB6823F496
:10489000164323F00C031343CB600268536923F4DF
:1048A000407381690B435361C369B3F5004F60D016
:1048B0000368B84A934200F0148102F58062934283
:1048C00000F00F81FFF750FB00EB800000EB800051
:1048D0006568AD00B0FBF5F5AF4EA6FB05356D097B
:1048E0002F01FFF741FB00EB800505EB85056368B1
:1048F0009B00B5FBF3F9FFF737FB00EB800000EB03
:1049000080006568AD00B0FBF5F5A6FB05356D09C7
:104910004FF0640808FB15952D013235A6FB0535CF
:104920006D0905F0F0053D44FFF71EFB00EB80002C
:1049300000EB80006768BF00B0FBF7F7FFF714FBE0
:1049400000EB800000EB800063689B00B0FBF3F09D
:10495000A6FB0030400908FB10784FEA081808F160
:104960003208A6FB0836C6F3431623682E449E6021
:104970000DE10368874A93425BD002F5806293425F
:1049800057D0FFF7F1FA00EB800000EB800065687C
:104990006D00B0FBF5F5804EA6FB05356D092F01C6
:1049A000FFF7E2FA00EB800000EB800065686D0025
:1049B000B0FBF5F9FFF7D8FA00EB800000EB8000C0
:1049C00065686D00B0FBF5F5A6FB05356D094FF088
:1049D000640808FB1595ED003235A6FB05356D0919
:1049E0006D0005F4F8753D44FFF7BEFA00EB80005A
:1049F00000EB800067687F00B0FBF7F7FFF7B4FAC1
:104A000000EB800000EB800063685B00B0FBF3F319
:104A1000A6FB03235B0908FB13784FEAC80808F1DB
:104A20003208A6FB0836C6F3421623682E449E6061
:104A3000ADE0FFF7A9FA00EB800000EB80006568AD
:104A40006D00B0FBF5F5544EA6FB05356D092F0141
:104A5000FFF79AFA00EB800000EB800065686D00BC
:104A6000B0FBF5F9FFF790FA00EB800000EB800057
:104A700065686D00B0FBF5F5A6FB05356D094FF0D7
:104A8000640808FB1595ED003235A6FB05356D0968
:104A90006D0005F4F8753D44FFF776FA00EB8000F1
:104AA00000EB800067687F00B0FBF7F7FFF76CFA58
:104AB00000EB800000EB800063685B00B0FBF3F369
:104AC000A6FB03235B0908FB13784FEAC80808F12B
:104AD0003208A6FB0836C6F3421623682E449E60B1
:104AE00055E0FFF751FA00EB800000EB80006568AD
:104AF000AD00B0FBF5F5284EA6FB05356D092F017D
:104B0000FFF742FA00EB800505EB850563689B0023
:104B1000B5FBF3F9FFF738FA00EB800000EB8000FB
:104B20006568AD00B0FBF5F5A6FB05356D094FF0E6
:104B3000640808FB15952D013235A6FB05356D0976
:104B400005F0F0053D44FFF71FFA00EB800000EB95
:104B500080006768BF00B0FBF7F7FFF715FA00EBBE
:104B6000800000EB800063689B00B0FBF3F0A6FBC5
:104B70000030400908FB10784FEA081808F13208A5
:104B8000A6FB0836C6F3431623682E449E60BDE894
:104B9000F88300BF001001401F85EB5158B310B5DA
:104BA000044690F839300BB3242384F83930226856
:104BB000D36823F40053D3602046FFF755FE2268E4
:104BC000136923F4904313612268536923F02A0385
:104BD00053612268D36843F40053D3600020E0633C
:104BE000202384F8393084F83A3010BD80F838300A
:104BF00004F050F9D8E7012070470000022A0AD0DB
:104C00000921C26822F47052C260C36843EA81235A
:104C1000C36000207047234B0B44234A93422FD993
:104C2000224B0B44224A93422CD9A1F57403A3F5DD
:104C30001053204A934227D9A1F18373A3F5E74388
:104C40001D4A934222D31D4B0B441D4A93421FD948
:104C50001C4B0B441C4A93421CD31C4B0B441C4A58
:104C6000934219D3A1F1B773A3F55853194A93424C
:104C700014D3194B0B44194A934211D20721C0E7B0
:104C80000F21BEE70E21BCE70D21BAE70C21B8E7E2
:104C90000B21B6E70A21B4E70921B2E70821B0E702
:104CA0000621AEE7405327FFFF340C00401E1BFFD8
:104CB0003F420F007F4F120020D6130060B6E5FE82
:104CC0005FE3160000D3CEFE40771B00C05BB3FE4F
:104CD000C091210020753800E05459FEE09C41004D
:104CE000890141F02001016100230133054A93420B
:104CF00005D8026912F0200FF7D100207047032079
:104D0000704700BF400D0300D0F8083813F00603C9
:104D100007D0022B07D0062B01D00F2070470220AE
:104D20007047002070470220704770B40C784B78B1
:104D3000012B22D0D0F81C3804F00F060122B2401B
:104D400043EA0243C0F81C3800EB4410D0F8003BA3
:104D500013F4004F0ED1D0F8003B8A68C2F30A0268
:104D6000C97842EA8142134343F0805343F400433D
:104D7000C0F8003B002070BC7047D0F81C2804F03D
:104D80000F06B3409BB21343C0F81C3800EB44102D
:104D9000D0F8003913F4004FECD1D0F800398A680C
:104DA000C2F30A02C97842EA814242EA84541C43AF
:104DB00044F0805444F40044C0F80049DAE770B489
:104DC0000B784C78012C26D000EB431000F53063B3
:104DD0001C69E40CE4041C611C6924F0FF5424F4F5
:104DE000C0141C614C690CB18C684C611C6944F4A2
:104DF00000241C611C698D68C5F312052C431C61DD
:104E0000012A65D0D0F8003B43F00443C0F8003BD2
:104E1000002070BC70474C696CBB00EB4314D4F8A5
:104E2000105925F0FF5525F4C015C4F81059D4F8D1
:104E3000105945F40025C4F81059D4F81059ED0C58
:104E4000ED04C4F81059012A33D000EB4313D3F812
:104E5000002942F00442C3F800294B69002BD7D047
:104E6000D0F834380A7802F00F0101228A40134347
:104E7000C0F83438CCE700EB431404F5106425691E
:104E8000ED0CED042561256925F0FF5525F4C015CD
:104E900025614E698D68AE4200D94D61256945F4A2
:104EA0000025256125694E69C6F312063543256143
:104EB000C9E70A691AB100EB4311C1F8142900EBE4
:104EC0004310D0F8002942F00442C0F800299FE7BF
:104ED000CA68002A96D05A6194E770B49DF80C40D5
:104EE00064B903339D08AC4208D200EB023303F5EA
:104EF000805351F8046B1E600134F4E7002070BC4D
:104F000070470000F0B583B00B784C78012C2BD0A3
:104F100000EB431303F530642569ED0CED042561C6
:104F2000256925F0FF5525F4C01525614D69002D33
:104F300040F0C38025698E68C6F3120635432561AB
:104F4000256945F400252561012A00F0CB80CA7847
:104F5000012A00F0CD80D3F8002B42F00442C3F8C0
:104F6000002B002003B0F0BD4C6984BB00EB431460
:104F7000D4F8105925F0FF5525F4C015C4F8105980
:104F8000D4F8105945F40025C4F81059D4F8105934
:104F9000ED0CED04C4F81059012A4CD000EB43137A
:104FA000D3F8004944F00444C3F80049CC78012CFC
:104FB0006AD04B69002BD4D0D0F83428097801F09E
:104FC0000F040121A1400A43C0F83428C9E700EBCF
:104FD0004314D4F81059ED0CED04C4F81059D4F86A
:104FE000105925F0FF5525F4C015C4F81059D4F810
:104FF00010694D698F683D44013DB5FBF7F5464F9B
:1050000007EAC5453543C4F81059D4F810594E691C
:10501000C6F312063543C4F8105904F51064CD7870
:10502000012DB9D1256925F0C0452561256945F0D7
:1050300000552561B0E70A691AB100EB4314C4F8C2
:105040001429CA78012A08D000EB4313D3F80029A9
:1050500042F00442C3F8002983E7D0F8082812F48C
:10506000807F08D100EB4311D1F8002942F00052B3
:10507000C1F80029E8E700EB4311D1F8002942F01C
:105080008052C1F80029DFE7D0F8084814F4807F87
:105090000CD1D3F8004944F00054C3F80049009201
:1050A0008B8A0A78C968FFF718FF5AE7D3F80049D6
:1050B00044F08054C3F80049F1E78E683544013D5F
:1050C000B5FBF6F52669144F07EAC5473E4326614E
:1050D00027698E68ADB206FB05F5C5F312053D43A1
:1050E000256131E7CA68002A3FF431AF62612EE7DB
:1050F000D0F8082812F4807F06D1D3F8002B42F0B4
:105100000052C3F8002B26E7D3F8002B42F0805260
:10511000C3F8002B1FE700BF0000F81F10B40332D4
:1051200094080023A34206D200F58052126841F889
:10513000042B0133F6E708465DF8044B70470B7803
:105140004A78012A14D000EB4310D0F8002B002A33
:1051500006DB2BB1D0F8003B23F08043C0F8003BC6
:10516000D0F8003B43F40013C0F8003B0020704728
:1051700000EB4310D0F80029002A06DB2BB1D0F851
:10518000003923F08043C0F80039D0F8003943F4E7
:105190000013C0F80039E9E70B784A78012A0ED0ED
:1051A00000EB4310D0F8003B23F40013C0F8003BA1
:1051B000CB78023BDBB2012B15D90020704700EB06
:1051C0004310D0F8003923F40013C0F80039CB782D
:1051D000023BDBB2012BF0D8D0F8003943F080530A
:1051E000C0F80039E9E7D0F8003B43F08053C0F83D
:1051F000003BE2E7D0F8003823F4FE63C0F8003843
:10520000D0F80038090101F4FE611943C0F8001814
:10521000002070474269806910407047D0F8183804
:1052200000F50060C0691840000C7047D0F81838CD
:1052300000F50060C069184080B2704700EB411172
:10524000D1F8082B00F5006040691040704710B499
:10525000D0F81048D0F8343801F00F02D340DB0109
:10526000DBB2234300EB411000F51060806818406A
:105270005DF8044B7047406900F001007047D0F8BA
:10528000003923F4FF6323F00703C0F8003900F569
:1052900000639A6802F00602042A05D05A6842F4B4
:1052A00080725A6000207047D0F8002942F0030253
:1052B000C0F80029F2E7000010B4046C154B9C42C2
:1052C00003D9D0F8003B002B16DB0024C0F8104BAC
:1052D000D0F8104B44F40024C0F8104BD0F8104B19
:1052E00044F01804C0F8104BD0F8104B44F0C04400
:1052F000C0F8104B012903D000205DF8044B704723
:10530000C0F8142BD0F8003B43F08023C0F8003BDA
:10531000F2E700BF0A30544F08B5D0F88C322BB1F9
:105320001B68984700B908BD0220FCE70220FAE795
:1053300008B5D0F88C325B689847002008BD38B5B6
:10534000044600F52075284600F037F90123C4F81B
:105350006C32B4F88632C4F8703294F8801201F0DE
:105360001F03012B0ED0022B11D02BB101F08001B5
:10537000204603F071FF03E02946204600F0A8FA1A
:10538000002038BD2946204600F0D6FAF8E7294625
:10539000204600F001FBF3E738B504460D4691BB0B
:1053A0001346D0F86C22032A03D0052A24D00846DD
:1053B00033E0D0F84C11D0F8502191420DD9891A20
:1053C000C0F84C118A4206D98AB21946204600F02C
:1053D000E7FB284621E092B2F7E7D0F88C321B6950
:1053E0001BB190F87422032A04D0204600F0E0FBA1
:1053F000284612E09847F8E70021C0F86C1203F045
:105400002BFF284609E0D0F88C329B6933B190F825
:105410007422032A04D19847002038BD0220FCE7FB
:105420000220FAE738B504460D46002953D1134649
:10543000D0F86C22022A0CD0042A00D01AB980219C
:10544000204603F009FF94F87832012B3ED028461D
:1054500038BD016A426A91421BD8C169B1FBF2F3BF
:1054600002FB13132BB98A4203D8D0F87032994249
:105470001CD3D4F88C32DB681BB194F87422032A55
:1054800021D08021204603F0E7FE204600F09BFB60
:10549000D9E78A1A026292B2194600F079FB00231A
:1054A0001A461946204603F0F7FECCE700221146C3
:1054B00000F06EFB0021C4F870120B460A4620462D
:1054C00003F0EAFEBFE720469847DAE7002384F8B6
:1054D00078322846BCE7D0F88C325B6933B190F85B
:1054E0007422032A04D198470020B1E70220AFE7D5
:1054F0000220ADE770B5044640230022114603F0B8
:10550000A0FE0125C4F844514026C4F8506133463A
:1055100000228021204603F094FEA561666284F893
:1055200074520023C4F86C326360C4F87C32D4F83F
:1055300090322BB1D4F88C325B680021204698471A
:10554000002070BD01740020704790F8743280F81C
:105550007532042380F874320020704790F8753259
:1055600080F874320020704708B590F87432032B2D
:1055700001D0002008BDD0F88C32DB69002BF8D0B8
:105580009847F6E7002070470020704700207047DA
:1055900008B5012280F87422D0F88C225268017973
:1055A0009047002008BD08B54B88012B00D008BDEE
:1055B000C0F87C3200F0FCFAF9E70B7803704B7806
:1055C00043708B78CA7803EB022343800B794A79C6
:1055D00003EB022383808B79CA7903EB0223C38018
:1055E000704710B50446802103F036FE00212046A6
:1055F00003F032FE10BD30B583B005460C464A8834
:10560000130A013B062B00F28480DFE803F0041646
:105610002A8282667300D0F888321B680DF1060179
:10562000007C9847BDF8062012B1E388002B74D1A6
:10563000E388002B7BD003B030BD037C43B9D0F8A6
:105640008C329B6A0DF10600984702234370E9E70C
:10565000D0F88C32DB6A0DF10600984702234370C4
:10566000E0E7D2B2052A34D8DFE802F0030B131BBF
:10567000232BD0F888325B680DF10601007C984737
:10568000D0E7D0F888329B680DF10601007C98477E
:10569000C8E7D0F88832DB680DF10601007C984736
:1056A000C0E7D0F888321B690DF10601007C9847ED
:1056B000B8E7D0F888325B690DF10601007C9847A5
:1056C000B0E7D0F888329B690DF10601007C98475D
:1056D000A8E72146FFF785FFADE7037C33B9D0F893
:1056E0008C325B6B0DF1060098479BE72146FFF774
:1056F00078FFA0E7037C43B9D0F88C321B6B0DF127
:1057000006009847072343708CE72146FFF769FF9F
:1057100091E72146FFF765FF8DE79A4228BF1A46B9
:10572000ADF806200146284600F025FA80E7284615
:1057300000F03EFA7FE738B504468B88F3B9CB8892
:10574000E3B94B887F2B19D803F07F0590F87432AA
:10575000032B0CD080F87652294603F08DFD2046AD
:1057600000F026FA35B1022384F8743209E0FFF71D
:1057700038FF06E0012384F8743202E02046FFF788
:1057800030FF38BD38B504460D468978284B19706E
:1057900001290ED890F87432022B0ED0032B21D0A1
:1057A0002946FFF71EFF224B19782046FFF7C0FD60
:1057B00002E02946FFF715FF38BD81B141600323A0
:1057C00080F87432FFF7A8FD022803D0204600F0CD
:1057D000EFF9F1E729462046FFF703FFECE700F079
:1057E000E7F9E9E789B1436899421DD0D9B2FFF7DB
:1057F0009FFD0F4B197861602046FFF78DFD022851
:105800000DD0204600F0D4F9D6E7022380F8743298
:105810004160FFF78DFD204600F0CAF9CCE729462C
:105820002046FFF7DEFEC7E700F0C2F9C4E700BF7D
:105830006804002008B5CB88012B0AD190F8743297
:10584000022B09D9032B09D10122011D00F093F984
:1058500001E0FFF7C6FE08BD5BB213B9FFF7C1FE5A
:10586000F9E70146002341F8083F012200F083F9DF
:10587000F1E708B590F87432013B022B12D8CB88BF
:10588000022B0CD10123C360D0F87C320BB103236F
:10589000C360022200F10C0100F06DF908BDFFF7B2
:1058A000A0FEFBE7FFF79DFEF8E708B590F874321D
:1058B000013B022B09D84B88012B00D008BD0023E7
:1058C000C0F87C3200F074F9F8E7FFF78AFEF5E7DC
:1058D00008B50B7803F06003202B05D0402B03D0D4
:1058E00043B1FFF77EFE03E0D0F88C329B68984707
:1058F000002008BD4B78092B1BD8DFE803F01117F7
:105900001A141A08051A0E0BFFF775FEF0E7FFF7D9
:1059100012FFEDE7FFF736FFEAE7FFF78BFFE7E758
:10592000FFF7A7FFE4E7FFF73EFEE1E7FFF7BDFF64
:10593000DEE7FFF756FEDBE738B505460C460B7889
:1059400003F06003202B06D0402B04D01BB1FFF7DF
:1059500048FE002038BD95F87432013B022B16D862
:105960002379012B0ED8D5F88C329B682146284626
:105970009847E388002BECD10028EAD1284600F0B4
:1059800017F9E6E721462846FFF72BFEE1E7214617
:105990002846FFF726FEDCE770B505468B880C78B5
:1059A00004F06004202C07D0DAB2402C04D05CB1A3
:1059B000FFF717FE002405E0D5F88C329B682846D7
:1059C00098470024204670BD202C09D04E78012E27
:1059D00033D0032E0AD0002E55D0FFF702FEF1E798
:1059E000D0F88C329B6898470446EBE790F8743205
:1059F000022B04D0032B11D0FFF7F3FDE2E70AB12D
:105A0000802A03D12846FFF7ECFDDBE7114603F0BF
:105A100023FC8021284603F01FFCD3E74B8823B9E1
:105A20001AB1802A01D0CB881BB1284600F0C0F8FB
:105A3000C8E7114603F010FCF7E790F87432022B28
:105A400004D0032B11D0FFF7CCFDBBE70AB1802AAD
:105A500003D12846FFF7C5FDB4E7114603F0FCFB70
:105A60008021284603F0F8FBACE74B88002BA9D136
:105A700012F07F0F03D1284600F09AF8A2E71146F2
:105A800003F0F2FBF7E790F87402022806D003282F
:105A900028D02846FFF7A5FD344693E70AB1802AAF
:105AA00012D113F0800F14D102F07F0202EB8202B8
:105AB000910001F5A071294400230B6002222846C1
:105AC00000F059F834467DE72846FFF78AFD344652
:105AD00078E702F07F0202EB820291001031294444
