:020000040800F2
:1000000000000220598300081573000817730008C8
:10001000197300081B7300081D730008000000001E
:10002000000000000000000000000000414C00083B
:100030001F73000800000000E14C00082173000855
:10004000A9830008A9830008A9830008A9830008E0
:10005000A9830008A983000837730008A983000852
:10006000A9830008417300084B730008A9830008A6
:10007000A9830008A9830008A9830008A9830008B0
:10008000A9830008A9830008A9830008A9830008A0
:1000900055730008A9830008A98300086573000848
:1000A000A9830008A9830008A9830008A983000880
:1000B000A9830008A9830008A9830008A983000870
:1000C000A9830008A9830008A9830008A983000860
:1000D000A9830008A9830008A9830008A983000850
:1000E000A9830008A9830008A9830008A983000840
:1000F000A9830008A9830008A9830008A983000830
:10010000A9830008A9830008A9830008A98300081F
:10011000A9830008A9830008A9830008A98300080F
:10012000A983000871730008A9830008A983000847
:10013000A9830008A9830008A9830008A9830008EF
:1001400081730008A9830008A9830008917300083F
:10015000A9830008A1730008B1730008A9830008EF
:10016000A9830008A9830008A9830008A9830008BF
:10017000A9830008A9830008A983000800000000E3
:08018000A9830008A98300080F
:1001900010B5054C237833B9044B13B10448AFF3C1
:1001A00000800123237010BDC4090020000000005E
:1001B000F88D000808B5034B1BB103490348AFF3A2
:1001C000008008BD00000000C8090020F88D00086C
:1001D00053B94AB9002908BF00281CBF4FF0FF31AE
:1001E0004FF0FF3000F06EB9ADF1080C6DE904CEB0
:1001F00000F006F8DDF804E0DDE9022304B0704702
:100200002DE9F047089D04468C46002B40F0838082
:100210008A42174647D9B2FA82F242B1C2F12000AF
:1002200024FA00F09140974040EA010C94404FEAD4
:100230001748230CBCFBF8F61FFA87FE08FB16C113
:1002400043EA014306FB0EF1994209D9FB1806F176
:10025000FF3080F01981994240F21681023E3B4402
:100260005B1AA4B2B3FBF8F008FB103344EA034472
:1002700000FB0EFEA64509D93C1900F1FF3380F0C2
:100280000581A64540F2028102383C4440EA06401E
:10029000A4EB0E0400261DB1D4400023C5E90043A1
:1002A0003146BDE8F08702B9FFDEB2FA82F2002AD9
:1002B00050D1CB1B4FEA174E1FFA87F80126B3FB2C
:1002C000FEFC210C0EFB1C3341EA034108FB0CF33E
:1002D0008B4207D979180CF1FF3002D28B4200F221
:1002E000E9808446C91AA3B2B1FBFEF00EFB1011DF
:1002F00043EA014408FB00F8A04507D93C1900F186
:10030000FF3302D2A04500F2D9801846A4EB0804BE
:1003100040EA0C40BFE78B4209D9002D00F0B180C4
:100320000026C5E9000130463146BDE8F087B3FA42
:1003300083F6002E4AD18B4202D3824200F2B8806B
:10034000841A61EB030101208C46002DA8D0C5E979
:10035000004CA5E7C2F1200320FA03F6974001FA0A
:1003600002F04FEA174ED9403043030CB1FBFEF6C2
:100370001FFA87F80EFB161143EA014306FB08F14A
:10038000994204FA02F409D9FB1806F1FF3C80F007
:100390008D80994240F28A80023E3B445B1A81B2D2
:1003A000B3FBFEF00EFB103341EA034100FB08F300
:1003B0008B4207D9791800F1FF3C73D28B4271D977
:1003C00002383944CB1A40EA064678E7C6F1200CD9
:1003D00003FA06F422FA0CF31C4320FA0CF701FA94
:1003E00006F34FEA144E21FA0CF11F433B0CB1FB0C
:1003F000FEF91FFA84F80EFB191143EA014109FBCB
:1004000008FA8A4502FA06F200FA06F308D96118DA
:1004100009F1FF3048D28A4546D9A9F102092144A1
:10042000A1EB0A01BFB2B1FBFEF00EFB101147EACF
:10043000014700FB08F8B84507D9E71900F1FF317B
:100440002ED2B8452CD90238274440EA0940A7EB00
:100450000807A0FB02894F45C64649461AD317D064
:100460005DB1B3EB0E0267EB010707FA0CFCF2403B
:100470004CEA0202F740C5E9002700263146BDE8F4
:10048000F0872E4628460BE70646E9E61846FDE6C5
:100490004345E5D2B8EB020E69EB04010138DFE712
:1004A0000846D2E760468DE78146B9E7664675E7BC
:1004B00030464AE7ACF1020C394413E702383C44B9
:1004C00024E700BF704700BF844641EA000313F0F1
:1004D00003036DD1403A41D351F8043B40F8043B4B
:1004E00051F8043B40F8043B51F8043B40F8043B0E
:1004F00051F8043B40F8043B51F8043B40F8043BFE
:1005000051F8043B40F8043B51F8043B40F8043BED
:1005100051F8043B40F8043B51F8043B40F8043BDD
:1005200051F8043B40F8043B51F8043B40F8043BCD
:1005300051F8043B40F8043B51F8043B40F8043BBD
:1005400051F8043B40F8043B51F8043B40F8043BAD
:1005500051F8043B40F8043B403ABDD2303211D34D
:1005600051F8043B40F8043B51F8043B40F8043B8D
:1005700051F8043B40F8043B51F8043B40F8043B7D
:10058000103AEDD20C3205D351F8043B40F8043B4D
:10059000043AF9D2043208D0D2071CBF11F8013B4B
:1005A00000F8013B01D30B8803806046704700BF11
:1005B000082A13D38B078DD010F003038AD0C3F120
:1005C0000403D21ADB071CBF11F8013B00F8013B02
:1005D00080D331F8023B20F8023B7BE7043AD9D3C1
:1005E000013A11F8013B00F8013BF9D20B78037096
:1005F0004B7843708B7883706046704710B5044623
:100600000E4B18784FF47A73B3FBF0F30C4A106872
:10061000B0FBF3F000F012FC68B90F2C01D90120F7
:100620000AE0002221464FF0FF3000F0C5FB054BE9
:100630001C60002000E0012010BD00BF0000002071
:100640001C0100200400002008B50B4B1A6842F47E
:1006500000721A601A6842F480621A601A6842F4E2
:1006600080721A60032000F095FB0F20FFF7C6FF91
:1006700006F02EFE002008BD003C0240034A11682F
:10068000034B1B780B441360704700BFE009002048
:1006900000000020014B1868704700BFE0090020EF
:1006A00038B50446FFF7F6FF0546B4F1FF3F02D028
:1006B000044B1B781C44FFF7EDFF401BA042FAD30C
:1006C00038BD00BF000000204A4B5A6822F4403277
:1006D0005A605A6841680A435A600268536823F4B2
:1006E0008073536002685368016943EA01235360D1
:1006F0000268536823F0407353600268536881684E
:100700000B4353600268936823F4006393600268AC
:100710009368C1680B439360826A374B9A4257D003
:100720000268936823F07063936002689368816A3B
:100730000B4393600268936823F040539360026810
:100740009368C16A0B4393600268936823F00203C5
:10075000936002689368017E43EA4103936090F8D6
:100760002030002B3FD00268536843F4006353608D
:100770000268536823F46043536001684B68426A1F
:10078000013A43EA42334B600268D36A23F47003B0
:10079000D3620168CB6AC269013A43EA0253CB6271
:1007A0000268936823F4007393600268936890F87A
:1007B000301043EA412393600268936823F4806316
:1007C000936002689368416943EA812393607047AC
:1007D0000268936823F0706393600268936823F063
:1007E00040539360B0E70268536823F4006353609A
:1007F000CAE700BF002301400100000F38B310B565
:100800000446036C43B1236C13F0100F0BD001208E
:10081000002384F83C3010BD05F074FF00236364AE
:1008200084F83C30EFE7236C23F4885323F0020371
:1008300043F0020323642046FFF746FF0020606474
:10084000236C23F0030343F001032364E0E701205A
:100850007047000030B482B00023019390F83C3020
:10086000012B00F0B780012380F83C300B68092B86
:100870003ED90568EA689BB203EB43031E3B07249D
:1008800004FA03F322EA0303EB600568EA688C6864
:100890000B8803EB43031E3B04FA03F31343EB60A3
:1008A0004B68062B3AD805686A6B03EB8303053B5C
:1008B0001F2404FA03F322EA03036B6305686A6BDF
:1008C0004B6803EB8303053B0C8804FA03F31343E3
:1008D0006B630268404B9A4250D002683E4B9A428A
:1008E00055D0002380F83C30184602B030BC704729
:1008F00005682A699BB203EB4303072404FA03F358
:1009000022EA03032B6105682A698C680B8803EBD4
:10091000430304FA03F313432B61C1E70C2B16D8EE
:1009200005682A6B03EB8303233B1F2404FA03F3BC
:1009300022EA03032B6305682A6B4B6803EB8303EE
:10094000233B0C8804FA03F313432B63C1E70568C8
:10095000EA6A03EB8303413B1F2404FA03F322EA10
:100960000303EB620568EA6A4B6803EB8303413BD0
:100970000C8804FA03F31343EB62AAE70B68122B0B
:10098000ABD1164A536843F480035360A5E70B6864
:10099000103B012BA5D8114A536843F40003536060
:1009A0000B68102B9DD10E4B1B6802F1467202F5AD
:1009B0002E3202F28332A2FB03239B0C03EB830350
:1009C0005B00019302E0019B013B0193019B002B23
:1009D000F9D186E7022088E700200140002301408A
:1009E0001C010020002800F0A18038B5044690F8D2
:1009F0002030D3B12268136823F002031360FFF79D
:100A000049FE054623685A6812F0020F10D0FFF71E
:100A100041FE401B0A28F5D9636A43F40033636240
:100A2000052384F82030012038BD05F0F3FEE1E70E
:100A30001A6842F001021A60FFF72CFE054623688F
:100A40005A6812F0010F0DD1FFF724FE401B0A284F
:100A5000F5D9636A43F400336362052384F82030D8
:100A60000120E1E7227E012A3DD01A6822F08002AF
:100A70001A60637E012B3BD02268136823F0400389
:100A80001360A37E012B39D02268136823F0200362
:100A90001360E37E012B37D02268136843F0100304
:100AA0001360237F012B35D02268136823F00803DD
:100AB0001360637F012B33D02268136823F0040393
:100AC0001360A368E2681343226913436269134306
:100AD0006268013A21681343CB6100206062012300
:100AE00084F82030A0E71A6842F080021A60C0E75C
:100AF0002268136843F040031360C2E7226813685A
:100B000043F020031360C4E72268136823F0100346
:100B10001360C6E72268136843F008031360C8E750
:100B20002268136843F004031360CAE7012070478A
:100B300070477047704770477047704770477047FD
:100B4000704770477047704770472DE9F84F05466A
:100B500003685C69D3F804809F68D3F80CB0D3F8BD
:100B600010A0D3F8189014F001063BD017F001063E
:100B700016D001229A6017F0020F08D117F0040F67
:100B80000CD117F0080606D04FF4805608E0FFF7A6
:100B9000CFFF002604E0FFF7CEFF01E04FF4006630
:100BA00017F4807F0DD02B684FF480729A6017F491
:100BB000007F40F0868017F4806F00F0868046F456
:100BC000005617F4803F0DD02B684FF480329A60A6
:100BD00017F4003F40F0838017F4802F00F08380EB
:100BE00046F4004614F0080F07D01BF0100F04D095
:100BF00046F400762B681022DA6014F0040F02D05D
:100C00001BF0080F79D114F0020F04D02B68DB68B9
:100C100013F0030F78D114F0400F07D01AF0100F23
:100C200004D046F480662B6810221A6114F0200F5D
:100C300002D01AF0080F6BD114F0100F04D02B68FB
:100C40001B6913F0030F6AD114F4003F02D018F0AF
:100C5000100F68D114F4803F02D018F0080F69D14A
:100C600014F4004F7AD018F0040F74D014F4807F7D
:100C700004D019F0010F01D046F0010614F4007FF2
:100C800004D019F0020F01D046F0020614F4806F70
:100C900004D019F0040F01D046F0040614F4006FDC
:100CA00059D019F0700956D0B9F1400F65D058D815
:100CB000B9F1200F5ED0B9F1300F42D146F02006D5
:100CC00044E02846FFF735FF7BE717F4006F02D0BA
:100CD00046F4804675E72846FFF72EFF71E7284661
:100CE000FFF728FF7EE717F4002F02D046F4803686
:100CF00078E72846FFF721FF74E72B680822DA60BF
:100D00002846FFF71CFF7EE72846FFF717FF82E71C
:100D10002B6808221A612846FFF713FF8CE7284644
:100D2000FFF70EFF90E72B6810225A602846FFF766
:100D300009FF8FE72B6808225A602846FFF703FF58
:100D40008EE7B9F1100F01D146F008062A689369C1
:100D500023F0700393612B6804225A609EB9BDE8AA
:100D6000F88FB9F1500F0BD0B9F1600FEED146F406
:100D70008076EBE746F01006E8E746F04006E5E748
:100D800046F08006E2E76B6A1E436E622846FFF774
:100D9000DBFEE4E7074AD36823F4E0631B041B0C83
:100DA000000200F4E060034343F0BF6343F4003308
:100DB000D360704700ED00E030B4174BDB68C3F33D
:100DC0000223C3F10704042C28BF04241D1D062D93
:100DD00018D9033B4FF0FF3505FA04F421EA04016A
:100DE000994005FA03F322EA0303194300280BDBB9
:100DF0000901C9B200F1604000F5614080F80013BC
:100E000030BC70470023E5E700F00F000901C9B2CC
:100E1000024B1954F4E700BF00ED00E014ED00E0D0
:100E2000002807DB00F01F02400901239340024A1B
:100E300042F82030704700BF00E100E00138B0F117
:100E4000807F0AD2064B5860064AF02182F82310B0
:100E50000020986007221A6070470120704700BF89
:100E600010E000E000ED00E068B110B50446437901
:100E70002BB10223637101236371002010BD037144
:100E800005F06AFDF5E701207047000010B4036823
:100E9000D9B210390C4AA2FB014212090B4CA25CD8
:100EA000C2655F2909D923F47F7323F00303043358
:100EB0008365806D5DF8044B704723F47F7323F0E6
:100EC00003038365F5E700BFABAAAAAA2C8E00082E
:100ED000836A826992B9012B0AD0022B02D00BB12E
:100EE00000207047C36A13F0807F28D1002070472C
:100EF000C36AB3F1C07F24D000207047B2F5005F11
:100F000009D0022B25D9032B25D1C36A13F0807F8A
:100F100023D100207047032B03D8DFE803F014042B
:100F2000140A00207047C36A13F0807F0DD100209F
:100F30007047C36AB3F1C07F09D000207047012019
:100F40007047012070470120704701207047012041
:100F50007047012070470020704701207047000053
:100F600070B50446FFF796FB002C5BD005460023C6
:100F700084F83430022384F835302268136823F073
:100F80000103136023681A6812F0010F0AD0FFF7FB
:100F900081FB431B052BF5D920236365032084F8CF
:100FA000350070BD1A68204810406168A2680A4385
:100FB000E1680A4321690A4361690A43A1690A4356
:100FC000E1690A43216A0A430243616A04291ED087
:100FD0001A602668756925F00705636A1D43042BAE
:100FE00007D1A36A1D43E36A1BB12046FFF770FFD8
:100FF00090B975612046FFF749FFE26D3F239340AA
:10100000836000206065012384F83530C9E7E16A18
:10101000206B01430A43DBE740236365012084F82A
:101020003500BEE70120BCE73F8010F0F0B583B08B
:10103000044600230193724B1D68724BA3FB0535D8
:10104000AD0A876D3E68C26D08239340334210D0CD
:1010500003681A6812F0040F0BD01A6822F0040219
:101060001A60C26D08239340BB60436D43F00103D7
:101070004365E26D01239340334209D022685269EF
:1010800012F0800F04D0BB60636D43F00203636510
:10109000E26D04239340334209D02268126812F0B3
:1010A000020F04D0BB60636D43F004036365E26D1F
:1010B00010239340334224D02268126812F0080FA4
:1010C0001FD0BB6023681A6812F4802F0DD01B68F4
:1010D00013F4002F04D1236C9BB12046984710E0F5
:1010E000A36C73B1204698470BE01A6812F4807F16
:1010F00003D11A6822F008021A60236C0BB1204653
:101100009847E26D20239340334255D022681268FD
:1011100012F0100F50D0BB6094F83530DBB2052BC5
:101120000ED023681A6812F4802F33D01B6813F492
:10113000002F2AD1636C002B3ED0204698473BE01D
:101140002268136823F0160313602268536923F0A2
:1011500080035361236CA3B12268136823F0080352
:101160001360E26D3F239340BB60002384F834306A
:10117000012384F83530236D002B3FD0204698475B
:101180003CE0A36C002BE7D1EBE7E36BA3B1204677
:10119000984711E01A6812F4807F09D11A6822F08A
:1011A00010021A60002384F83430012384F83530AB
:1011B000E36B0BB120469847636DFBB1636D13F091
:1011C000010F17D0052384F835302268136823F007
:1011D00001031360019B01330193AB4204D82368E0
:1011E0001B6813F0010FF5D1002384F8343001237C
:1011F00084F83530E36C0BB12046984703B0F0BD5E
:101200001C010020B5814E1B00230F2B00F2D9805A
:10121000F0B482B039E0072200E00022B2403A4345
:101220000234684E46F82420674A1468EA4324EAE8
:1012300005064F6817F4803F01D045EA0406624C6A
:101240002660646802EA04064F6817F4003F01D084
:1012500045EA04065C4C6660A46802EA04064F682E
:1012600017F4801F01D045EA0406574CA660E468D5
:1012700022404E6816F4001F01D045EA0402524C89
:10128000E26001330F2B00F2998001229A400C6832
:1012900004EA020532EA0404F3D14C68022C01D0BE
:1012A000122C10D1DE08083650F826C003F00704CF
:1012B000A7000F24BC402CEA040C0C69BC4044EA93
:1012C0000C0440F82640D0F800C05E000324B4406F
:1012D000E7432CEA040C4C6804F00304B44044EAED
:1012E0000C0404604C6804F1FF3CBCF1010F03D90D
:1012F000112C01D0122C10D1846807EA040CCC68A0
:10130000B44044EA0C048460446824EA02024C6855
:10131000C4F300149C4014434460C26817408A68B8
:10132000B2403A43C2604A6812F0805FA9D00022FE
:101330000192264A546C44F480445464526C02F482
:1013400080420192019A9C08A61C1E4A52F82670FF
:1013500003F0030296000F22B24027EA02071C4A5C
:1013600090423FF45AAF02F5806290421AD002F5E3
:101370008062904218D002F58062904216D002F549
:101380008062904214D002F58062904212D002F541
:101390008062904210D002F5806290423FF43BAFF1
:1013A00008223BE7012239E7022237E7032235E72B
:1013B000042233E7052231E706222FE702B0F0BC12
:1013C0007047704700380140003C0140003802403F
:1013D000000002400AB181617047090481617047D1
:1013E0007047000008B5054B5B69034200D108BD9A
:1013F000024B5861FFF7F4FFF9E700BF003C0140E2
:10140000002800F0C280F8B5044690F83D30002B6B
:101410006DD0242384F83D302268136823F0010343
:10142000136001F049F962685A4B9A4264D85A4BEA
:1014300098428CBF00230123002B40F0A880574D19
:10144000A5FB0035AF0C2668716821F03F0141EA29
:101450009541716021680B6A23F03F0365684D4A2E
:1014600095424FD87A1C13430B622568E96921F431
:101470004F4121F0FF016368464A93424CD801383E
:101480005B00B0FBF3F0013040F6FC73184278D0FB
:10149000C0F30B030B43EB6121680B6823F0C0031F
:1014A000E269206A024313430B6021688B6823F4CE
:1014B000034323F0FF032269E068024313438B6078
:1014C0002168CB6823F0FF036269A06902431343DC
:1014D000CB602268136843F001031360002020648E
:1014E000202384F83D30206384F83E00F8BD80F866
:1014F0003C3005F02DFC8CE7294B98428CBF002333
:10150000012399E74FF4967202FB07F2254DA5FBE4
:10151000025292090132A6E7A268BAB9461E03EB4D
:101520004307B6FBF7F60136C6F30B06B6FA86F6A6
:10153000760946BBC2B9421E03EB4303B2FBF3F28A
:101540000132C2F30B0242F40043A3E7461E03EB51
:10155000830707EB8707B6FBF7F60136C6F30B06E2
:10156000B6FA86F67609E4E7421E03EB830303EB43
:101570008303B2FBF3F20132C2F30B0242F44043A5
:1015800088E7042386E7012384E7012070470120D0
:10159000ACE700BFA08601007F841E0083DE1B43F2
:1015A000FF083D00D34D62102DE9F04782B0D0F81E
:1015B0000080C1EBC10300EB83035A6D1B6D9A429F
:1015C00055D807460C46C1469B1AC1EBC10200EB39
:1015D0008202526C9A4200D31A4602F1030A4FEA81
:1015E0009A0A15E006F1030A4FEA9A0AC4EBC40509
:1015F00007EB8505A96C3B7C0093B3B2E2B2404691
:1016000002F0D0F9AB6C3344AB646B6D1E446E6575
:1016100009EB441303F510639B699BB2534512D346
:10162000C4EBC40207EB8202516D136D99420AD2DA
:101630004BB15B1AC4EBC40207EB8202566C9E42AC
:10164000D0D31E46CEE7C4EBC40007EB80073A6D4B
:101650007B6D9A420FD804F00F040123A340D8F801
:10166000344824EA0304C8F83448002000E001208C
:1016700002B0BDE8F0870020FAE7F0B58BB0002893
:1016800000F08C800546046890F8BD332BB303232B
:1016900085F8BD33E36B13F4807F01D100232B6108
:1016A000286801F02FFF2C4654F8107B6E460FCCB3
:1016B0000FC60FCC0FC694E8030086E803002B1D6D
:1016C0000ECB384601F060FE044658B1022385F87F
:1016D000BD33012420460BB0F0BD80F8BC3306F0CA
:1016E00057FCD4E70021286801F012FF234616E0DA
:1016F000C3EBC30205EB8202012182F83D1082F8A0
:101700003C30A2F84230002182F83F1051649164CD
:10171000C3EBC30205EB820211650133DBB26968DA
:101720008B42E5D316E0C4EBC40305EB8303002230
:1017300083F8FD2183F8FC4183F8FF21C3F80422DC
:10174000C3F80822C4EBC40305EB8303C3F81022DB
:101750000134E4B2A142E6D82C4654F8107B6E4620
:101760000FCC0FC60FCC0FC694E8030086E8030029
:101770002B1D0ECB384601F011FF044620B1022389
:1017800085F8BD330124A5E7002385F8383001230F
:1017900085F8BD33286802F0ADFA9BE7012499E78C
:1017A000026890F8BC33012B19D010B50446012310
:1017B00080F8BC33836A012B09D0206802F08EFACE
:1017C000206801F099FE002084F8BC0310BD8369F5
:1017D000012BF2D0936B43F480339363EDE7022047
:1017E0007047000070B505460E460368196C03EBA0
:1017F000461303F53064A3680269012A09D0354A0B
:10180000914261D113F4004F54D04FF40043A360D0
:101810005DE013F0080F14D02F4A914205D913F45C
:10182000004F02D04FF40043A360284606F0F4FBBB
:1018300005F571720121286802F0BAFA0823A36045
:1018400045E013F0200F02D02023A3603FE013F007
:10185000280F3CD1204A914206D913F4004F03D0FF
:101860004FF40043A36032E0C6EBC60305EB8303ED
:10187000D3F804222169C1F31201521AC3F81422C9
:10188000D3F80412D3F808220A44C3F80822F1B2AC
:10189000284606F0C9FBD6B9C6EBC60605EB86039B
:1018A000D3F810329BB905F571720121286802F056
:1018B0007FFA0CE013F0200F01D02023A360F1B2D7
:1018C000284606F0B1FB02E0F1B206F0ADFB0020C5
:1018D00070BD00BF0A31544F0A30544F38B504462A
:1018E00003681D6C03EB411303F5306399680269CB
:1018F000012A0DD0124A954214D0204606F08CFBE6
:10190000104B9D4202D92369012B12D0002038BD13
:101910000C4A9542F1D911F4004FEED04FF4004239
:101920009A60EAE711F4004FE7D04FF400429A6062
:10193000E3E704F571720121206802F039FAE5E766
:101940000A31544F0A30544F2DE9F84F04460568C8
:10195000284602F00CFA08B1BDE8F88F2F4606467B
:10196000206802F0D3F90028F6D0206802F0CEF902
:1019700010F0020F04D02268536903F00203536190
:10198000206802F0C3F910F4002F74D1206802F02F
:10199000BDF910F4802F40F0C280206802F0B6F943
:1019A0000028C0F23281206802F0B0F910F4006F14
:1019B0000AD0D5F8083813F0010F40F040812268B2
:1019C000536903F400635361206802F09FF910F437
:1019D000805F40F03881206802F098F910F4005FD1
:1019E00040F08B81206802F091F910F0100F14D0B4
:1019F0002268936923F0100393612E6A06F00F07A3
:101A0000C6F34343022B00F09081062B00F0AC811B
:101A10002268936943F010039361206802F076F91D
:101A200010F0080F40F0B281206802F06FF910F456
:101A3000801F40F0B481206802F068F910F4001FA4
:101A400040F0B781206802F061F910F0804F40F05B
:101A5000BA81206802F05AF910F0040F3FF47CAF0D
:101A600023685D6815F0040F40F0B6812268536862
:101A70002B43536070E7206802F04CF98046B14672
:101A800025E007EB49130122C3F8082B49462046FD
:101A9000FFF7A8FE2BE049462046FFF71FFF07EBA4
:101AA00049130822C3F8082B24E007EB491320222E
:101AB000C3F8082B1AF4005F05D007EB49134FF465
:101AC0000052C3F8082B09F101094FEA5808B8F190
:101AD000000F3FF45BAF18F0010FF4D05FFA89F10B
:101AE000206802F027F9824610F0010FC9D11AF0E0
:101AF000080FD0D11AF0100F04D007EB49131022B1
:101B0000C3F8082B1AF0200FD4D02369012BCCD1B5
:101B100004F571720121206802F04AF9C5E72068D6
:101B200002F000F98046B1462FE0C9EBC90304EB8F
:101B30008303596C9A6C0A449A6449E01AF0080FBE
:101B400004D007EB49130822C3F808291AF0100F34
:101B500004D007EB49131022C3F808291AF0400FEC
:101B600004D007EB49134022C3F808291AF0020FEA
:101B700004D007EB49130222C3F808291AF0800F9A
:101B80003ED109F101094FEA5808B8F1000F3FF4BE
:101B900004AF18F0010FF4D05FFA89FB59462068B2
:101BA00002F0D1F8824610F0010FC7D009F00F0300
:101BB000012101FA03F2D7F8343823EA0203C7F807
:101BC000343807EB4913C3F8081923698B42ACD0AA
:101BD0005946204606F034FA2369012BAED1B9F1FB
:101BE000000FABD1C9EBC90304EB83031B6D002BC2
:101BF000A4D104F571720121206802F0D9F89DE7A3
:101C000049462046FFF7D0FCBBE7D5F8043823F05F
:101C10000103C5F8043894F8F433012B08D02046AA
:101C200006F04EFA2268536903F000435361BAE6A6
:101C3000002184F8F413204600F06CFAF2E7204605
:101C400006F026FABBE605F50068D8F8043023F064
:101C50000103C8F804301021206801F071FC14E081
:101C600007EB46134FF67F31C3F80819D3F8002964
:101C700022F40012C3F80029C3F8081BD3F8002B84
:101C800022F40012C3F8002B01366368B342E7D890
:101C9000D8F81C3043F00113C8F81C30236BEBB1AB
:101CA000D8F8843043F00B03C8F88430D8F84430B7
:101CB00043F00B03C8F84430D5F8003823F4FE6332
:101CC000C5F8003804F57172217C206802F070F8C4
:101CD0002268536903F4805353617CE6D8F81430CA
:101CE00043F4005343F02B03C8F81430D8F81030F5
:101CF00043F00B03C8F81030DEE7206802F03BF831
:101D0000206801F01DFDE060266800F0CFFC014670
:101D1000227B304601F07EFB204606F0A2F92268C5
:101D2000536903F4005353615CE647F6F0731E42B7
:101D30003FF46EAE4FEA161AC7EBC70804EB8808EB
:101D4000C6F30A12D8F80812284601F04BFFCAF36E
:101D50000A02D8F808321344C8F80832D8F8143206
:101D60001A44C8F8142253E6082204F57171284673
:101D700001F038FFC6F30A16C7EBC70204EB820274
:101D8000D2F814321E44C2F8146241E6204606F02E
:101D900062F92268536903F00803536144E60021A5
:101DA000204606F099F92268536903F480135361C1
:101DB00041E60021204606F089F92268536903F4C0
:101DC000001353613EE6204606F08CF92268536901
:101DD00003F0804353613CE6204606F089F945E66E
:101DE00090F8BC33012B0DD010B50446012380F8C8
:101DF000BC3380F83810006801F060FF002084F8E0
:101E0000BC0310BD02207047F8B507460C4611F020
:101E1000800F27D101F00F05C5EBC506B60006F50A
:101E2000FC760644311DC5EBC50500EB8505002099
:101E300085F8FD0104F00F040C708A60CB704A78BD
:101E400002B1CC80022B1DD097F8BC33012B1CD0E3
:101E5000012387F8BC33386801F083FC002087F841
:101E6000BC03F8BD01F00F00C0EBC00189003831A0
:101E700039440431C0EBC00007EB8000012580F835
:101E80003D50D7E700230B71DEE70220E9E710B5EC
:101E900004460A4611F0800F20D101F00F00C0EB7C
:101EA000C0039B0003F5FC732344191DC0EBC00065
:101EB00004EB8000002380F8FD3102F00F020A706D
:101EC00094F8BC33012B19D0012384F8BC3320686B
:101ED00001F092FC002084F8BC0310BD01F00F005B
:101EE000C0EBC0039B0038332344191DC0EBC00076
:101EF00004EB8000012380F83D30DEE70220ECE7B0
:101F000038B501F00F04C4EBC401890001F5FC7180
:101F100001440431C4EBC40500EB8505C5F8082273
:101F2000C5F810320023C5F8143285F8FD3185F864
:101F3000FC410369012B06D064B9DAB2006801F0F4
:101F4000A3FC002038BDC4EBC40500EB8505C5F833
:101F50000C22F1E7DAB2006801F038FDF1E701F098
:101F60000F01C1EBC10100EB8101D1F814027047F0
:101F700038B501F00F04C4EBC401890038310144C5
:101F80000431C4EBC40500EB8505AA642B6500236E
:101F90006B65012385F83D3085F83C400369012BD2
:101FA00006D05CB9DAB2006801F06EFC002038BDE2
:101FB000C4EBC40500EB8505EA64F2E7DAB2006819
:101FC00001F004FDF2E738B501F00F0542689542D3
:101FD00039D804460B4611F0800F1FD1C1EBC10167
:101FE000890001F5FC7101440431C3EBC30300EB2C
:101FF0008303002283F8FD2101238B700D7094F878
:10200000BC33012B21D0012384F8BC33206801F0BC
:10201000FAFD8DB1002084F8BC0338BDC5EBC501C5
:102020008900383101440431C5EBC50300EB83035B
:10203000012283F83D20DFE704F57172217C2068DE
:1020400001F0B6FEE6E70120E7E70220E5E701F050
:102050000F034268934231D810B5044611F0800F47
:102060001ED1C3EBC301890001F5FC7101440431A9
:10207000C3EBC30200EB8202002082F8FD010022C4
:102080008A700B7094F8BC33012B19D0012384F8AB
:10209000BC33206801F0E4FD002084F8BC0310BDCF
:1020A000C3EBC3018900383101440431C3EBC302DF
:1020B00000EB8202012082F83D00E0E7012070473A
:1020C0000220ECE730B40468606A19B940EA0240C3
:1020D000A06218E00D46A36A00EB13400023691EBE
:1020E0008B4209D203F1400104EB8101496800EB06
:1020F00011400133DBB2F2E740EA024005F13F0153
:1021000004EB81014860002030BC704703685962CD
:102110000020704770470000002800F0B98170B5BA
:1021200082B00446036813F0010F3BD0A64B9B68B6
:1021300003F00C03042B2CD0A34B9B6803F00C037F
:10214000082B21D06368B3F5803F4FD0B3F5A02FA3
:1021500052D09D4B1A6822F480321A601A6822F419
:1021600080221A606368002B50D0FEF793FA054670
:10217000954B1B6813F4003F14D1FEF78BFA401BFC
:102180006428F5D903208AE18F4B5B6813F4800F34
:10219000D8D08D4B1B6813F4003F03D06368002B2D
:1021A00000F07881236813F0020F54D0864B9B68AF
:1021B00013F00C0F3ED0844B9B6803F00C03082BEC
:1021C00033D0E368002B67D0804B01221A60FEF702
:1021D00061FA05467C4B1B6813F0020F53D1FEF7E2
:1021E00059FA401B0228F5D9032058E1764A1368B2
:1021F00043F480331360B5E7734B1A6842F48022CE
:102200001A601A6842F480321A60ABE7FEF742FAAD
:1022100005466D4B1B6813F4003FC3D0FEF73AFA36
:10222000401B6428F5D9032039E1674B5B6813F440
:10223000800FC6D1644B1B6813F0020F03D0E36814
:10224000012B40F02981604A136823F0F8032169CB
:1022500043EAC1031360236813F0080F40D0636999
:1022600063B35B4B01221A60FEF714FA0546564B26
:102270005B6F13F0020F33D1FEF70CFA401B0228FC
:10228000F5D903200BE1504A136823F0F8032169C4
:1022900043EAC1031360DEE74C4B00221A60FEF7ED
:1022A000F9F90546484B1B6813F0020FD3D0FEF72F
:1022B000F1F9401B0228F5D90320F0E0444B00223D
:1022C0001A60FEF7E7F905463F4B5B6F13F0020F0C
:1022D00006D0FEF7DFF9401B0228F5D90320DEE027
:1022E000236813F0040F78D0374B1B6C13F0805F1A
:1022F0000DD100230193344B1A6C42F080521A64C2
:102300001B6C03F080530193019B012500E0002525
:10231000304B1B6813F4807F21D0A368012B32D08F
:10232000052B36D0284B1A6F22F001021A671A6F5C
:1023300022F004021A67A368002B34D0FEF7AAF932
:102340000646214B1B6F13F0020F45D1FEF7A2F991
:10235000801B41F288339842F3D903209FE01D4A45
:10236000136843F480731360FEF794F90646194B23
:102370001B6813F4807FD0D1FEF78CF9801B0228F4
:10238000F5D903208BE0104A136F43F00103136764
:10239000D1E70D4B1A6F42F004021A671A6F42F030
:1023A00001021A67C7E7FEF775F90646064B1B6F71
:1023B00013F0020F10D0FEF76DF9801B41F2883345
:1023C0009842F3D903206AE00038024000004742F7
:1023D000800E474200700040E5B9A369002B5DD034
:1023E000314A926802F00C02082A5AD0022B17D008
:1023F0002E4B00221A60FEF74DF904462A4B1B684B
:1024000013F0007F42D0FEF745F9001B0228F5D9F2
:10241000032044E0244A136C23F080531364DCE768
:10242000224B00221A60FEF735F905461E4B1B6849
:1024300013F0007F06D0FEF72DF9401B0228F5D9D6
:1024400003202CE0E369226A1343626A43EA8213A1
:10245000A26A5208013A43EA0243E26A43EA02638B
:10246000114A5360114B01221A60FEF713F904461A
:102470000D4B1B6813F0007F06D1FEF70BF9001B14
:102480000228F5D903200AE0002008E0002006E039
:1024900001207047012002E0012000E0002002B08E
:1024A00070BD0120FBE700BF0038024060004742DA
:1024B000F8B5244B9B6803F00C03042B3DD0082B8C
:1024C0003DD1204B5A6802F03F025B6813F4800F45
:1024D00012D01C4B5968C1F3881100231A48A1FB84
:1024E0000001FDF775FE174B5B68C3F30143013331
:1024F0005B00B0FBF3F023E0124B5B68C3F388137F
:102500005C010025E41A65F10005AE0146EA946617
:10251000A701381B66EB0501CC0044EA5074C500E6
:10252000E81844F100018B0243EA905384022046EC
:1025300019460023FDF74CFED5E7034800E00348A9
:10254000F8BD00BF00380240001BB7000024F400B3
:10255000002800F09A8070B50D4604464F4B1B686A
:1025600003F00F038B4208D2CBB24C4A13701368AE
:1025700003F00F038B4240F08A80236813F0020FB0
:1025800017D013F0040F04D0454A936843F4E05386
:102590009360236813F0080F04D0414A936843F412
:1025A000604393603E4A936823F0F003A1680B43B5
:1025B0009360236813F0010F32D06368012B21D0A0
:1025C0009A1E012A25D9364A126812F0020F60D0ED
:1025D00033498A6822F0030213438B60FEF75AF8EE
:1025E00006462F4B9B6803F00C036268B3EB820F27
:1025F00016D0FEF74FF8801B41F288339842F0D98D
:10260000032041E0264A126812F4003FE0D1012085
:102610003AE0234A126812F0007FD9D1012033E05A
:102620001E4B1B6803F00F03AB4207D9EAB21B4BEA
:102630001A701B6803F00F03AB422CD1236813F010
:10264000040F06D0164A936823F4E053E1680B4365
:102650009360236813F0080F07D0114A936823F49E
:102660006043216943EAC1039360FFF721FF0C4BEC
:102670009B68C3F303130B4AD35CD8400A4B186022
:102680000F20FDF7BBFF002070BD01207047012027
:10269000FAE70120F8E70120F6E700BF003C02401E
:1026A00000380240548E00081C010020014B1868BD
:1026B000704700BF1C01002008B5FFF7F7FF044B6F
:1026C0009B68C3F38223034AD35CD84008BD00BF94
:1026D00000380240648E000808B5FFF7E7FF044B9E
:1026E0009B68C3F34233034AD35CD84008BD00BFA4
:1026F00000380240648E000830B583B00446036899
:1027000013F0050F06D1236813F0020F2ED100201D
:1027100003B030BD494B00221A60FDF7BBFF0546F0
:10272000474B1B6813F0006F06D0FDF7B3FF431B48
:10273000022BF5D90320EBE76268A3681B0743EA85
:1027400082133F4AC2F884303C4B01221A60FDF7E5
:10275000A1FF05463A4B1B6813F0006FD3D1FDF77C
:1027600099FF431B022BF5D90320D1E700230193E6
:10277000334B1A6C42F080521A641B6C03F0805386
:102780000193019B2F4A136843F480731360FDF794
:1027900081FF05462B4B1B6813F4807F06D1FDF7A4
:1027A00079FF431B022BF5D90320B1E7244B1B6FA4
:1027B00013F4407312D0E26802F440729A420DD0D2
:1027C0001F4B1A6F22F440721F490120086000203D
:1027D00008601A671B6F13F0010F13D1E36803F44D
:1027E0004072B2F5407F1ED0154A936823F4F81367
:1027F000936013490B6FE268C2F30B0213430B673C
:10280000002085E7FDF746FF05460D4B1B6F13F0D3
:10281000020FE3D1FDF73EFF401B41F2883398429F
:10282000F3D9032074E706498A6822F4F81223F0EA
:10283000704323F4407313438B60DAE76800474228
:102840000038024000700040400E474298B110B579
:10285000044643795BB1022363712268136843F035
:1028600004031360012363710020A06010BD037195
:1028700004F0E2FBEFE70120704738B50446026838
:10288000D36823F0A003D360FDF704FF0546236857
:10289000DB6813F0200F07D1FDF7FCFE401BB0F5FD
:1028A0007A7FF4D9032000E0002038BD38B50368F2
:1028B000DA6812F0400F01D0002038BD04464FF016
:1028C000FF32DA60FDF7E6FE05462368DB6813F0A9
:1028D000400F07D1FDF7DEFE431BB3F57A7FF4D935
:1028E0000320EAE70020E8E738B500285CD004467A
:1028F000437F002B41D0022363772368CA225A62A8
:10290000236853225A622046FFF7D0FF054600286D
:1029100037D12268936823F4E00323F040039360E7
:1029200021688A686368206903436069034313432D
:102930008B602368E2681A6122681369A16843EA20
:10294000014313612268D36823F08003D3602368B6
:102950009B6813F0200F1BD02268136C23F4802394
:1029600013642268136CA1690B4313642368FF226C
:102970005A6201236377284638BD037704F08EFB43
:10298000B9E72368FF225A62042363770125F2E73F
:102990002046FFF772FF0028DED02368FF225A622C
:1029A000042363770125E6E70125E4E700283BD00F
:1029B00010B504460023836290F85130002B2ED0CE
:1029C000022384F851302268136823F04003136017
:1029D0006368A2681343E268134322691343626980
:1029E0001343A26902F400721343E2691343226A9B
:1029F0001343A16A22680B431360638B03F0040343
:102A0000616A22680B4353602268D36923F4006330
:102A1000D36100206065012384F8513010BD80F837
:102A2000503004F091FBCBE70120704730B4036ACB
:102A300023F001030362056A4268846924F0730489
:102A40000B681C4325F002058B682B43104DA842F0
:102A500003D005F58065A84205D123F00803CD68B1
:102A60002B4323F004030A4DA84203D005F58065EB
:102A7000A84205D122F440724D6915438A692A4360
:102A8000426084614A684263036230BC704700BFA1
:102A90000000014030B4036A23F480730362036AC8
:102AA0004268C46924F073040D682C4323F4007356
:102AB0008D6843EA0523124DA84203D005F58065D1
:102AC000A84206D123F40063CD6843EA052323F42A
:102AD00080630B4DA84203D005F58065A84207D15D
:102AE00022F440524D6942EA05128D6942EA05120C
:102AF0004260C4614A68C263036230BC704700BF71
:102B00000000014030B4036A23F480530362036A77
:102B10004468C26922F4E6420D6842EA052223F4C1
:102B200000538D6843EA0533094DA84203D005F5EB
:102B30008065A84204D124F480444D6944EA851498
:102B40004460C2614A680264036230BC704700BFDF
:102B50000000014030B4036A056A25F001050562F2
:102B6000846924F0F00444EA021423F00A030B43BE
:102B70008461036230BC704730B4056A25F01005EB
:102B800005628469036A24F4704444EA023423F041
:102B9000A00343EA01138461036230BC7047836879
:102BA00023F070030B4343F00703836070477047C3
:102BB0000368304A904212D0B0F1804F0FD0A2F596
:102BC0007C4290420BD002F58062904207D002F521
:102BD0008062904203D002F57842904203D123F004
:102BE00070034A681343234A90422AD0B0F1804FC1
:102BF00027D0A2F57C42904223D002F58062904219
:102C00001FD002F5806290421BD002F578429042BC
:102C100017D002F57052904213D002F580629042B4
:102C20000FD002F5806290420BD0A2F5983290420C
:102C300007D002F58062904203D002F58062904294
:102C400003D123F44073CA68134323F080034A6915
:102C5000134303608B68C3620B688362054B984221
:102C600003D003F58063984201D10B69036301230C
:102C70004361704700000140B0B110B5044690F8C0
:102C80003D3063B1022384F83D30214651F8040BF6
:102C9000FFF78EFF012384F83D30002010BD80F83F
:102CA0003C3004F0D1FBEDE701207047B0B110B526
:102CB000044690F83D3063B1022384F83D3021464C
:102CC00051F8040BFFF774FF012384F83D30002016
:102CD00010BD80F83C30FFF76AFFEDE70120704738
:102CE00030B4036A23F010030362036A4468826904
:102CF00022F4E6420D6842EA052223F020038D68A3
:102D000043EA0513114DA84203D005F58065A8429A
:102D100006D123F08003CD6843EA051323F0400376
:102D20000A4DA84203D005F58065A84207D124F4D6
:102D300040644D6944EA85048D6944EA8504446031
:102D400082614A688263036230BC704700000140C0
:102D500038B590F83C30012B66D004460D4601236F
:102D600080F83C30022380F83D300C2A1AD8DFE886
:102D700002F00719191920191919341919194700DE
:102D80000068FFF753FE2268936943F008039361DC
:102D90002268936923F00403936122689369296987
:102DA0000B439361012384F83D30002084F83C00FC
:102DB00038BD0068FFF794FF2268936943F400630D
:102DC00093612268936923F4806393612268936915
:102DD000296943EA01239361E4E70068FFF75AFE9B
:102DE0002268D36943F00803D3612268D36923F0D2
:102DF0000403D3612268D36929690B43D361D1E706
:102E00000068FFF77FFE2268D36943F40063D36153
:102E10002268D36923F48063D3612268D369296966
:102E200043EA0123D361BDE70220C1E710B48468FF
:102E300024F47F4442EA03220A43224382605DF87D
:102E4000044B704790F83C30012B66D010B5044617
:102E5000012380F83C30022380F83D3002689368FB
:102E600023F47F4323F0770393600B68602B40D0FB
:102E700022D8402B47D00BD9502B0ED1CA684968B5
:102E80000068FFF767FE50212068FFF788FE04E026
:102E9000202B0CD008D9302B09D0012384F83D30E9
:102EA000002084F83C0010BD0BB1102BF5D1194661
:102EB0002068FFF774FEF0E7702B0ED0B3F5005FCB
:102EC000EBD1CB684A6889680068FFF7AFFF2268DA
:102ED000936843F480439360DFE7CB684A6889686E
:102EE0000068FFF7A3FF2268936843F077039360BD
:102EF000D3E7CA6849680068FFF73EFE6021206892
:102F0000FFF74DFEC9E7CA6849680068FFF722FE6F
:102F100040212068FFF743FEBFE70220704790F88A
:102F20003C30012B1CD070B4012680F83C60022399
:102F300080F83D3002685568936825F070050C688C
:102F40002C4323F080054B682B4354600268936048
:102F500080F83D60002380F83C30184670BC704714
:102F60000220704790F83C30012B22D0012380F8DA
:102F70003C30CB6823F440738A68134323F48063A6
:102F80004A68134323F400630A68134323F480530D
:102F90000A69134323F400534A69134323F480431B
:102FA000CA69134302685364002380F83C30184612
:102FB00070470220704700002DE9F843044602687C
:102FC000136923F44053C1680B431361836802699A
:102FD000134342691343C2691A430168CB6823F45F
:102FE000164323F00C031343CB600268536923F4A8
:102FF000407381690B435361C369B3F5004F60D0DF
:103000000368B84A934200F0148102F5806293424B
:1030100000F00F81FFF750FB00EB800000EB800019
:103020006568AD00B0FBF5F5AF4EA6FB05356D0943
:103030002F01FFF741FB00EB800505EB8505636879
:103040009B00B5FBF3F9FFF737FB00EB800000EBCB
:1030500080006568AD00B0FBF5F5A6FB05356D0990
:103060004FF0640808FB15952D013235A6FB053598
:103070006D0905F0F0053D44FFF71EFB00EB8000F5
:1030800000EB80006768BF00B0FBF7F7FFF714FBA9
:1030900000EB800000EB800063689B00B0FBF3F066
:1030A000A6FB0030400908FB10784FEA081808F129
:1030B0003208A6FB0836C6F3431623682E449E60EA
:1030C0000DE10368874A93425BD002F58062934228
:1030D00057D0FFF7F1FA00EB800000EB8000656845
:1030E0006D00B0FBF5F5804EA6FB05356D092F018F
:1030F000FFF7E2FA00EB800000EB800065686D00EE
:10310000B0FBF5F9FFF7D8FA00EB800000EB800088
:1031100065686D00B0FBF5F5A6FB05356D094FF050
:10312000640808FB1595ED003235A6FB05356D09E1
:103130006D0005F4F8753D44FFF7BEFA00EB800022
:1031400000EB800067687F00B0FBF7F7FFF7B4FA89
:1031500000EB800000EB800063685B00B0FBF3F3E2
:10316000A6FB03235B0908FB13784FEAC80808F1A4
:103170003208A6FB0836C6F3421623682E449E602A
:10318000ADE0FFF7A9FA00EB800000EB8000656876
:103190006D00B0FBF5F5544EA6FB05356D092F010A
:1031A000FFF79AFA00EB800000EB800065686D0085
:1031B000B0FBF5F9FFF790FA00EB800000EB800020
:1031C00065686D00B0FBF5F5A6FB05356D094FF0A0
:1031D000640808FB1595ED003235A6FB05356D0931
:1031E0006D0005F4F8753D44FFF776FA00EB8000BA
:1031F00000EB800067687F00B0FBF7F7FFF76CFA21
:1032000000EB800000EB800063685B00B0FBF3F331
:10321000A6FB03235B0908FB13784FEAC80808F1F3
:103220003208A6FB0836C6F3421623682E449E6079
:1032300055E0FFF751FA00EB800000EB8000656875
:10324000AD00B0FBF5F5284EA6FB05356D092F0145
:10325000FFF742FA00EB800505EB850563689B00EC
:10326000B5FBF3F9FFF738FA00EB800000EB8000C4
:103270006568AD00B0FBF5F5A6FB05356D094FF0AF
:10328000640808FB15952D013235A6FB05356D093F
:1032900005F0F0053D44FFF71FFA00EB800000EB5E
:1032A00080006768BF00B0FBF7F7FFF715FA00EB87
:1032B000800000EB800063689B00B0FBF3F0A6FB8E
:1032C0000030400908FB10784FEA081808F132086E
:1032D000A6FB0836C6F3431623682E449E60BDE85D
:1032E000F88300BF001001401F85EB5158B310B5A3
:1032F000044690F839300BB3242384F8393022681F
:10330000D36823F40053D3602046FFF755FE2268AC
:10331000136923F4904313612268536923F02A034D
:1033200053612268D36843F40053D3600020E06304
:10333000202384F8393084F83A3010BD80F83830D2
:1033400004F092FCD8E7012070470000002301330D
:103350000C4A934211D80269002AF8DA036943F053
:103360000103036100230133064A934207D802692F
:1033700012F0010FF7D1002070470320704703209F
:10338000704700BF400D030084B010B5044603A889
:1033900080E80E00089B012B1FD1A36B23F4803320
:1033A000A363E36823F4840323F04003E360E3684A
:1033B00023F44013E3600F9B012B09D02046FFF755
:1033C000C5FF069B012B1BD0BDE8104004B0704721
:1033D000E36843F48013E360F0E7E36843F04003FD
:1033E000E3602046FFF7B2FF0C9B23B9A36B43F4C5
:1033F0008033A363E5E7A36B23F48033A363E0E7A3
:10340000A36843F00603A360A36843F02003A3600E
:10341000DAE70000022A0AD00921C26822F47052B9
:10342000C260C36843EA8123C36000207047234B16
:103430000B44234A93422FD9224B0B44224A9342F6
:103440002CD9A1F57403A3F51053204A934227D930
:10345000A1F18373A3F5E7431D4A934222D31D4B89
:103460000B441D4A93421FD91C4B0B441C4A9342E8
:103470001CD31C4B0B441C4A934219D3A1F1B773C4
:10348000A3F55853194A934214D3194B0B44194AC4
:10349000934211D20721C0E70F21BEE70E21BCE7FE
:1034A0000D21BAE70C21B8E70B21B6E70A21B4E7F2
:1034B0000921B2E70821B0E70621AEE7405327FF14
:1034C000FF340C00401E1BFF3F420F007F4F1200D5
:1034D00020D6130060B6E5FE5FE3160000D3CEFEF3
:1034E00040771B00C05BB3FEC091210020753800FF
:1034F000E05459FEE09C4100836843F0010383607F
:1035000000207047836823F0010383600020704728
:1035100008B5C36823F0C043C360012909D069B965
:10352000C36843F08043C3603220FDF7B9F8002040
:1035300008BDC36843F00053C360F5E70120F7E717
:10354000890141F02001016100230133054A9342C2
:1035500005D8026912F0200FF7D100207047032030
:10356000704700BF400D03001023036100230133A7
:10357000054A934205D8026912F0100FF7D10020D6
:1035800070470320704700BF400D0300D0F800389B
:103590001943C0F8001800207047000084B02DE9DE
:1035A000F843044609A880E80E002546002306E0FB
:1035B00003F1400204EB82020021516001330E2B23
:1035C000F6D9DDF84C80B8F1000F1ED1A36B43F49F
:1035D0000013A363A36B23F40023A363A36B23F45F
:1035E0008023A3630023C4F8003E04F50066D4F8EA
:1035F0000038C4F800380E9B012B14D10B9B6BB91B
:1036000000212046FFF7C2FF11E0236823F40013D6
:103610002360A36B43F40023A363E3E70121204667
:10362000FFF7B4FF03E003212046FFF7AFFF1021AF
:103630002046FFF785FF814608B14FF0010920467B
:10364000FFF792FF08B14FF0010900233361736166
:10365000F3610AE0C3B94FF00060C2F8000900222C
:103660000A614FF67F328A600133099F9F4210D969
:1036700005EB431202F51061D2F800090028E9DBDE
:103680000020C2F80009EAE74FF09040C2F80009B4
:10369000E5E700230AE0BBB14FF09040C2F8000B11
:1036A00000220A614FF67F328A6001339F4210D9AF
:1036B00005EB431202F53061D2F8000B0028EADB7B
:1036C0000020C2F8000BEBE74FF00060C2F8000BDF
:1036D000E6E7336923F4807333610C9B012B1BD025
:1036E0000022A2616FF0804262611BB9A36943F0BE
:1036F0001003A361A269104B1343A3610F9B1BB17D
:10370000A36943F00803A361B8F1010F0DD0484647
:10371000BDE8F84304B07047084A3263326B42F4A4
:10372000803242F003023263DAE7A36943F0804358
:1037300043F00403A361EAE700383C800001800005
:10374000D0F8083813F0060307D0022B07D0062B59
:1037500001D00F20704702207047002070470220E0
:10376000704770B40C784B78012B22D0D0F81C38FD
:1037700004F00F060122B24043EA0243C0F81C38AD
:1037800000EB4410D0F8003B13F4004F0ED1D0F8FA
:10379000003B8A68C2F30A02C97842EA81421343B5
:1037A00043F0805343F40043C0F8003B002070BC5A
:1037B0007047D0F81C2804F00F06B3409BB21343A7
:1037C000C0F81C3800EB4410D0F8003913F4004F57
:1037D000ECD1D0F800398A68C2F30A02C97842EA0B
:1037E000814242EA84541C4344F0805444F400442F
:1037F000C0F80049DAE7000070B40B784A78012A73
:103800001FD0D0F83C5803F00F06012404FA06F646
:1038100025EA0645C0F83C58D0F81C58097801F054
:103820000F018C4025EA0444C0F81C4800EB43100B
:10383000D0F8002B124B1340C0F8003B002070BCA6
:103840007047D0F83C6803F00F0402FA04F4A4B205
:1038500026EA0404C0F83C48D0F81C48097801F076
:103860000F018A4092B224EA0202C0F81C2800EB41
:103870004310D0F80039034A1A40C0F80029DDE7A8
:103880000078F3EF007833EC70B40B784C78012CAF
:1038900026D000EB431000F530631C69E40CE4040F
:1038A0001C611C6924F0FF5424F4C0141C614C6991
:1038B0000CB18C684C611C6944F400241C611C69C7
:1038C0008D68C5F312052C431C61012A65D0D0F820
:1038D000003B43F00443C0F8003B002070BC70473D
:1038E0004C696CBB00EB4314D4F8105925F0FF551C
:1038F00025F4C015C4F81059D4F8105945F4002522
:10390000C4F81059D4F81059ED0CED04C4F810594E
:10391000012A33D000EB4313D3F8002942F00442CC
:10392000C3F800294B69002BD7D0D0F834380A7877
:1039300002F00F0101228A401343C0F83438CCE76B
:1039400000EB431404F510642569ED0CED042561CA
:10395000256925F0FF5525F4C01525614E698D6850
:10396000AE4200D94D61256945F4002525612569E0
:103970004E69C6F3120635432561C9E70A691AB1D3
:1039800000EB4311C1F8142900EB4310D0F80029D3
:1039900042F00442C0F800299FE7CA68002A96D086
:1039A0005A6194E770B49DF80C4064B903339D08E4
:1039B000AC4208D200EB023303F5805351F8046B9C
:1039C0001E600134F4E7002070BC7047F0B583B08E
:1039D0000B784C78012C2BD000EB431303F53064AB
:1039E0002569ED0CED042561256925F0FF5525F4C9
:1039F000C01525614D69002D40F0C38025698E6892
:103A0000C6F3120635432561256945F40025256175
:103A1000012A00F0CB80CA78012A00F0CD80D3F8CB
:103A2000002B42F00442C3F8002B002003B0F0BD8D
:103A30004C6984BB00EB4314D4F8105925F0FF55B2
:103A400025F4C015C4F81059D4F8105945F40025D0
:103A5000C4F81059D4F81059ED0CED04C4F81059FD
:103A6000012A4CD000EB4313D3F8004944F004443E
:103A7000C3F80049CC78012C6AD04B69002BD4D014
:103A8000D0F83428097801F00F040121A1400A433D
:103A9000C0F83428C9E700EB4314D4F81059ED0CF2
:103AA000ED04C4F81059D4F8105925F0FF5525F449
:103AB000C015C4F81059D4F810694D698F683D4499
:103AC000013DB5FBF7F5464F07EAC5453543C4F858
:103AD0001059D4F810594E69C6F312063543C4F88C
:103AE000105904F51064CD78012DB9D1256925F060
:103AF000C0452561256945F000552561B0E70A6993
:103B00001AB100EB4314C4F81429CA78012A08D06A
:103B100000EB4313D3F8002942F00442C3F8002914
:103B200083E7D0F8082812F4807F08D100EB431116
:103B3000D1F8002942F00052C1F80029E8E700EB73
:103B40004311D1F8002942F08052C1F80029DFE783
:103B5000D0F8084814F4807F0CD1D3F8004944F021
:103B60000054C3F8004900928B8A0A78C968FFF7AD
:103B700019FF5AE7D3F8004944F08054C3F80049CC
:103B8000F1E78E683544013DB5FBF6F52669144F23
:103B900007EAC5473E43266127698E68ADB206FB3A
:103BA00005F5C5F312053D43256131E7CA68002AD2
:103BB0003FF431AF62612EE7D0F8082812F4807F1D
:103BC00006D1D3F8002B42F00052C3F8002B26E7B1
:103BD000D3F8002B42F08052C3F8002B1FE700BF40
:103BE0000000F81F10B4033294080023A34206D249
:103BF00000F58052126841F8042B0133F6E70846BD
:103C00005DF8044B70470B784A78012A14D000EB1A
:103C10004310D0F8002B002A06DB2BB1D0F8003B74
:103C200023F08043C0F8003BD0F8003B43F400137E
:103C3000C0F8003B0020704700EB4310D0F800298B
:103C4000002A06DB2BB1D0F8003923F08043C0F8FE
:103C50000039D0F8003943F40013C0F80039E9E71F
:103C60000B784A78012A0ED000EB4310D0F8003BC5
:103C700023F40013C0F8003BCB78023BDBB2012BEE
:103C800015D90020704700EB4310D0F8003923F419
:103C90000013C0F80039CB78023BDBB2012BF0D81F
:103CA000D0F8003943F08053C0F80039E9E7D0F884
:103CB000003B43F08053C0F8003BE2E7D0F8003807
:103CC00023F4FE63C0F80038D0F80038090101F48D
:103CD000FE611943C0F800180020704708B5D0F8FD
:103CE000043823F00203C0F804380320FCF7D8FCA2
:103CF000002008BD08B5D0F8043843F00203C0F82E
:103D000004380320FCF7CCFC002008BD4269806920
:103D100010407047D0F8183800F50060C0691840AE
:103D2000000C7047D0F8183800F50060C0691840E2
:103D300080B2704700EB4111D1F8082B00F500600C
:103D400040691040704710B4D0F81048D0F83438AB
:103D500001F00F02D340DB01DBB2234300EB411043
:103D600000F51060806818405DF8044B70474069AA
:103D700000F001007047D0F8003923F4FF6323F00E
:103D80000703C0F8003900F500639A6802F00602E4
:103D9000042A05D05A6842F480725A6000207047A5
:103DA000D0F8002942F00302C0F80029F2E7000031
:103DB00010B4046C154B9C4203D9D0F8003B002B87
:103DC00016DB0024C0F8104BD0F8104B44F400244C
:103DD000C0F8104BD0F8104B44F01804C0F8104B4A
:103DE000D0F8104B44F0C044C0F8104B012903D068
:103DF00000205DF8044B7047C0F8142BD0F8003B4E
:103E000043F08023C0F8003BF2E700BF0A30544F74
:103E100010B5D0F89042D0F894325BB194F800021B
:103E2000FF2807D09B6894F8012221469847FF237A
:103E300084F80032002010BD4323038000487047FF
:103E40004000002043230380004870478400002086
:103E50004323038000487047D40000200A230380D6
:103E600000487047C800002038B50446D0F890528A
:103E700004F08FF9C5F80C02D4F890324BB1D4F8A5
:103E80009432DB6805F50371D5F8040298470020E9
:103E900038BD0220FCE738B5D0F89022D0F898421F
:103EA000F2B101EB810300EB8303DB694BB1C1EBA2
:103EB000C10504EB8504656CB3FBF5F405FB143315
:103EC00023B10023C2F81432002038BD01EB810376
:103ED00000EB83030022DA61134604F09DF9F3E757
:103EE0000220F2E7F0B583B006460C46D0F8907297
:103EF00000238DF80730ADF804300B7813F060051F
:103F000027D0202D53D1CA88DAB113F0800F0CD0FE
:103F1000D0F894329B68394660789847E2883946F1
:103F2000304600F064FD002544E04B7887F800320D
:103F30008B7987F80132CA88394600F06DFD00257B
:103F400038E0D0F894329B680022487898470025E2
:103F500030E04F780A2F14D00B2F20D01FB100F083
:103F600060FA022526E090F87432032B03D000F0AB
:103F700058FA02251EE0022201A900F038FD3D4654
:103F800018E090F87432032B03D000F04AFA0225AF
:103F900010E001220DF1070100F029FD0AE090F880
:103FA0007432032B06D000F03CFA022502E000F048
:103FB00038FA0225284603B0F0BD38B50446812101
:103FC00004F00AF90025E5620121204604F004F915
:103FD000C4F858518221204604F0FEF82564D4F834
:103FE00090324BB1D4F894325B689847D4F8900281
:103FF00004F00EFAC4F89052002038BD70B50446A3
:10400000037CABBB4FF400730222812104F0D9F88A
:104010000125E5624FF4007302222946204604F090
:10402000D0F8C4F85851082303228221204604F016
:10403000C8F8012323644FF4077004F0E1F9054642
:10404000C4F8900268B3D4F894321B6898470023F0
:10405000C5F81432C5F81832267CCEB94FF4007377
:10406000D5F804220121204604F0DEF8304670BD68
:1040700040230222812104F0A4F80125E5624023B7
:1040800002222946204604F09CF8C4F85851CAE799
:104090004023D5F804220121204604F0C5F800266B
:1040A000E4E70126E2E719B1C0F894120020704756
:1040B00002207047D0F89032C3F80812C3F81022DB
:1040C00000207047D0F89032C3F8041200207047E7
:1040D000D0F8902292B108B5037C43B94FF4007335
:1040E000D2F80422012104F09FF8002008BD4023EB
:1040F000D2F80422012104F097F8F6E70220704775
:1041000098B108B50346D0F88C0210B10020C3F86E
:104110008C0209B1C3F88812012183F874121A7055
:10412000184603F0EBFF002008BD0220704719B1CC
:10413000C0F88C12002070470220704708B504F0C8
:1041400038F8002008BD08B5D0F88C322BB11B68B8
:10415000984700B908BD0220FCE70220FAE708B53D
:10416000D0F88C325B689847002008BD38B504460B
:1041700000F52075284600F040F90123C4F86C32A0
:10418000B4F88632C4F8703294F8801201F01F033C
:10419000012B0ED0022B11D02BB101F08001204653
:1041A00004F022F803E02946204600F0B1FA00208E
:1041B00038BD2946204600F0DFFAF8E729462046B8
:1041C00000F00AFBF3E738B504460D4691BB1346F1
:1041D000D0F86C22032A03D0052A24D0084633E005
:1041E000D0F84C11D0F8502191420DD9891AC0F85D
:1041F0004C118A4206D98AB21946204600F01BFCAF
:10420000284621E092B2F7E7D0F88C321B691BB147
:1042100090F87422032A04D0204600F014FC2846AB
:1042200012E09847F8E70021C0F86C1203F0DCFFB9
:10423000284609E0D0F88C329B6933B190F874229B
:10424000032A04D19847002038BD0220FCE7022051
:10425000FAE738B504460D46002953D11346D0F885
:104260006C22022A0CD0042A00D01AB980212046E0
:1042700003F0BAFF94F87832012B3ED0284638BDBF
:10428000016A426A91421BD8C169B1FBF2F302FB99
:1042900013132BB98A4203D8D0F8703299421CD339
:1042A000D4F88C32DB681BB194F87422032A21D035
:1042B0008021204603F098FF204600F0CFFBD9E78D
:1042C0008A1A026292B2194600F09EFB00231A4637
:1042D0001946204603F0A8FFCCE70022114600F063
:1042E00093FB0021C4F870120B460A46204603F0E7
:1042F0009BFFBFE720469847DAE7002384F878322F
:104300002846BCE7D0F88C325B6933B190F8742250
:10431000032A04D198470020B1E70220AFE702202A
:10432000ADE770B5044640230022114603F049FF73
:104330000125C4F844514026C4F850613346002298
:104340008021204603F03DFFA561666284F8745227
:104350000023C4F86C326360C4F87C32D4F8903225
:104360002BB1D4F88C325B6800212046984700209E
:1043700070BD01740020704790F8743280F8753277
:10438000042380F874320020704790F8753280F86A
:1043900074320020704708B590F87432032B01D0B6
:1043A000002008BDD0F88C32DB69002BF8D098478C
:1043B000F6E700207047002070470020704708B5DE
:1043C000012280F87422D0F88C225268017990473B
:1043D000002008BD034600201A781AB10130C0B28F
:1043E0000133F9E7704708B54B88012B00D008BDB1
:1043F000C0F87C3200F027FBF9E70B7803704B78AC
:1044000043708B78CA7803EB022343800B794A7997
:1044100003EB022383808B79CA7903EB0223C380E9
:10442000704710B50446802103F0DEFE00212046CF
:1044300003F0DAFE10BD30B583B005460C464A885D
:10444000130A013B062B00F28480DFE803F0041618
:104450002A8282667300D0F888321B680DF106014B
:10446000007C9847BDF8062012B1E388002B74D178
:10447000E388002B7BD003B030BD037C43B9D0F878
:104480008C329B6A0DF10600984702234370E9E7DE
:10449000D0F88C32DB6A0DF1060098470223437096
:1044A000E0E7D2B2052A34D8DFE802F0030B131B91
:1044B000232BD0F888325B680DF10601007C984709
:1044C000D0E7D0F888329B680DF10601007C984750
:1044D000C8E7D0F88832DB680DF10601007C984708
:1044E000C0E7D0F888321B690DF10601007C9847BF
:1044F000B8E7D0F888325B690DF10601007C984777
:10450000B0E7D0F888329B690DF10601007C98472E
:10451000A8E72146FFF785FFADE7037C33B9D0F864
:104520008C325B6B0DF1060098479BE72146FFF745
:1045300078FFA0E7037C43B9D0F88C321B6B0DF1F8
:1045400006009847072343708CE72146FFF769FF71
:1045500091E72146FFF765FF8DE79A4228BF1A468B
:10456000ADF806200146284600F041FA80E72846CB
:1045700000F069FA7FE738B504468B88F3B9CB8839
:10458000E3B94B887F2B19D803F07F0590F874327C
:10459000032B0CD080F87652294603F035FE2046D6
:1045A00000F051FA35B1022384F8743209E0FFF7C4
:1045B00038FF06E0012384F8743202E02046FFF75A
:1045C00030FF38BD38B504460D468978284B197040
:1045D00001290ED890F87432022B0ED0032B21D073
:1045E0002946FFF71EFF224B19782046FFF7B7FD3B
:1045F00002E02946FFF715FF38BD81B14160032372
:1046000080F87432FFF79FFD022803D0204600F0A7
:104610001AFAF1E729462046FFF703FFECE700F01E
:1046200012FAE9E789B1436899421DD0D9B2FFF780
:1046300096FD0F4B197861602046FFF784FD022834
:104640000DD0204600F0FFF9D6E7022380F874323F
:104650004160FFF784FD204600F0F5F9CCE72946DC
:104660002046FFF7DEFEC7E700F0EDF9C4E700BF24
:10467000E409002008B5CB88012B0AD190F87432E8
:10468000022B09D9032B09D10122011D00F0AFF93A
:1046900001E0FFF7C6FE08BD5BB213B9FFF7C1FE2C
:1046A000F9E70146002341F8083F012200F09FF995
:1046B000F1E708B590F87432013B022B12D8CB8891
:1046C000022B0CD10123C360D0F87C320BB1032341
:1046D000C360022200F10C0100F089F908BDFFF768
:1046E000A0FEFBE7FFF79DFEF8E708B590F87432EF
:1046F000013B022B09D84B88012B00D008BD0023B9
:10470000C0F87C3200F09FF9F8E7FFF78AFEF5E782
:1047100008B50B7803F06003202B05D0402B03D0A5
:1047200043B1FFF77EFE03E0D0F88C329B689847D8
:10473000002008BD4B78092B1BD8DFE803F01117C8
:104740001A141A08051A0E0BFFF775FEF0E7FFF7AB
:1047500012FFEDE7FFF736FFEAE7FFF78BFFE7E72A
:10476000FFF7A7FFE4E7FFF73EFEE1E7FFF7BDFF36
:10477000DEE7FFF756FEDBE738B505460C460B785B
:1047800003F06003202B06D0402B04D01BB1FFF7B1
:1047900048FE002038BD95F87432013B022B16D834
:1047A0002379012B0ED8D5F88C329B6821462846F8
:1047B0009847E388002BECD10028EAD1284600F086
:1047C00042F9E6E721462846FFF72BFEE1E72146BE
:1047D0002846FFF726FEDCE770B505468B880C7887
:1047E00004F06004202C07D0DAB2402C04D05CB175
:1047F000FFF717FE002405E0D5F88C329B682846A9
:1048000098470024204670BD202C09D04E78012EF8
:1048100033D0032E0AD0002E55D0FFF702FEF1E769
:10482000D0F88C329B6898470446EBE790F87432D6
:10483000022B04D0032B11D0FFF7F3FDE2E70AB1FE
:10484000802A03D12846FFF7ECFDDBE7114603F091
:10485000CBFC8021284603F0C7FCD3E74B8823B963
:104860001AB1802A01D0CB881BB1284600F0EBF8A2
:10487000C8E7114603F0B8FCF7E790F87432022B52
:1048800004D0032B11D0FFF7CCFDBBE70AB1802A7F
:1048900003D12846FFF7C5FDB4E7114603F0A4FC99
:1048A0008021284603F0A0FCACE74B88002BA9D15F
:1048B00012F07F0F03D1284600F0C5F8A2E7114699
:1048C00003F09AFCF7E790F87402022806D0032858
:1048D00028D02846FFF7A5FD344693E70AB1802A81
:1048E00012D113F0800F14D102F07F0202EB82028A
:1048F000910001F5A071294400230B600222284693
:1049000000F075F834467DE72846FFF78AFD344607
:1049100078E702F07F0202EB820291001031294415
:104920000431E9E75BB2002B1EDB02F00F0000EB65
:10493000800005EB8000D0F8440118B3002B26DB83
:1049400002F07F0303EB83039C0004F5A0742C4466
:104950000AB1802A24D1002323600222214628465E
:1049600000F045F834464DE702F00F0000EB800000
:1049700005EB800080690028E0D12846FFF751FD53
:1049800034463FE72846FFF74CFD34463AE702F04D
:104990007F0303EB83039C0010342C440434D7E7DB
:1049A0001146284603F0DEFB10B101232360D4E753
:1049B00000232360D1E7C8B170B50D461646044602
:1049C000FFF708FD013040003080287003236B7032
:1049D000022307E001345A1CD2B2E8540233DBB29E
:1049E0000021A95420780028F4D170BD704710B57B
:1049F00013460222C0F86C22C36103620A460021FA
:104A000003F00AFC002010BD08B513460A46002139
:104A100003F002FC002008BD10B513460322C0F8C5
:104A20006C22C0F84831C0F84C310A46002103F02E
:104A3000FBFB002010BD08B513460A46002103F019
:104A4000F3FB002008BD08B50423C0F86C32002336
:104A50001A46194603F0E0FB002008BD08B50523FF
:104A6000C0F86C3200231A46194603F0DDFB002023
:104A700008BD842801D0033070470020704708B576
:104A800001F0A0F8002008BD2DE9F04387B00446EE
:104A90000F464569BDB18669AEB1D0F80480D0F843
:104AA0000090B0F90800FFF7E4FF0296019500902E
:104AB0003B4622694946404601F016F805900598A4
:104AC00007B0BDE8F08365682668D4F81080B4F9B3
:104AD0000800FFF7CEFF05AB019300903B461FFA9D
:104AE00088F23146284601F038F80128E7D0002046
:104AF000E6E708B500B9012001F0C4F9002008BDBF
:104B000000F1080343604FF0FF328260C36003612D
:104B100000230360704700230361704743684B60C4
:104B20009A688A6051609960086103680133036084
:104B3000704730B40D68B5F1FF3F11D000F10803A4
:104B40001C465B681A68AA42FAD963684B60996090
:104B50008C606160086103680133036030BC70479A
:104B60000469F2E70369416882688A6041685160BC
:104B70005A68824206D0002202611A68013A1A601D
:104B80001868704782685A60F5E7000082B0002319
:104B900001930D4B1B68B3F1FF3F08D04FF050035A
:104BA00083F31188BFF36F8FBFF34F8FFEE74FF092
:104BB000500383F31188BFF36F8FBFF34F8F019BB7
:104BC000002BFCD002B07047180100200848006894
:104BD000006880F308884FF0000080F3148862B604
:104BE00061B6BFF34F8FBFF36F8F00DF00BF0000D0
:104BF00008ED00E0DFF80C00016841F4700101608D
:104C00007047000088ED00E04FF0807340F8043CEE
:104C100021F0010140F8081C054B40F80C3C40F81D
:104C2000202C6FF0020340F8243C4438704700BF4A
:104C30008D4B000800000000000000000000000094
:104C4000074B19680868B0E8F04F80F30988BFF394
:104C50006F8F4FF0000080F311887047AFF3008032
:104C6000446A00204FF0500383F31188BFF36F8F25
:104C7000BFF34F8F0A4A136801331360012B00D032
:104C80007047084B1B6813F0FF0FF9D04FF050032B
:104C900083F31188BFF36F8FBFF34F8FFEE700BF21
:104CA0001801002004ED00E0094B1B6843B94FF0E8
:104CB000500383F31188BFF36F8FBFF34F8FFEE76D
:104CC000013B034A13600BB983F31188704700BF9F
:104CD000180100200000000000000000000000009B
:104CE000EFF30980BFF36F8F154B1A681EF0100F9A
:104CF00008BF20ED108A20E9F04F10602DE909006F
:104D00004FF0500080F31188BFF34F8FBFF36F8FC8
:104D100001F0DEF84FF0000080F3118809BC19683B
:104D20000868B0E8F04F1EF0100F08BFB0EC108A12
:104D300080F30988BFF36F8F704700BFAFF3008027
:104D4000446A002008B54FF0500383F31188BFF385
:104D50006F8FBFF34F8F00F08DFF18B1034B4FF0F3
:104D600080521A60002383F3118808BD04ED00E02F
:104D7000084A0023136008490B60084B1B68084968
:104D8000A1FB03139B09013B06490B60072313603A
:104D9000704700BF10E000E018E000E01C010020B8
:104DA000D34D621014E000E03A4B1A683A4B9A4235
:104DB00029D0384B1A68394B9A422DD010B582B0A1
:104DC000374B1A78D2B20192FF221A701B78DBB2ED
:104DD0008DF803309DF8033003F05003314A13700F
:104DE000314B07221A609DF8033013F0800F1CD05E
:104DF0002D4A1368013B13609DF803305B00DBB262
:104E00008DF80330EFE74FF0500383F31188BFF3C1
:104E10006F8FBFF34F8FFEE74FF0500383F311887E
:104E2000BFF36F8FBFF34F8FFEE71F4B1B68032B42
:104E300008D04FF0500383F31188BFF36F8FBFF397
:104E40004F8FFEE71B0203F4E063174A1360019BD8
:104E5000DBB2134A1370154B1A6842F470021A60E1
:104E60001A6842F070421A60FFF782FF0024104B6C
:104E70001C60FFF7BFFE0F4A136843F04043136006
:104E8000FFF7A4FE01F024F8FFF780FE204602B0F1
:104E900010BD00BF00ED00E071C20F4170C20F41B4
:104EA00000E400E0E5090020E809002020ED00E032
:104EB0001801002034EF00E0EFF305830F2B0FD92A
:104EC000104A9B5CDBB2104A12789A4208D94FF024
:104ED000500383F31188BFF36F8FBFF34F8FFEE74B
:104EE0000A4B1B6803F4E063094A1268934208D92D
:104EF0004FF0500383F31188BFF36F8FBFF34F8FD1
:104F0000FEE77047F0E300E0E50900200CED00E06B
:104F1000E8090020124A12F0070F1ED0D11D21F01F
:104F20000701C1F5C04313440A460E480260002140
:104F300041601344083B23F007030B4803605960AA
:104F40001960991A51601360084B1960084B196079
:104F5000084B4FF000421A6070474FF4C043E4E73B
:104F6000F0090020FC690020EC090020F86900200D
:104F7000F4690020F069002010B4134B1A461B6836
:104F80008342FBD35168541884420AD041684418C4
:104F9000A3420BD00360904200D010605DF8044B38
:104FA00070474068014451601046EFE7074C2468A1
:104FB000A34206D05B681944416013681B68036014
:104FC000E9E70460E7E700BFFC690020EC09002086
:104FD00070B5044600F040FE344B1B68A3B1344B5F
:104FE0001B681C424AD134B1083414F0070F02D0B8
:104FF00024F007040834002C42D02E4B1B68A34237
:105000004DD32D4B1D6804E0FFF784FFE7E72B46E7
:1050100015466A68A24202D22A68002AF7D1234ABA
:105020001268AA423DD01E6808362A681A606B686A
:105030001B1B102B10D9281910F0070F08D04FF0A8
:10504000500383F31188BFF36F8FBFF34F8FFEE7D9
:1050500043606C60FFF790FF6A6816490B689B1A03
:105060000B60164909688B4201D214490B60104B42
:105070001B6813436B6000232B6002E0002600E0F6
:10508000002600F083FE16F0070F0CD04FF05003FF
:1050900083F31188BFF36F8FBFF34F8FFEE70026B6
:1050A000EFE70026EDE7304670BD00BFEC090020B9
:1050B000F0690020F4690020FC690020F8690020F4
:1050C00080B338B50446A0F1080550F8043C164AF0
:1050D0001268134208D14FF0500383F31188BFF3D5
:1050E0006F8FBFF34F8FFEE750F8081C41B14FF0B0
:1050F000500383F31188BFF36F8FBFF34F8FFEE729
:1051000023EA020340F8043C00F0A6FD54F8041C16
:10511000064A13680B4413602846FFF72DFF00F082
:1051200035FE38BD704700BFF0690020F4690020EB
:1051300010B50446FFF796FDA26BE36B9A4204D0CC
:105140000024FFF7B1FD204610BD0124F9E710B59A
:105150000446FFF787FDA36B23B90124FFF7A4FDE5
:10516000204610BD0024F9E770B504461546866B4D
:10517000026C5AB903681BB100200136A66370BDEA
:10518000406800F0DDFF00236360F6E76DB98068DA
:10519000FBF79AF9226CA3681344A36062689342F8
:1051A00019D32368A3602846E7E7C068FBF78CF9AA
:1051B000226C5142E3689B1AE3602268934202D258
:1051C00063680B44E360022D01D00020D5E726B1CF
:1051D000013E0020D1E72846CFE70020CDE7034677
:1051E000026C6AB110B50846D9681144D9605C6890
:1051F000A14201D31968D960D968FBF765F910BDE0
:10520000704738B50546FFF72DFD95F8454064B267
:1052100003E000F07FFF013C64B2002C08DD6B6A04
:1052200033B105F1240000F0D3FE0028F3D0F0E7FD
:10523000FF2385F84530FFF737FDFFF713FD95F89D
:10524000444064B203E000F065FF013C64B2002C0E
:1052500008DD2B6933B105F1100000F0B9FE00281C
:10526000F3D0F0E7FF2385F84430FFF71DFD38BD8C
:1052700038B5E0B10D460446FFF7F4FC2168E26B57
:10528000236C03FB021060600020A063A160013A60
:1052900002FB0313E360FF2384F8443084F84530B5
:1052A000EDB9236963B9FFF7FFFC012038BD4FF06A
:1052B000500383F31188BFF36F8FBFF34F8FFEE767
:1052C00004F1100000F084FE0028ECD0084B4FF0F1
:1052D00080521A60BFF34F8FBFF36F8FE3E704F183
:1052E0001000FFF70DFC04F12400FFF709FCDAE7DA
:1052F00004ED00E010B5034602980C4631B9006099
:10530000C36304640121FFF7B3FF10BD0260F7E738
:1053100040B94FF0500383F31188BFF36F8FBFF391
:105320004F8FFEE730B585B01C46054653B192B1AC
:1053300089B94FF0500383F31188BFF36F8FBFF328
:105340004F8FFEE74FF0500383F31188BFF36F8F49
:10535000BFF34F8FFEE76AB148230393039B482BAB
:1053600013D04FF0500383F31188BFF36F8FBFF357
:105370004F8FFEE70029EFD04FF0500383F31188E1
:10538000BFF36F8FBFF34F8FFEE7012384F84630E2
:1053900000949DF820302846FFF7ACFF204605B06A
:1053A00030BD0000F0B585B0019288B10E461D46B3
:1053B0000446B1B1022D20D1E36B012B1DD04FF07B
:1053C000500383F31188BFF36F8FBFF34F8FFEE756
:1053D0004FF0500383F31188BFF36F8FBFF34F8FEC
:1053E000FEE7036C002BE5D04FF0500383F31188E8
:1053F000BFF36F8FBFF34F8FFEE700F091FE0746BC
:1054000058B9019B002B44D04FF0500383F311880F
:10541000BFF36F8FBFF34F8FFEE7002739E02A46B7
:1054200031462046FFF7A0FE626A6AB938B13C4BAC
:105430004FF080521A60BFF34F8FBFF36F8FFFF7AB
:1054400033FC012005B0F0BD04F1240000F0C0FDE4
:105450000028F4D0324B4FF080521A60BFF34F8FC8
:10546000BFF36F8FEBE7FFF71FFC0020EAE702A80E
:1054700000F0F4FD012719E0002384F8443021E016
:10548000002384F8453023E02046FFF7BAFE00F001
:105490007DFCFFF7E7FBA26BE36B9A42BFD3022DC3
:1054A000BDD0019B002BDED0002FE0D0FFF7FCFB2E
:1054B00000F0D2FBFFF7D6FB94F844305BB2B3F1B7
:1054C000FF3FD9D094F845305BB2B3F1FF3FD7D05E
:1054D000FFF7EAFB01A902A800F0CCFDC8B92046FD
:1054E000FFF726FE0028CFD0019904F1100000F04C
:1054F0003BFD2046FFF785FE00F048FC0028C8D1A0
:10550000074B4FF080521A60BFF34F8FBFF36F8F7E
:10551000BFE72046FFF775FE00F038FC002091E75A
:1055200004ED00E02DE9F84390B1894690461F460E
:105530000446B1B1022F20D1E36B012B1DD04FF0F7
:10554000500383F31188BFF36F8FBFF34F8FFEE7D4
:105550004FF0500383F31188BFF36F8FBFF34F8F6A
:10556000FEE7036C002BE5D04FF0500383F3118866
:10557000BFF36F8FBFF34F8FFEE7FFF79DFCEFF395
:1055800011864FF0500383F31188BFF36F8FBFF381
:105590004F8FA26BE36B9A4206D3022F04D00020F8
:1055A00086F31188BDE8F88394F845506DB23A4609
:1055B00049462046FFF7D8FDB5F1FF3F05D06B1CEB
:1055C0005BB284F845300120EAE7636A0BB9012039
:1055D000E6E704F1240000F0FBFC30B1B8F1000F65
:1055E00005D00120C8F80000DAE70120D8E7012043
:1055F000D6E70000F0B585B0019290B10E460446A2
:10560000C1B100F08DFD074600BB019B002B5CD0B3
:105610004FF0500383F31188BFF36F8FBFF34F8FA9
:10562000FEE74FF0500383F31188BFF36F8FBFF392
:105630004F8FFEE7036C002BE3D04FF0500383F352
:105640001188BFF36F8FBFF34F8FFEE700273CE059
:1056500031462046FFF7C3FD013DA563236923B909
:10566000FFF722FB012005B0F0BD04F1100000F0AF
:10567000AFFC0028F4D0354B4FF080521A60BFF3D6
:105680004F8FBFF36F8FEBE7FFF70EFB0020EAE7CA
:1056900002A800F0E3FC012721E0002384F8443055
:1056A00029E0002384F845302BE02046FFF7A9FDD0
:1056B00000F06CFB09E02046FFF7A3FD00F066FB5D
:1056C0002046FFF744FD00283DD1FFF7CBFAA56B3C
:1056D000002DBDD1019B002BD6D0002FD8D0FFF7D5
:1056E000E3FA00F0B9FAFFF7BDFA94F844305BB280
:1056F000B3F1FF3FD1D094F845305BB2B3F1FF3F37
:10570000CFD0FFF7D1FA01A902A800F0B3FC00281E
:10571000D1D12046FFF71BFD0028C6D0019904F126
:10572000240000F021FC2046FFF76BFD00F02EFB6B
:105730000028CAD1054B4FF080521A60BFF34F8F3B
:10574000BFF36F8FC1E700208DE700BF04ED00E0DD
:10575000002300E00133072B0BD8064A52F8332010
:10576000002AF7D1034A42F8331002EBC303586012
:1057700070477047046A002070B504460D4616460F
:10578000FFF770FA94F844305BB2B3F1FF3F0DD0ED
:1057900094F845305BB2B3F1FF3F0BD0FFF784FACA
:1057A000A36B5BB12046FFF72CFD70BD002384F88E
:1057B0004430EDE7002384F84530EFE732462946D0
:1057C00004F1240000F0E8FBECE70000084B1B6844
:1057D0001B6823B9074B4FF0FF321A607047044B28
:1057E0001B68DB68DB685A68024B1A60704700BFB1
:1057F000486A00201C6B00202DE9F04780460D46CA
:1058000017469946089EDDF824A00A9C9200A5211F
:10581000206B03F0BFF8236B07F18042013A03EBE2
:10582000820727F0070700220F2A07D8A95CA318D0
:1058300083F83410AB5C0BB10132F5E7002384F838
:105840004330062E00D90626E66266640025A5646C
:10585000201DFFF760F904F11800FFF75CF92461DF
:10586000C6F10706A6616462E56484F8505084F8C6
:1058700052504A4641463846FFF7C6F92060BAF111
:10588000000F01D0CAF80040BDE8F08738B5002409
:1058900007E004EB840293000E481844FFF730F948
:1058A0000134062CF5D90C4D2846FFF729F90B4C8D
:1058B0002046FFF725F90A48FFF722F90948FFF7C4
:1058C0001FF90948FFF71CF9084B1D60084B1C60C5
:1058D00038BD00BF506A0020F46A0020086B002029
:1058E000246B0020506B00203C6B0020486A002095
:1058F0004C6A002010B50446FFF7B4F9204A13683B
:10590000013313601F4B1B685BB11F4B1B686BB9E6
:105910001C4B1B68DA6AE36A9A4207D8194B1C6071
:1059200004E0184B1C601368012B26D0174A13683B
:1059300001331360E06A01238340154A11680B4369
:10594000136000EB8000211D124B03EB8000FFF77A
:10595000E5F8FFF7A9F90C4B1B686BB1094B1B6805
:10596000DA6AE36A9A4207D20B4B4FF080521A6010
:10597000BFF34F8FBFF36F8F10BDFFF787FFD5E7E2
:10598000DC6A0020446A0020386B0020EC6A0020AA
:10599000F06A0020506A002004ED00E010B50446D3
:1059A00090F8513063B1012B11D0022B0ED04FF083
:1059B000500383F31188BFF36F8FBFF34F8FFEE760
:1059C000006BFFF77DFB2046FFF77AFB10BDFFF76A
:1059D00077FBFBE70F4B1B68D3B110B5FFF742F91C
:1059E0000D4BDB68DC68201DFFF7BCF80B4A136821
:1059F000013B1360074A1368013B1360FFF754F93A
:105A00002046FFF7CBFF034B1B68002BE6D110BDF0
:105A1000704700BFE06A0020506B0020DC6A002065
:105A200008B5FFF7D7FF064B1B68012BF9D9054BCB
:105A30004FF080521A60BFF34F8FBFF36F8FF0E7C4
:105A4000506A002004ED00E070B504460D461F4B7F
:105A50001E681F4B1A68002182F852101868043023
:105A6000FFF780F850B91A4B1B68DA6A012303FA72
:105A700002F218490B6823EA02030B60B4F1FF3FFE
:105A80000DD03444124B1B685C60A64210D9124BF7
:105A900018680F4B19680431FFF74BF870BD002DE3
:105AA000EFD00B4B196804310C48FFF737F8F5E7D6
:105AB0000B4B1868064B19680431FFF73AF8094B8D
:105AC0001B68A342EAD9074B1C60E7E7646B002020
:105AD000446A0020F06A00204C6A00203C6B0020E1
